{
  "_format": "hh-sol-artifact-1",
  "contractName": "MyEpicGame",
  "sourceName": "contracts/MyEpicGame.sol",
  "abi": [
    {
      "inputs": [
        {
          "internalType": "string[]",
          "name": "boxNames",
          "type": "string[]"
        },
        {
          "internalType": "string[]",
          "name": "boxFrequences",
          "type": "string[]"
        },
        {
          "internalType": "string[]",
          "name": "boxMoods",
          "type": "string[]"
        },
        {
          "internalType": "string[]",
          "name": "boxImageURIs",
          "type": "string[]"
        }
      ],
      "stateMutability": "nonpayable",
      "type": "constructor"
    },
    {
      "anonymous": false,
      "inputs": [
        {
          "indexed": true,
          "internalType": "address",
          "name": "owner",
          "type": "address"
        },
        {
          "indexed": true,
          "internalType": "address",
          "name": "approved",
          "type": "address"
        },
        {
          "indexed": true,
          "internalType": "uint256",
          "name": "tokenId",
          "type": "uint256"
        }
      ],
      "name": "Approval",
      "type": "event"
    },
    {
      "anonymous": false,
      "inputs": [
        {
          "indexed": true,
          "internalType": "address",
          "name": "owner",
          "type": "address"
        },
        {
          "indexed": true,
          "internalType": "address",
          "name": "operator",
          "type": "address"
        },
        {
          "indexed": false,
          "internalType": "bool",
          "name": "approved",
          "type": "bool"
        }
      ],
      "name": "ApprovalForAll",
      "type": "event"
    },
    {
      "anonymous": false,
      "inputs": [
        {
          "indexed": false,
          "internalType": "address",
          "name": "sender",
          "type": "address"
        },
        {
          "indexed": false,
          "internalType": "uint256",
          "name": "tokenId",
          "type": "uint256"
        },
        {
          "indexed": false,
          "internalType": "uint256",
          "name": "boxIndex",
          "type": "uint256"
        }
      ],
      "name": "BoxNFTMinted",
      "type": "event"
    },
    {
      "anonymous": false,
      "inputs": [
        {
          "indexed": false,
          "internalType": "string",
          "name": "newBoxFrequence",
          "type": "string"
        },
        {
          "indexed": false,
          "internalType": "string",
          "name": "newBoxMood",
          "type": "string"
        }
      ],
      "name": "PartyComplete",
      "type": "event"
    },
    {
      "anonymous": false,
      "inputs": [
        {
          "indexed": true,
          "internalType": "address",
          "name": "from",
          "type": "address"
        },
        {
          "indexed": true,
          "internalType": "address",
          "name": "to",
          "type": "address"
        },
        {
          "indexed": true,
          "internalType": "uint256",
          "name": "tokenId",
          "type": "uint256"
        }
      ],
      "name": "Transfer",
      "type": "event"
    },
    {
      "inputs": [
        {
          "internalType": "address",
          "name": "to",
          "type": "address"
        },
        {
          "internalType": "uint256",
          "name": "tokenId",
          "type": "uint256"
        }
      ],
      "name": "approve",
      "outputs": [],
      "stateMutability": "nonpayable",
      "type": "function"
    },
    {
      "inputs": [
        {
          "internalType": "address",
          "name": "owner",
          "type": "address"
        }
      ],
      "name": "balanceOf",
      "outputs": [
        {
          "internalType": "uint256",
          "name": "",
          "type": "uint256"
        }
      ],
      "stateMutability": "view",
      "type": "function"
    },
    {
      "inputs": [],
      "name": "checkIfUserHasNFT",
      "outputs": [
        {
          "components": [
            {
              "internalType": "uint256",
              "name": "boxIndex",
              "type": "uint256"
            },
            {
              "internalType": "string",
              "name": "frequence",
              "type": "string"
            },
            {
              "internalType": "string",
              "name": "mood",
              "type": "string"
            },
            {
              "internalType": "string",
              "name": "imageURI",
              "type": "string"
            }
          ],
          "internalType": "struct MyEpicGame.BoxAttributes",
          "name": "",
          "type": "tuple"
        }
      ],
      "stateMutability": "view",
      "type": "function"
    },
    {
      "inputs": [],
      "name": "getAllDefaultBoxes",
      "outputs": [
        {
          "components": [
            {
              "internalType": "uint256",
              "name": "boxIndex",
              "type": "uint256"
            },
            {
              "internalType": "string",
              "name": "frequence",
              "type": "string"
            },
            {
              "internalType": "string",
              "name": "mood",
              "type": "string"
            },
            {
              "internalType": "string",
              "name": "imageURI",
              "type": "string"
            }
          ],
          "internalType": "struct MyEpicGame.BoxAttributes[]",
          "name": "",
          "type": "tuple[]"
        }
      ],
      "stateMutability": "view",
      "type": "function"
    },
    {
      "inputs": [
        {
          "internalType": "address",
          "name": "account",
          "type": "address"
        }
      ],
      "name": "getAllOwnedBoxes",
      "outputs": [
        {
          "internalType": "uint256[]",
          "name": "",
          "type": "uint256[]"
        }
      ],
      "stateMutability": "view",
      "type": "function"
    },
    {
      "inputs": [
        {
          "internalType": "uint256",
          "name": "tokenId",
          "type": "uint256"
        }
      ],
      "name": "getApproved",
      "outputs": [
        {
          "internalType": "address",
          "name": "",
          "type": "address"
        }
      ],
      "stateMutability": "view",
      "type": "function"
    },
    {
      "inputs": [
        {
          "internalType": "uint256",
          "name": "tokenId",
          "type": "uint256"
        }
      ],
      "name": "getNftHolderAttributes",
      "outputs": [
        {
          "components": [
            {
              "internalType": "uint256",
              "name": "boxIndex",
              "type": "uint256"
            },
            {
              "internalType": "string",
              "name": "frequence",
              "type": "string"
            },
            {
              "internalType": "string",
              "name": "mood",
              "type": "string"
            },
            {
              "internalType": "string",
              "name": "imageURI",
              "type": "string"
            }
          ],
          "internalType": "struct MyEpicGame.BoxAttributes",
          "name": "",
          "type": "tuple"
        }
      ],
      "stateMutability": "view",
      "type": "function"
    },
    {
      "inputs": [],
      "name": "getNftHolders",
      "outputs": [
        {
          "internalType": "uint256[]",
          "name": "",
          "type": "uint256[]"
        }
      ],
      "stateMutability": "view",
      "type": "function"
    },
    {
      "inputs": [
        {
          "internalType": "address",
          "name": "_owner",
          "type": "address"
        }
      ],
      "name": "getTokenIds",
      "outputs": [
        {
          "internalType": "uint256[]",
          "name": "",
          "type": "uint256[]"
        }
      ],
      "stateMutability": "view",
      "type": "function"
    },
    {
      "inputs": [],
      "name": "hostAParty",
      "outputs": [],
      "stateMutability": "nonpayable",
      "type": "function"
    },
    {
      "inputs": [
        {
          "internalType": "address",
          "name": "owner",
          "type": "address"
        },
        {
          "internalType": "address",
          "name": "operator",
          "type": "address"
        }
      ],
      "name": "isApprovedForAll",
      "outputs": [
        {
          "internalType": "bool",
          "name": "",
          "type": "bool"
        }
      ],
      "stateMutability": "view",
      "type": "function"
    },
    {
      "inputs": [
        {
          "internalType": "uint256",
          "name": "_boxIndex",
          "type": "uint256"
        }
      ],
      "name": "mintBoxNFT",
      "outputs": [],
      "stateMutability": "nonpayable",
      "type": "function"
    },
    {
      "inputs": [],
      "name": "name",
      "outputs": [
        {
          "internalType": "string",
          "name": "",
          "type": "string"
        }
      ],
      "stateMutability": "view",
      "type": "function"
    },
    {
      "inputs": [
        {
          "internalType": "uint256",
          "name": "",
          "type": "uint256"
        }
      ],
      "name": "nftHolderAttributes",
      "outputs": [
        {
          "internalType": "uint256",
          "name": "boxIndex",
          "type": "uint256"
        },
        {
          "internalType": "string",
          "name": "frequence",
          "type": "string"
        },
        {
          "internalType": "string",
          "name": "mood",
          "type": "string"
        },
        {
          "internalType": "string",
          "name": "imageURI",
          "type": "string"
        }
      ],
      "stateMutability": "view",
      "type": "function"
    },
    {
      "inputs": [
        {
          "internalType": "address",
          "name": "",
          "type": "address"
        },
        {
          "internalType": "uint256",
          "name": "",
          "type": "uint256"
        }
      ],
      "name": "nftHolders",
      "outputs": [
        {
          "internalType": "uint256",
          "name": "",
          "type": "uint256"
        }
      ],
      "stateMutability": "view",
      "type": "function"
    },
    {
      "inputs": [
        {
          "internalType": "uint256",
          "name": "tokenId",
          "type": "uint256"
        }
      ],
      "name": "ownerOf",
      "outputs": [
        {
          "internalType": "address",
          "name": "",
          "type": "address"
        }
      ],
      "stateMutability": "view",
      "type": "function"
    },
    {
      "inputs": [
        {
          "internalType": "address",
          "name": "from",
          "type": "address"
        },
        {
          "internalType": "address",
          "name": "to",
          "type": "address"
        },
        {
          "internalType": "uint256",
          "name": "tokenId",
          "type": "uint256"
        }
      ],
      "name": "safeTransferFrom",
      "outputs": [],
      "stateMutability": "nonpayable",
      "type": "function"
    },
    {
      "inputs": [
        {
          "internalType": "address",
          "name": "from",
          "type": "address"
        },
        {
          "internalType": "address",
          "name": "to",
          "type": "address"
        },
        {
          "internalType": "uint256",
          "name": "tokenId",
          "type": "uint256"
        },
        {
          "internalType": "bytes",
          "name": "_data",
          "type": "bytes"
        }
      ],
      "name": "safeTransferFrom",
      "outputs": [],
      "stateMutability": "nonpayable",
      "type": "function"
    },
    {
      "inputs": [
        {
          "internalType": "address",
          "name": "operator",
          "type": "address"
        },
        {
          "internalType": "bool",
          "name": "approved",
          "type": "bool"
        }
      ],
      "name": "setApprovalForAll",
      "outputs": [],
      "stateMutability": "nonpayable",
      "type": "function"
    },
    {
      "inputs": [
        {
          "internalType": "bytes4",
          "name": "interfaceId",
          "type": "bytes4"
        }
      ],
      "name": "supportsInterface",
      "outputs": [
        {
          "internalType": "bool",
          "name": "",
          "type": "bool"
        }
      ],
      "stateMutability": "view",
      "type": "function"
    },
    {
      "inputs": [],
      "name": "symbol",
      "outputs": [
        {
          "internalType": "string",
          "name": "",
          "type": "string"
        }
      ],
      "stateMutability": "view",
      "type": "function"
    },
    {
      "inputs": [
        {
          "internalType": "uint256",
          "name": "index",
          "type": "uint256"
        }
      ],
      "name": "tokenByIndex",
      "outputs": [
        {
          "internalType": "uint256",
          "name": "",
          "type": "uint256"
        }
      ],
      "stateMutability": "view",
      "type": "function"
    },
    {
      "inputs": [
        {
          "internalType": "uint256",
          "name": "",
          "type": "uint256"
        }
      ],
      "name": "tokenIsAtIndex",
      "outputs": [
        {
          "internalType": "int256",
          "name": "",
          "type": "int256"
        }
      ],
      "stateMutability": "view",
      "type": "function"
    },
    {
      "inputs": [
        {
          "internalType": "address",
          "name": "owner",
          "type": "address"
        },
        {
          "internalType": "uint256",
          "name": "index",
          "type": "uint256"
        }
      ],
      "name": "tokenOfOwnerByIndex",
      "outputs": [
        {
          "internalType": "uint256",
          "name": "",
          "type": "uint256"
        }
      ],
      "stateMutability": "view",
      "type": "function"
    },
    {
      "inputs": [
        {
          "internalType": "uint256",
          "name": "_tokenId",
          "type": "uint256"
        }
      ],
      "name": "tokenURI",
      "outputs": [
        {
          "internalType": "string",
          "name": "",
          "type": "string"
        }
      ],
      "stateMutability": "view",
      "type": "function"
    },
    {
      "inputs": [],
      "name": "totalSupply",
      "outputs": [
        {
          "internalType": "uint256",
          "name": "",
          "type": "uint256"
        }
      ],
      "stateMutability": "view",
      "type": "function"
    },
    {
      "inputs": [
        {
          "internalType": "address",
          "name": "from",
          "type": "address"
        },
        {
          "internalType": "address",
          "name": "to",
          "type": "address"
        },
        {
          "internalType": "uint256",
          "name": "tokenId",
          "type": "uint256"
        }
      ],
      "name": "transferFrom",
      "outputs": [],
      "stateMutability": "nonpayable",
      "type": "function"
    },
    {
      "inputs": [
        {
          "internalType": "address",
          "name": "",
          "type": "address"
        },
        {
          "internalType": "uint256",
          "name": "",
          "type": "uint256"
        }
      ],
      "name": "userOwnedTokens",
      "outputs": [
        {
          "internalType": "uint256",
          "name": "",
          "type": "uint256"
        }
      ],
      "stateMutability": "view",
      "type": "function"
    }
  ],
  "bytecode": "0x60806040523480156200001157600080fd5b5060405162005cfd38038062005cfd8339818101604052810190620000379190620007bf565b6040518060400160405280600581526020017f426f7865730000000000000000000000000000000000000000000000000000008152506040518060400160405280600381526020017f424f5800000000000000000000000000000000000000000000000000000000008152508160009080519060200190620000bb9291906200060b565b508060019080519060200190620000d49291906200060b565b50505060005b8451811015620004fe57600b604051806080016040528083815260200186848151811062000131577f4e487b7100000000000000000000000000000000000000000000000000000000600052603260045260246000fd5b6020026020010151815260200185848151811062000178577f4e487b7100000000000000000000000000000000000000000000000000000000600052603260045260246000fd5b60200260200101518152602001848481518110620001bf577f4e487b7100000000000000000000000000000000000000000000000000000000600052603260045260246000fd5b602002602001015181525090806001815401808255809150506001900390600052602060002090600402016000909190919091506000820151816000015560208201518160010190805190602001906200021b9291906200060b565b5060408201518160020190805190602001906200023a9291906200060b565b506060820151816003019080519060200190620002599291906200060b565b5050506000600b828154811062000299577f4e487b7100000000000000000000000000000000000000000000000000000000600052603260045260246000fd5b906000526020600020906004020160405180608001604052908160008201548152602001600182018054620002ce9062000a88565b80601f0160208091040260200160405190810160405280929190818152602001828054620002fc9062000a88565b80156200034d5780601f1062000321576101008083540402835291602001916200034d565b820191906000526020600020905b8154815290600101906020018083116200032f57829003601f168201915b50505050508152602001600282018054620003689062000a88565b80601f0160208091040260200160405190810160405280929190818152602001828054620003969062000a88565b8015620003e75780601f10620003bb57610100808354040283529160200191620003e7565b820191906000526020600020905b815481529060010190602001808311620003c957829003601f168201915b50505050508152602001600382018054620004029062000a88565b80601f0160208091040260200160405190810160405280929190818152602001828054620004309062000a88565b8015620004815780601f10620004555761010080835404028352916020019162000481565b820191906000526020600020905b8154815290600101906020018083116200046357829003601f168201915b5050505050815250509050620004e66040518060400160405280601f81526020017f446f6e6520696e697469616c697a696e672025732025732c20696d67202573008152508260200151836040015184606001516200052060201b620021db1760201c565b50600181620004f69190620009eb565b9050620000da565b5062000516600a620005cc60201b6200227d1760201c565b5050505062000b5c565b620005c6848484846040516024016200053d9493929190620008d0565b6040516020818303038152906040527fde68f20a000000000000000000000000000000000000000000000000000000007bffffffffffffffffffffffffffffffffffffffffffffffffffffffff19166020820180517bffffffffffffffffffffffffffffffffffffffffffffffffffffffff8381831617835250505050620005e260201b60201c565b50505050565b6001816000016000828254019250508190555050565b60008151905060006a636f6e736f6c652e6c6f679050602083016000808483855afa5050505050565b828054620006199062000a88565b90600052602060002090601f0160209004810192826200063d576000855562000689565b82601f106200065857805160ff191683800117855562000689565b8280016001018555821562000689579182015b82811115620006885782518255916020019190600101906200066b565b5b5090506200069891906200069c565b5090565b5b80821115620006b75760008160009055506001016200069d565b5090565b6000620006d2620006cc846200096d565b62000939565b9050808382526020820190508260005b85811015620007165781518501620006fb888262000792565b845260208401935060208301925050600181019050620006e2565b5050509392505050565b60006200073762000731846200099c565b62000939565b9050828152602081018484840111156200075057600080fd5b6200075d84828562000a52565b509392505050565b600082601f8301126200077757600080fd5b815162000789848260208601620006bb565b91505092915050565b600082601f830112620007a457600080fd5b8151620007b684826020860162000720565b91505092915050565b60008060008060808587031215620007d657600080fd5b600085015167ffffffffffffffff811115620007f157600080fd5b620007ff8782880162000765565b945050602085015167ffffffffffffffff8111156200081d57600080fd5b6200082b8782880162000765565b935050604085015167ffffffffffffffff8111156200084957600080fd5b620008578782880162000765565b925050606085015167ffffffffffffffff8111156200087557600080fd5b620008838782880162000765565b91505092959194509250565b60006200089c82620009cf565b620008a88185620009da565b9350620008ba81856020860162000a52565b620008c58162000b4b565b840191505092915050565b60006080820190508181036000830152620008ec81876200088f565b905081810360208301526200090281866200088f565b905081810360408301526200091881856200088f565b905081810360608301526200092e81846200088f565b905095945050505050565b6000604051905081810181811067ffffffffffffffff8211171562000963576200096262000b1c565b5b8060405250919050565b600067ffffffffffffffff8211156200098b576200098a62000b1c565b5b602082029050602081019050919050565b600067ffffffffffffffff821115620009ba57620009b962000b1c565b5b601f19601f8301169050602081019050919050565b600081519050919050565b600082825260208201905092915050565b6000620009f88262000a48565b915062000a058362000a48565b9250827fffffffffffffffffffffffffffffffffffffffffffffffffffffffffffffffff0382111562000a3d5762000a3c62000abe565b5b828201905092915050565b6000819050919050565b60005b8381101562000a7257808201518184015260208101905062000a55565b8381111562000a82576000848401525b50505050565b6000600282049050600182168062000aa157607f821691505b6020821081141562000ab85762000ab762000aed565b5b50919050565b7f4e487b7100000000000000000000000000000000000000000000000000000000600052601160045260246000fd5b7f4e487b7100000000000000000000000000000000000000000000000000000000600052602260045260246000fd5b7f4e487b7100000000000000000000000000000000000000000000000000000000600052604160045260246000fd5b6000601f19601f8301169050919050565b6151918062000b6c6000396000f3fe608060405234801561001057600080fd5b50600436106101c45760003560e01c806363f30b47116100f9578063b88d4fde11610097578063c8cf27f411610071578063c8cf27f414610566578063cebf214114610584578063d004b036146105a2578063e985e9c5146105d2576101c4565b8063b88d4fde146104ea578063c2f8331914610506578063c87b56dd14610536576101c4565b806395d89b41116100d357806395d89b411461045f57806398da4c951461047d578063a1ac6d2e146104b0578063a22cb465146104ce576101c4565b806363f30b47146103cf57806370a08231146103ff578063775bb50e1461042f576101c4565b80631f0ec85c116101665780633500049611610140578063350004961461032357806342842e0e146103535780634f6ccce71461036f5780636352211e1461039f576101c4565b80631f0ec85c146102bb57806323b872dd146102d75780632f745c59146102f3576101c4565b8063095ea7b3116101a2578063095ea7b31461024757806314b924e21461026357806316b526b91461029357806318160ddd1461029d576101c4565b806301ffc9a7146101c957806306fdde03146101f9578063081812fc14610217575b600080fd5b6101e360048036038101906101de9190613ab4565b610602565b6040516101f091906147dc565b60405180910390f35b61020161067c565b60405161020e9190614812565b60405180910390f35b610231600480360381019061022c9190613b06565b61070e565b60405161023e91906146fa565b60405180910390f35b610261600480360381019061025c9190613a78565b610793565b005b61027d60048036038101906102789190613a78565b6108ab565b60405161028a9190614b58565b60405180910390f35b61029b6108dc565b005b6102a5610af8565b6040516102b29190614b58565b60405180910390f35b6102d560048036038101906102d09190613b06565b610b05565b005b6102f160048036038101906102ec9190613972565b610fd8565b005b61030d60048036038101906103089190613a78565b611038565b60405161031a9190614b58565b60405180910390f35b61033d60048036038101906103389190613b06565b6110dd565b60405161034a9190614b36565b60405180910390f35b61036d60048036038101906103689190613972565b6112ca565b005b61038960048036038101906103849190613b06565b6112ea565b6040516103969190614b58565b60405180910390f35b6103b960048036038101906103b49190613b06565b611381565b6040516103c691906146fa565b60405180910390f35b6103e960048036038101906103e4919061390d565b611433565b6040516103f691906147ba565b60405180910390f35b6104196004803603810190610414919061390d565b6114ca565b6040516104269190614b58565b60405180910390f35b61044960048036038101906104449190613a78565b611582565b6040516104569190614b58565b60405180910390f35b6104676115b3565b6040516104749190614812565b60405180910390f35b61049760048036038101906104929190613b06565b611645565b6040516104a79493929190614b73565b60405180910390f35b6104b861180d565b6040516104c591906147ba565b60405180910390f35b6104e860048036038101906104e39190613a3c565b6118a2565b005b61050460048036038101906104ff91906139c1565b6118b8565b005b610520600480360381019061051b9190613b06565b61191a565b60405161052d91906147f7565b60405180910390f35b610550600480360381019061054b9190613b06565b611932565b60405161055d9190614812565b60405180910390f35b61056e611b9d565b60405161057b9190614b36565b60405180910390f35b61058c611e2c565b6040516105999190614798565b60405180910390f35b6105bc60048036038101906105b7919061390d565b61204b565b6040516105c991906147ba565b60405180910390f35b6105ec60048036038101906105e79190613936565b612147565b6040516105f991906147dc565b60405180910390f35b60007f780e9d63000000000000000000000000000000000000000000000000000000007bffffffffffffffffffffffffffffffffffffffffffffffffffffffff1916827bffffffffffffffffffffffffffffffffffffffffffffffffffffffff19161480610675575061067482612293565b5b9050919050565b60606000805461068b90614ede565b80601f01602080910402602001604051908101604052809291908181526020018280546106b790614ede565b80156107045780601f106106d957610100808354040283529160200191610704565b820191906000526020600020905b8154815290600101906020018083116106e757829003601f168201915b5050505050905090565b600061071982612375565b610758576040517f08c379a000000000000000000000000000000000000000000000000000000000815260040161074f90614a96565b60405180910390fd5b6004600083815260200190815260200160002060009054906101000a900473ffffffffffffffffffffffffffffffffffffffff169050919050565b600061079e82611381565b90508073ffffffffffffffffffffffffffffffffffffffff168373ffffffffffffffffffffffffffffffffffffffff16141561080f576040517f08c379a000000000000000000000000000000000000000000000000000000000815260040161080690614ad6565b60405180910390fd5b8073ffffffffffffffffffffffffffffffffffffffff1661082e6123e1565b73ffffffffffffffffffffffffffffffffffffffff16148061085d575061085c816108576123e1565b612147565b5b61089c576040517f08c379a000000000000000000000000000000000000000000000000000000000815260040161089390614a16565b60405180910390fd5b6108a683836123e9565b505050565b600e60205281600052604060002081815481106108c757600080fd5b90600052602060002001600091509150505481565b6000600d60003373ffffffffffffffffffffffffffffffffffffffff1673ffffffffffffffffffffffffffffffffffffffff168152602001908152602001600020600081548110610956577f4e487b7100000000000000000000000000000000000000000000000000000000600052603260045260246000fd5b906000526020600020015490506000600c60008381526020019081526020016000209050610ab56040518060600160405280603a8152602001615122603a91398260010180546109a590614ede565b80601f01602080910402602001604051908101604052809291908181526020018280546109d190614ede565b8015610a1e5780601f106109f357610100808354040283529160200191610a1e565b820191906000526020600020905b815481529060010190602001808311610a0157829003601f168201915b5050505050836002018054610a3290614ede565b80601f0160208091040260200160405190810160405280929190818152602001828054610a5e90614ede565b8015610aab5780601f10610a8057610100808354040283529160200191610aab565b820191906000526020600020905b815481529060010190602001808311610a8e57829003601f168201915b50505050506124a2565b7fa7d7535db7e7b5b470e4e84cf675a047f7aac134ed2f08949efe4c380c0161fc8160010182600201604051610aec92919061491f565b60405180910390a15050565b6000600880549050905090565b600e60003373ffffffffffffffffffffffffffffffffffffffff1673ffffffffffffffffffffffffffffffffffffffff168152602001908152602001600020610b4e600a612541565b90806001815401808255809150506001900390600052602060002001600090919091909150556000600e60003373ffffffffffffffffffffffffffffffffffffffff1673ffffffffffffffffffffffffffffffffffffffff16815260200190815260200160002080549050905080600f6000610bca600a612541565b8152602001908152602001600020819055506000610be8600a612541565b9050610bf4338261254f565b6040518060800160405280848152602001600b8581548110610c3f577f4e487b7100000000000000000000000000000000000000000000000000000000600052603260045260246000fd5b90600052602060002090600402016001018054610c5b90614ede565b80601f0160208091040260200160405190810160405280929190818152602001828054610c8790614ede565b8015610cd45780601f10610ca957610100808354040283529160200191610cd4565b820191906000526020600020905b815481529060010190602001808311610cb757829003601f168201915b50505050508152602001600b8581548110610d18577f4e487b7100000000000000000000000000000000000000000000000000000000600052603260045260246000fd5b90600052602060002090600402016002018054610d3490614ede565b80601f0160208091040260200160405190810160405280929190818152602001828054610d6090614ede565b8015610dad5780601f10610d8257610100808354040283529160200191610dad565b820191906000526020600020905b815481529060010190602001808311610d9057829003601f168201915b50505050508152602001600b8581548110610df1577f4e487b7100000000000000000000000000000000000000000000000000000000600052603260045260246000fd5b90600052602060002090600402016003018054610e0d90614ede565b80601f0160208091040260200160405190810160405280929190818152602001828054610e3990614ede565b8015610e865780601f10610e5b57610100808354040283529160200191610e86565b820191906000526020600020905b815481529060010190602001808311610e6957829003601f168201915b5050505050815250600c6000838152602001908152602001600020600082015181600001556020820151816001019080519060200190610ec7929190613771565b506040820151816002019080519060200190610ee4929190613771565b506060820151816003019080519060200190610f01929190613771565b50905050610f286040518060600160405280602e81526020016150f4602e9139828561256d565b600d60003373ffffffffffffffffffffffffffffffffffffffff1673ffffffffffffffffffffffffffffffffffffffff168152602001908152602001600020819080600181540180825580915050600190039060005260206000200160009091909190915055610f98600a61227d565b7f75c6f6a1a201a7a14934962d50cb5d3af5dd75266af121eba66d337d2e985fea338285604051610fcb93929190614761565b60405180910390a1505050565b610fe9610fe36123e1565b8261260c565b611028576040517f08c379a000000000000000000000000000000000000000000000000000000000815260040161101f90614af6565b60405180910390fd5b6110338383836126ea565b505050565b6000611043836114ca565b8210611084576040517f08c379a000000000000000000000000000000000000000000000000000000000815260040161107b90614956565b60405180910390fd5b600660008473ffffffffffffffffffffffffffffffffffffffff1673ffffffffffffffffffffffffffffffffffffffff168152602001908152602001600020600083815260200190815260200160002054905092915050565b6110e56137f7565b600c60008381526020019081526020016000206040518060800160405290816000820154815260200160018201805461111d90614ede565b80601f016020809104026020016040519081016040528092919081815260200182805461114990614ede565b80156111965780601f1061116b57610100808354040283529160200191611196565b820191906000526020600020905b81548152906001019060200180831161117957829003601f168201915b505050505081526020016002820180546111af90614ede565b80601f01602080910402602001604051908101604052809291908181526020018280546111db90614ede565b80156112285780601f106111fd57610100808354040283529160200191611228565b820191906000526020600020905b81548152906001019060200180831161120b57829003601f168201915b5050505050815260200160038201805461124190614ede565b80601f016020809104026020016040519081016040528092919081815260200182805461126d90614ede565b80156112ba5780601f1061128f576101008083540402835291602001916112ba565b820191906000526020600020905b81548152906001019060200180831161129d57829003601f168201915b5050505050815250509050919050565b6112e5838383604051806020016040528060008152506118b8565b505050565b60006112f4610af8565b8210611335576040517f08c379a000000000000000000000000000000000000000000000000000000000815260040161132c90614b16565b60405180910390fd5b6008828154811061136f577f4e487b7100000000000000000000000000000000000000000000000000000000600052603260045260246000fd5b90600052602060002001549050919050565b6000806002600084815260200190815260200160002060009054906101000a900473ffffffffffffffffffffffffffffffffffffffff169050600073ffffffffffffffffffffffffffffffffffffffff168173ffffffffffffffffffffffffffffffffffffffff16141561142a576040517f08c379a000000000000000000000000000000000000000000000000000000000815260040161142190614a56565b60405180910390fd5b80915050919050565b6060600d60008373ffffffffffffffffffffffffffffffffffffffff1673ffffffffffffffffffffffffffffffffffffffff1681526020019081526020016000208054806020026020016040519081016040528092919081815260200182805480156114be57602002820191906000526020600020905b8154815260200190600101908083116114aa575b50505050509050919050565b60008073ffffffffffffffffffffffffffffffffffffffff168273ffffffffffffffffffffffffffffffffffffffff16141561153b576040517f08c379a000000000000000000000000000000000000000000000000000000000815260040161153290614a36565b60405180910390fd5b600360008373ffffffffffffffffffffffffffffffffffffffff1673ffffffffffffffffffffffffffffffffffffffff168152602001908152602001600020549050919050565b600d602052816000526040600020818154811061159e57600080fd5b90600052602060002001600091509150505481565b6060600180546115c290614ede565b80601f01602080910402602001604051908101604052809291908181526020018280546115ee90614ede565b801561163b5780601f106116105761010080835404028352916020019161163b565b820191906000526020600020905b81548152906001019060200180831161161e57829003601f168201915b5050505050905090565b600c60205280600052604060002060009150905080600001549080600101805461166e90614ede565b80601f016020809104026020016040519081016040528092919081815260200182805461169a90614ede565b80156116e75780601f106116bc576101008083540402835291602001916116e7565b820191906000526020600020905b8154815290600101906020018083116116ca57829003601f168201915b5050505050908060020180546116fc90614ede565b80601f016020809104026020016040519081016040528092919081815260200182805461172890614ede565b80156117755780601f1061174a57610100808354040283529160200191611775565b820191906000526020600020905b81548152906001019060200180831161175857829003601f168201915b50505050509080600301805461178a90614ede565b80601f01602080910402602001604051908101604052809291908181526020018280546117b690614ede565b80156118035780601f106117d857610100808354040283529160200191611803565b820191906000526020600020905b8154815290600101906020018083116117e657829003601f168201915b5050505050905084565b6060600d60003373ffffffffffffffffffffffffffffffffffffffff1673ffffffffffffffffffffffffffffffffffffffff16815260200190815260200160002080548060200260200160405190810160405280929190818152602001828054801561189857602002820191906000526020600020905b815481526020019060010190808311611884575b5050505050905090565b6118b46118ad6123e1565b8383612946565b5050565b6118c96118c36123e1565b8361260c565b611908576040517f08c379a00000000000000000000000000000000000000000000000000000000081526004016118ff90614af6565b60405180910390fd5b61191484848484612ab3565b50505050565b600f6020528060005260406000206000915090505481565b60606000600c60008481526020019081526020016000206040518060800160405290816000820154815260200160018201805461196e90614ede565b80601f016020809104026020016040519081016040528092919081815260200182805461199a90614ede565b80156119e75780601f106119bc576101008083540402835291602001916119e7565b820191906000526020600020905b8154815290600101906020018083116119ca57829003601f168201915b50505050508152602001600282018054611a0090614ede565b80601f0160208091040260200160405190810160405280929190818152602001828054611a2c90614ede565b8015611a795780601f10611a4e57610100808354040283529160200191611a79565b820191906000526020600020905b815481529060010190602001808311611a5c57829003601f168201915b50505050508152602001600382018054611a9290614ede565b80601f0160208091040260200160405190810160405280929190818152602001828054611abe90614ede565b8015611b0b5780601f10611ae057610100808354040283529160200191611b0b565b820191906000526020600020905b815481529060010190602001808311611aee57829003601f168201915b50505050508152505090506000816020015190506000826040015190506000611b6a8460200151611b3b88612b0f565b86606001518686604051602001611b5695949392919061464b565b604051602081830303815290604052612cbc565b9050600081604051602001611b7f91906146d8565b60405160208183030381529060405290508095505050505050919050565b611ba56137f7565b6000600d60003373ffffffffffffffffffffffffffffffffffffffff1673ffffffffffffffffffffffffffffffffffffffff168152602001908152602001600020600081548110611c1f577f4e487b7100000000000000000000000000000000000000000000000000000000600052603260045260246000fd5b906000526020600020015490506000811115611e1b57600c600082815260200190815260200160002060405180608001604052908160008201548152602001600182018054611c6d90614ede565b80601f0160208091040260200160405190810160405280929190818152602001828054611c9990614ede565b8015611ce65780601f10611cbb57610100808354040283529160200191611ce6565b820191906000526020600020905b815481529060010190602001808311611cc957829003601f168201915b50505050508152602001600282018054611cff90614ede565b80601f0160208091040260200160405190810160405280929190818152602001828054611d2b90614ede565b8015611d785780601f10611d4d57610100808354040283529160200191611d78565b820191906000526020600020905b815481529060010190602001808311611d5b57829003601f168201915b50505050508152602001600382018054611d9190614ede565b80601f0160208091040260200160405190810160405280929190818152602001828054611dbd90614ede565b8015611e0a5780601f10611ddf57610100808354040283529160200191611e0a565b820191906000526020600020905b815481529060010190602001808311611ded57829003601f168201915b505050505081525050915050611e29565b611e236137f7565b80925050505b90565b6060600b805480602002602001604051908101604052809291908181526020016000905b82821015612042578382906000526020600020906004020160405180608001604052908160008201548152602001600182018054611e8d90614ede565b80601f0160208091040260200160405190810160405280929190818152602001828054611eb990614ede565b8015611f065780601f10611edb57610100808354040283529160200191611f06565b820191906000526020600020905b815481529060010190602001808311611ee957829003601f168201915b50505050508152602001600282018054611f1f90614ede565b80601f0160208091040260200160405190810160405280929190818152602001828054611f4b90614ede565b8015611f985780601f10611f6d57610100808354040283529160200191611f98565b820191906000526020600020905b815481529060010190602001808311611f7b57829003601f168201915b50505050508152602001600382018054611fb190614ede565b80601f0160208091040260200160405190810160405280929190818152602001828054611fdd90614ede565b801561202a5780601f10611fff5761010080835404028352916020019161202a565b820191906000526020600020905b81548152906001019060200180831161200d57829003601f168201915b50505050508152505081526020019060010190611e50565b50505050905090565b60606000612058836114ca565b67ffffffffffffffff811115612097577f4e487b7100000000000000000000000000000000000000000000000000000000600052604160045260246000fd5b6040519080825280602002602001820160405280156120c55781602001602082028036833780820191505090505b50905060005b6120d4846114ca565b81101561213d576120e58482611038565b82828151811061211e577f4e487b7100000000000000000000000000000000000000000000000000000000600052603260045260246000fd5b602002602001018181525050808061213590614f10565b9150506120cb565b8192505050919050565b6000600560008473ffffffffffffffffffffffffffffffffffffffff1673ffffffffffffffffffffffffffffffffffffffff16815260200190815260200160002060008373ffffffffffffffffffffffffffffffffffffffff1673ffffffffffffffffffffffffffffffffffffffff16815260200190815260200160002060009054906101000a900460ff16905092915050565b612277848484846040516024016121f59493929190614880565b6040516020818303038152906040527fde68f20a000000000000000000000000000000000000000000000000000000007bffffffffffffffffffffffffffffffffffffffffffffffffffffffff19166020820180517bffffffffffffffffffffffffffffffffffffffffffffffffffffffff8381831617835250505050612e7a565b50505050565b6001816000016000828254019250508190555050565b60007f80ac58cd000000000000000000000000000000000000000000000000000000007bffffffffffffffffffffffffffffffffffffffffffffffffffffffff1916827bffffffffffffffffffffffffffffffffffffffffffffffffffffffff1916148061235e57507f5b5e139f000000000000000000000000000000000000000000000000000000007bffffffffffffffffffffffffffffffffffffffffffffffffffffffff1916827bffffffffffffffffffffffffffffffffffffffffffffffffffffffff1916145b8061236e575061236d82612ea3565b5b9050919050565b60008073ffffffffffffffffffffffffffffffffffffffff166002600084815260200190815260200160002060009054906101000a900473ffffffffffffffffffffffffffffffffffffffff1673ffffffffffffffffffffffffffffffffffffffff1614159050919050565b600033905090565b816004600083815260200190815260200160002060006101000a81548173ffffffffffffffffffffffffffffffffffffffff021916908373ffffffffffffffffffffffffffffffffffffffff160217905550808273ffffffffffffffffffffffffffffffffffffffff1661245c83611381565b73ffffffffffffffffffffffffffffffffffffffff167f8c5be1e5ebec7d5bd14f71427d1e84f3dd0314c0f7b2291e5b200ac8c7c3b92560405160405180910390a45050565b61253c8383836040516024016124ba93929190614834565b6040516020818303038152906040527f2ced7cef000000000000000000000000000000000000000000000000000000007bffffffffffffffffffffffffffffffffffffffffffffffffffffffff19166020820180517bffffffffffffffffffffffffffffffffffffffffffffffffffffffff8381831617835250505050612e7a565b505050565b600081600001549050919050565b612569828260405180602001604052806000815250612f0d565b5050565b612607838383604051602401612585939291906148e1565b6040516020818303038152906040527f969cdd03000000000000000000000000000000000000000000000000000000007bffffffffffffffffffffffffffffffffffffffffffffffffffffffff19166020820180517bffffffffffffffffffffffffffffffffffffffffffffffffffffffff8381831617835250505050612e7a565b505050565b600061261782612375565b612656576040517f08c379a000000000000000000000000000000000000000000000000000000000815260040161264d906149f6565b60405180910390fd5b600061266183611381565b90508073ffffffffffffffffffffffffffffffffffffffff168473ffffffffffffffffffffffffffffffffffffffff1614806126d057508373ffffffffffffffffffffffffffffffffffffffff166126b88461070e565b73ffffffffffffffffffffffffffffffffffffffff16145b806126e157506126e08185612147565b5b91505092915050565b8273ffffffffffffffffffffffffffffffffffffffff1661270a82611381565b73ffffffffffffffffffffffffffffffffffffffff1614612760576040517f08c379a000000000000000000000000000000000000000000000000000000000815260040161275790614ab6565b60405180910390fd5b600073ffffffffffffffffffffffffffffffffffffffff168273ffffffffffffffffffffffffffffffffffffffff1614156127d0576040517f08c379a00000000000000000000000000000000000000000000000000000000081526004016127c7906149b6565b60405180910390fd5b6127db838383612f68565b6127e66000826123e9565b6001600360008573ffffffffffffffffffffffffffffffffffffffff1673ffffffffffffffffffffffffffffffffffffffff16815260200190815260200160002060008282546128369190614dea565b925050819055506001600360008473ffffffffffffffffffffffffffffffffffffffff1673ffffffffffffffffffffffffffffffffffffffff168152602001908152602001600020600082825461288d9190614d09565b92505081905550816002600083815260200190815260200160002060006101000a81548173ffffffffffffffffffffffffffffffffffffffff021916908373ffffffffffffffffffffffffffffffffffffffff160217905550808273ffffffffffffffffffffffffffffffffffffffff168473ffffffffffffffffffffffffffffffffffffffff167fddf252ad1be2c89b69c2b068fc378daa952ba7f163c4a11628f55a4df523b3ef60405160405180910390a4505050565b8173ffffffffffffffffffffffffffffffffffffffff168373ffffffffffffffffffffffffffffffffffffffff1614156129b5576040517f08c379a00000000000000000000000000000000000000000000000000000000081526004016129ac906149d6565b60405180910390fd5b80600560008573ffffffffffffffffffffffffffffffffffffffff1673ffffffffffffffffffffffffffffffffffffffff16815260200190815260200160002060008473ffffffffffffffffffffffffffffffffffffffff1673ffffffffffffffffffffffffffffffffffffffff16815260200190815260200160002060006101000a81548160ff0219169083151502179055508173ffffffffffffffffffffffffffffffffffffffff168373ffffffffffffffffffffffffffffffffffffffff167f17307eab39ab6107e8899845ad3d59bd9653f200f220920489ca2b5937696c3183604051612aa691906147dc565b60405180910390a3505050565b612abe8484846126ea565b612aca8484848461307c565b612b09576040517f08c379a0000000000000000000000000000000000000000000000000000000008152600401612b0090614976565b60405180910390fd5b50505050565b60606000821415612b57576040518060400160405280600181526020017f30000000000000000000000000000000000000000000000000000000000000008152509050612cb7565b600082905060005b60008214612b89578080612b7290614f10565b915050600a82612b829190614d5f565b9150612b5f565b60008167ffffffffffffffff811115612bcb577f4e487b7100000000000000000000000000000000000000000000000000000000600052604160045260246000fd5b6040519080825280601f01601f191660200182016040528015612bfd5781602001600182028036833780820191505090505b5090505b60008514612cb057600182612c169190614dea565b9150600a85612c259190614f59565b6030612c319190614d09565b60f81b818381518110612c6d577f4e487b7100000000000000000000000000000000000000000000000000000000600052603260045260246000fd5b60200101907effffffffffffffffffffffffffffffffffffffffffffffffffffffffffffff1916908160001a905350600a85612ca99190614d5f565b9450612c01565b8093505050505b919050565b60606000825190506000811415612ce55760405180602001604052806000815250915050612e75565b60006003600283612cf69190614d09565b612d009190614d5f565b6004612d0c9190614d90565b90506000602082612d1d9190614d09565b67ffffffffffffffff811115612d5c577f4e487b7100000000000000000000000000000000000000000000000000000000600052604160045260246000fd5b6040519080825280601f01601f191660200182016040528015612d8e5781602001600182028036833780820191505090505b50905060006040518060600160405280604081526020016150b4604091399050600181016020830160005b86811015612e325760038101905062ffffff818a015116603f8160121c168401518060081b905060ff603f83600c1c1686015116810190508060081b905060ff603f8360061c1686015116810190508060081b905060ff603f831686015116810190508060e01b90508084526004840193505050612db9565b506003860660018114612e4c5760028114612e5c57612e67565b613d3d60f01b6002830352612e67565b603d60f81b60018303525b508484525050819450505050505b919050565b60008151905060006a636f6e736f6c652e6c6f679050602083016000808483855afa5050505050565b60007f01ffc9a7000000000000000000000000000000000000000000000000000000007bffffffffffffffffffffffffffffffffffffffffffffffffffffffff1916827bffffffffffffffffffffffffffffffffffffffffffffffffffffffff1916149050919050565b612f178383613213565b612f24600084848461307c565b612f63576040517f08c379a0000000000000000000000000000000000000000000000000000000008152600401612f5a90614976565b60405180910390fd5b505050565b612f738383836133e1565b600073ffffffffffffffffffffffffffffffffffffffff168373ffffffffffffffffffffffffffffffffffffffff161415612fb657612fb1816133e6565b612ff5565b8173ffffffffffffffffffffffffffffffffffffffff168373ffffffffffffffffffffffffffffffffffffffff1614612ff457612ff3838261342f565b5b5b600073ffffffffffffffffffffffffffffffffffffffff168273ffffffffffffffffffffffffffffffffffffffff161415613038576130338161359c565b613077565b8273ffffffffffffffffffffffffffffffffffffffff168273ffffffffffffffffffffffffffffffffffffffff16146130765761307582826136df565b5b5b505050565b600061309d8473ffffffffffffffffffffffffffffffffffffffff1661375e565b15613206578373ffffffffffffffffffffffffffffffffffffffff1663150b7a026130c66123e1565b8786866040518563ffffffff1660e01b81526004016130e89493929190614715565b602060405180830381600087803b15801561310257600080fd5b505af192505050801561313357506040513d601f19601f820116820180604052508101906131309190613add565b60015b6131b6573d8060008114613163576040519150601f19603f3d011682016040523d82523d6000602084013e613168565b606091505b506000815114156131ae576040517f08c379a00000000000000000000000000000000000000000000000000000000081526004016131a590614976565b60405180910390fd5b805181602001fd5b63150b7a0260e01b7bffffffffffffffffffffffffffffffffffffffffffffffffffffffff1916817bffffffffffffffffffffffffffffffffffffffffffffffffffffffff19161491505061320b565b600190505b949350505050565b600073ffffffffffffffffffffffffffffffffffffffff168273ffffffffffffffffffffffffffffffffffffffff161415613283576040517f08c379a000000000000000000000000000000000000000000000000000000000815260040161327a90614a76565b60405180910390fd5b61328c81612375565b156132cc576040517f08c379a00000000000000000000000000000000000000000000000000000000081526004016132c390614996565b60405180910390fd5b6132d860008383612f68565b6001600360008473ffffffffffffffffffffffffffffffffffffffff1673ffffffffffffffffffffffffffffffffffffffff16815260200190815260200160002060008282546133289190614d09565b92505081905550816002600083815260200190815260200160002060006101000a81548173ffffffffffffffffffffffffffffffffffffffff021916908373ffffffffffffffffffffffffffffffffffffffff160217905550808273ffffffffffffffffffffffffffffffffffffffff16600073ffffffffffffffffffffffffffffffffffffffff167fddf252ad1be2c89b69c2b068fc378daa952ba7f163c4a11628f55a4df523b3ef60405160405180910390a45050565b505050565b6008805490506009600083815260200190815260200160002081905550600881908060018154018082558091505060019003906000526020600020016000909190919091505550565b6000600161343c846114ca565b6134469190614dea565b905060006007600084815260200190815260200160002054905081811461352b576000600660008673ffffffffffffffffffffffffffffffffffffffff1673ffffffffffffffffffffffffffffffffffffffff168152602001908152602001600020600084815260200190815260200160002054905080600660008773ffffffffffffffffffffffffffffffffffffffff1673ffffffffffffffffffffffffffffffffffffffff168152602001908152602001600020600084815260200190815260200160002081905550816007600083815260200190815260200160002081905550505b6007600084815260200190815260200160002060009055600660008573ffffffffffffffffffffffffffffffffffffffff1673ffffffffffffffffffffffffffffffffffffffff16815260200190815260200160002060008381526020019081526020016000206000905550505050565b600060016008805490506135b09190614dea565b9050600060096000848152602001908152602001600020549050600060088381548110613606577f4e487b7100000000000000000000000000000000000000000000000000000000600052603260045260246000fd5b90600052602060002001549050806008838154811061364e577f4e487b7100000000000000000000000000000000000000000000000000000000600052603260045260246000fd5b9060005260206000200181905550816009600083815260200190815260200160002081905550600960008581526020019081526020016000206000905560088054806136c3577f4e487b7100000000000000000000000000000000000000000000000000000000600052603160045260246000fd5b6001900381819060005260206000200160009055905550505050565b60006136ea836114ca565b905081600660008573ffffffffffffffffffffffffffffffffffffffff1673ffffffffffffffffffffffffffffffffffffffff168152602001908152602001600020600083815260200190815260200160002081905550806007600084815260200190815260200160002081905550505050565b600080823b905060008111915050919050565b82805461377d90614ede565b90600052602060002090601f01602090048101928261379f57600085556137e6565b82601f106137b857805160ff19168380011785556137e6565b828001600101855582156137e6579182015b828111156137e55782518255916020019190600101906137ca565b5b5090506137f3919061381f565b5090565b6040518060800160405280600081526020016060815260200160608152602001606081525090565b5b80821115613838576000816000905550600101613820565b5090565b600061384f61384a84614bfe565b614bcd565b90508281526020810184848401111561386757600080fd5b613872848285614e9c565b509392505050565b60008135905061388981615057565b92915050565b60008135905061389e8161506e565b92915050565b6000813590506138b381615085565b92915050565b6000815190506138c881615085565b92915050565b600082601f8301126138df57600080fd5b81356138ef84826020860161383c565b91505092915050565b6000813590506139078161509c565b92915050565b60006020828403121561391f57600080fd5b600061392d8482850161387a565b91505092915050565b6000806040838503121561394957600080fd5b60006139578582860161387a565b92505060206139688582860161387a565b9150509250929050565b60008060006060848603121561398757600080fd5b60006139958682870161387a565b93505060206139a68682870161387a565b92505060406139b7868287016138f8565b9150509250925092565b600080600080608085870312156139d757600080fd5b60006139e58782880161387a565b94505060206139f68782880161387a565b9350506040613a07878288016138f8565b925050606085013567ffffffffffffffff811115613a2457600080fd5b613a30878288016138ce565b91505092959194509250565b60008060408385031215613a4f57600080fd5b6000613a5d8582860161387a565b9250506020613a6e8582860161388f565b9150509250929050565b60008060408385031215613a8b57600080fd5b6000613a998582860161387a565b9250506020613aaa858286016138f8565b9150509250929050565b600060208284031215613ac657600080fd5b6000613ad4848285016138a4565b91505092915050565b600060208284031215613aef57600080fd5b6000613afd848285016138b9565b91505092915050565b600060208284031215613b1857600080fd5b6000613b26848285016138f8565b91505092915050565b6000613b3b838361454b565b905092915050565b6000613b4f838361462d565b60208301905092915050565b613b6481614e1e565b82525050565b6000613b7582614c63565b613b7f8185614ca9565b935083602082028501613b9185614c2e565b8060005b85811015613bcd5784840389528151613bae8582613b2f565b9450613bb983614c8f565b925060208a01995050600181019050613b95565b50829750879550505050505092915050565b6000613bea82614c6e565b613bf48185614cba565b9350613bff83614c3e565b8060005b83811015613c30578151613c178882613b43565b9750613c2283614c9c565b925050600181019050613c03565b5085935050505092915050565b613c4681614e30565b82525050565b6000613c5782614c79565b613c618185614ccb565b9350613c71818560208601614eab565b613c7a81615046565b840191505092915050565b613c8e81614e68565b82525050565b6000613c9f82614c84565b613ca98185614cdc565b9350613cb9818560208601614eab565b613cc281615046565b840191505092915050565b6000613cd882614c84565b613ce28185614ced565b9350613cf2818560208601614eab565b613cfb81615046565b840191505092915050565b6000613d1182614c84565b613d1b8185614cfe565b9350613d2b818560208601614eab565b80840191505092915050565b60008154613d4481614ede565b613d4e8186614ced565b94506001821660008114613d695760018114613d7b57613dae565b60ff1983168652602086019350613dae565b613d8485614c4e565b60005b83811015613da657815481890152600182019150602081019050613d87565b808801955050505b50505092915050565b6000613dc4600b83614cfe565b91507f202d2d204e465420233a200000000000000000000000000000000000000000006000830152600b82019050919050565b6000613e04602b83614ced565b91507f455243373231456e756d657261626c653a206f776e657220696e646578206f7560008301527f74206f6620626f756e64730000000000000000000000000000000000000000006020830152604082019050919050565b6000613e6a603283614ced565b91507f4552433732313a207472616e7366657220746f206e6f6e20455243373231526560008301527f63656976657220696d706c656d656e74657200000000000000000000000000006020830152604082019050919050565b6000613ed0601c83614ced565b91507f4552433732313a20746f6b656e20616c7265616479206d696e746564000000006000830152602082019050919050565b6000613f10603883614cfe565b91507f222c20226465736372697074696f6e223a20224120736f756e6473797374656d60008301527f20626f78222c2022696d616765223a2022697066733a2f2f00000000000000006020830152603882019050919050565b6000613f76602483614ced565b91507f4552433732313a207472616e7366657220746f20746865207a65726f2061646460008301527f72657373000000000000000000000000000000000000000000000000000000006020830152604082019050919050565b6000613fdc601983614ced565b91507f4552433732313a20617070726f766520746f2063616c6c6572000000000000006000830152602082019050919050565b600061401c602c83614ced565b91507f4552433732313a206f70657261746f7220717565727920666f72206e6f6e657860008301527f697374656e7420746f6b656e00000000000000000000000000000000000000006020830152604082019050919050565b6000614082600f83614cfe565b91507f7b226672657175656e6365223a202200000000000000000000000000000000006000830152600f82019050919050565b60006140c2603883614ced565b91507f4552433732313a20617070726f76652063616c6c6572206973206e6f74206f7760008301527f6e6572206e6f7220617070726f76656420666f7220616c6c00000000000000006020830152604082019050919050565b6000614128602a83614ced565b91507f4552433732313a2062616c616e636520717565727920666f7220746865207a6560008301527f726f2061646472657373000000000000000000000000000000000000000000006020830152604082019050919050565b600061418e602983614ced565b91507f4552433732313a206f776e657220717565727920666f72206e6f6e657869737460008301527f656e7420746f6b656e00000000000000000000000000000000000000000000006020830152604082019050919050565b60006141f4600983614cfe565b91507f2c20226d6f6f64223a00000000000000000000000000000000000000000000006000830152600982019050919050565b6000614234600383614cfe565b91507f205d7d00000000000000000000000000000000000000000000000000000000006000830152600382019050919050565b6000614274602083614ced565b91507f4552433732313a206d696e7420746f20746865207a65726f20616464726573736000830152602082019050919050565b60006142b4602c83614ced565b91507f4552433732313a20617070726f76656420717565727920666f72206e6f6e657860008301527f697374656e7420746f6b656e00000000000000000000000000000000000000006020830152604082019050919050565b600061431a602983614ced565b91507f4552433732313a207472616e73666572206f6620746f6b656e2074686174206960008301527f73206e6f74206f776e00000000000000000000000000000000000000000000006020830152604082019050919050565b6000614380602183614ced565b91507f4552433732313a20617070726f76616c20746f2063757272656e74206f776e6560008301527f72000000000000000000000000000000000000000000000000000000000000006020830152604082019050919050565b60006143e6601d83614cfe565b91507f646174613a6170706c69636174696f6e2f6a736f6e3b6261736536342c0000006000830152601d82019050919050565b6000614426602283614cfe565b91507f222c202261747472696275746573223a205b207b20226672657175656e63652260008301527f3a200000000000000000000000000000000000000000000000000000000000006020830152602282019050919050565b600061448c603183614ced565b91507f4552433732313a207472616e736665722063616c6c6572206973206e6f74206f60008301527f776e6572206e6f7220617070726f7665640000000000000000000000000000006020830152604082019050919050565b60006144f2602c83614ced565b91507f455243373231456e756d657261626c653a20676c6f62616c20696e646578206f60008301527f7574206f6620626f756e647300000000000000000000000000000000000000006020830152604082019050919050565b6000608083016000830151614563600086018261462d565b506020830151848203602086015261457b8282613c94565b915050604083015184820360408601526145958282613c94565b915050606083015184820360608601526145af8282613c94565b9150508091505092915050565b60006080830160008301516145d4600086018261462d565b50602083015184820360208601526145ec8282613c94565b915050604083015184820360408601526146068282613c94565b915050606083015184820360608601526146208282613c94565b9150508091505092915050565b61463681614e92565b82525050565b61464581614e92565b82525050565b600061465682614075565b91506146628288613d06565b915061466d82613db7565b91506146798287613d06565b915061468482613f03565b91506146908286613d06565b915061469b82614419565b91506146a78285613d06565b91506146b2826141e7565b91506146be8284613d06565b91506146c982614227565b91508190509695505050505050565b60006146e3826143d9565b91506146ef8284613d06565b915081905092915050565b600060208201905061470f6000830184613b5b565b92915050565b600060808201905061472a6000830187613b5b565b6147376020830186613b5b565b614744604083018561463c565b81810360608301526147568184613c4c565b905095945050505050565b60006060820190506147766000830186613b5b565b614783602083018561463c565b614790604083018461463c565b949350505050565b600060208201905081810360008301526147b28184613b6a565b905092915050565b600060208201905081810360008301526147d48184613bdf565b905092915050565b60006020820190506147f16000830184613c3d565b92915050565b600060208201905061480c6000830184613c85565b92915050565b6000602082019050818103600083015261482c8184613ccd565b905092915050565b6000606082019050818103600083015261484e8186613ccd565b905081810360208301526148628185613ccd565b905081810360408301526148768184613ccd565b9050949350505050565b6000608082019050818103600083015261489a8187613ccd565b905081810360208301526148ae8186613ccd565b905081810360408301526148c28185613ccd565b905081810360608301526148d68184613ccd565b905095945050505050565b600060608201905081810360008301526148fb8186613ccd565b905061490a602083018561463c565b614917604083018461463c565b949350505050565b600060408201905081810360008301526149398185613d37565b9050818103602083015261494d8184613d37565b90509392505050565b6000602082019050818103600083015261496f81613df7565b9050919050565b6000602082019050818103600083015261498f81613e5d565b9050919050565b600060208201905081810360008301526149af81613ec3565b9050919050565b600060208201905081810360008301526149cf81613f69565b9050919050565b600060208201905081810360008301526149ef81613fcf565b9050919050565b60006020820190508181036000830152614a0f8161400f565b9050919050565b60006020820190508181036000830152614a2f816140b5565b9050919050565b60006020820190508181036000830152614a4f8161411b565b9050919050565b60006020820190508181036000830152614a6f81614181565b9050919050565b60006020820190508181036000830152614a8f81614267565b9050919050565b60006020820190508181036000830152614aaf816142a7565b9050919050565b60006020820190508181036000830152614acf8161430d565b9050919050565b60006020820190508181036000830152614aef81614373565b9050919050565b60006020820190508181036000830152614b0f8161447f565b9050919050565b60006020820190508181036000830152614b2f816144e5565b9050919050565b60006020820190508181036000830152614b5081846145bc565b905092915050565b6000602082019050614b6d600083018461463c565b92915050565b6000608082019050614b88600083018761463c565b8181036020830152614b9a8186613ccd565b90508181036040830152614bae8185613ccd565b90508181036060830152614bc28184613ccd565b905095945050505050565b6000604051905081810181811067ffffffffffffffff82111715614bf457614bf3615017565b5b8060405250919050565b600067ffffffffffffffff821115614c1957614c18615017565b5b601f19601f8301169050602081019050919050565b6000819050602082019050919050565b6000819050602082019050919050565b60008190508160005260206000209050919050565b600081519050919050565b600081519050919050565b600081519050919050565b600081519050919050565b6000602082019050919050565b6000602082019050919050565b600082825260208201905092915050565b600082825260208201905092915050565b600082825260208201905092915050565b600082825260208201905092915050565b600082825260208201905092915050565b600081905092915050565b6000614d1482614e92565b9150614d1f83614e92565b9250827fffffffffffffffffffffffffffffffffffffffffffffffffffffffffffffffff03821115614d5457614d53614f8a565b5b828201905092915050565b6000614d6a82614e92565b9150614d7583614e92565b925082614d8557614d84614fb9565b5b828204905092915050565b6000614d9b82614e92565b9150614da683614e92565b9250817fffffffffffffffffffffffffffffffffffffffffffffffffffffffffffffffff0483118215151615614ddf57614dde614f8a565b5b828202905092915050565b6000614df582614e92565b9150614e0083614e92565b925082821015614e1357614e12614f8a565b5b828203905092915050565b6000614e2982614e72565b9050919050565b60008115159050919050565b60007fffffffff0000000000000000000000000000000000000000000000000000000082169050919050565b6000819050919050565b600073ffffffffffffffffffffffffffffffffffffffff82169050919050565b6000819050919050565b82818337600083830152505050565b60005b83811015614ec9578082015181840152602081019050614eae565b83811115614ed8576000848401525b50505050565b60006002820490506001821680614ef657607f821691505b60208210811415614f0a57614f09614fe8565b5b50919050565b6000614f1b82614e92565b91507fffffffffffffffffffffffffffffffffffffffffffffffffffffffffffffffff821415614f4e57614f4d614f8a565b5b600182019050919050565b6000614f6482614e92565b9150614f6f83614e92565b925082614f7f57614f7e614fb9565b5b828206905092915050565b7f4e487b7100000000000000000000000000000000000000000000000000000000600052601160045260246000fd5b7f4e487b7100000000000000000000000000000000000000000000000000000000600052601260045260246000fd5b7f4e487b7100000000000000000000000000000000000000000000000000000000600052602260045260246000fd5b7f4e487b7100000000000000000000000000000000000000000000000000000000600052604160045260246000fd5b6000601f19601f8301169050919050565b61506081614e1e565b811461506b57600080fd5b50565b61507781614e30565b811461508257600080fd5b50565b61508e81614e3c565b811461509957600080fd5b50565b6150a581614e92565b81146150b057600080fd5b5056fe4142434445464748494a4b4c4d4e4f505152535455565758595a6162636465666768696a6b6c6d6e6f707172737475767778797a303132333435363738392b2f4d696e746564204e465420772f20746f6b656e496420257320616e6420636861726163746572496e6465782025730a506c6179657220772f20686f7374696e6720612070617274792e206672657175656e636520697320257320616e64206d6f6f64206973202573a2646970667358221220c99e14f3856cbb66e6da5466c9c9ed85bb300ef4bdfab136ea56c8cc27631f7864736f6c63430008000033",
  "linkReferences": {},
  "deployedLinkReferences": {}
}