{
  "_format": "hh-sol-artifact-1",
  "contractName": "MyEpicGame",
  "sourceName": "contracts/MyEpicGame.sol",
  "abi": [
    {
      "inputs": [
        {
          "internalType": "string[]",
          "name": "boxNames",
          "type": "string[]"
        },
        {
          "internalType": "string[]",
          "name": "boxFrequences",
          "type": "string[]"
        },
        {
          "internalType": "string[]",
          "name": "boxMoods",
          "type": "string[]"
        },
        {
          "internalType": "string[]",
          "name": "boxImageURIs",
          "type": "string[]"
        }
      ],
      "stateMutability": "nonpayable",
      "type": "constructor"
    },
    {
      "anonymous": false,
      "inputs": [
        {
          "indexed": true,
          "internalType": "address",
          "name": "owner",
          "type": "address"
        },
        {
          "indexed": true,
          "internalType": "address",
          "name": "approved",
          "type": "address"
        },
        {
          "indexed": true,
          "internalType": "uint256",
          "name": "tokenId",
          "type": "uint256"
        }
      ],
      "name": "Approval",
      "type": "event"
    },
    {
      "anonymous": false,
      "inputs": [
        {
          "indexed": true,
          "internalType": "address",
          "name": "owner",
          "type": "address"
        },
        {
          "indexed": true,
          "internalType": "address",
          "name": "operator",
          "type": "address"
        },
        {
          "indexed": false,
          "internalType": "bool",
          "name": "approved",
          "type": "bool"
        }
      ],
      "name": "ApprovalForAll",
      "type": "event"
    },
    {
      "anonymous": false,
      "inputs": [
        {
          "indexed": false,
          "internalType": "address",
          "name": "sender",
          "type": "address"
        },
        {
          "indexed": false,
          "internalType": "uint256",
          "name": "tokenId",
          "type": "uint256"
        },
        {
          "indexed": false,
          "internalType": "uint256",
          "name": "boxIndex",
          "type": "uint256"
        }
      ],
      "name": "BoxNFTMinted",
      "type": "event"
    },
    {
      "anonymous": false,
      "inputs": [
        {
          "indexed": false,
          "internalType": "uint256",
          "name": "timestamp",
          "type": "uint256"
        },
        {
          "indexed": false,
          "internalType": "bool",
          "name": "cooldownRespected",
          "type": "bool"
        }
      ],
      "name": "PartyComplete",
      "type": "event"
    },
    {
      "anonymous": false,
      "inputs": [
        {
          "indexed": true,
          "internalType": "address",
          "name": "from",
          "type": "address"
        },
        {
          "indexed": true,
          "internalType": "address",
          "name": "to",
          "type": "address"
        },
        {
          "indexed": true,
          "internalType": "uint256",
          "name": "tokenId",
          "type": "uint256"
        }
      ],
      "name": "Transfer",
      "type": "event"
    },
    {
      "inputs": [
        {
          "internalType": "address",
          "name": "to",
          "type": "address"
        },
        {
          "internalType": "uint256",
          "name": "tokenId",
          "type": "uint256"
        }
      ],
      "name": "approve",
      "outputs": [],
      "stateMutability": "nonpayable",
      "type": "function"
    },
    {
      "inputs": [
        {
          "internalType": "address",
          "name": "owner",
          "type": "address"
        }
      ],
      "name": "balanceOf",
      "outputs": [
        {
          "internalType": "uint256",
          "name": "",
          "type": "uint256"
        }
      ],
      "stateMutability": "view",
      "type": "function"
    },
    {
      "inputs": [],
      "name": "checkIfUserHasNFT",
      "outputs": [
        {
          "components": [
            {
              "internalType": "uint256",
              "name": "boxIndex",
              "type": "uint256"
            },
            {
              "internalType": "string",
              "name": "frequence",
              "type": "string"
            },
            {
              "internalType": "string",
              "name": "mood",
              "type": "string"
            },
            {
              "internalType": "string",
              "name": "imageURI",
              "type": "string"
            }
          ],
          "internalType": "struct MyEpicGame.BoxAttributes",
          "name": "",
          "type": "tuple"
        }
      ],
      "stateMutability": "view",
      "type": "function"
    },
    {
      "inputs": [],
      "name": "getAllDefaultBoxes",
      "outputs": [
        {
          "components": [
            {
              "internalType": "uint256",
              "name": "boxIndex",
              "type": "uint256"
            },
            {
              "internalType": "string",
              "name": "frequence",
              "type": "string"
            },
            {
              "internalType": "string",
              "name": "mood",
              "type": "string"
            },
            {
              "internalType": "string",
              "name": "imageURI",
              "type": "string"
            }
          ],
          "internalType": "struct MyEpicGame.BoxAttributes[]",
          "name": "",
          "type": "tuple[]"
        }
      ],
      "stateMutability": "view",
      "type": "function"
    },
    {
      "inputs": [
        {
          "internalType": "address",
          "name": "account",
          "type": "address"
        }
      ],
      "name": "getAllOwnedBoxes",
      "outputs": [
        {
          "internalType": "uint256[]",
          "name": "",
          "type": "uint256[]"
        }
      ],
      "stateMutability": "view",
      "type": "function"
    },
    {
      "inputs": [
        {
          "internalType": "uint256",
          "name": "tokenId",
          "type": "uint256"
        }
      ],
      "name": "getApproved",
      "outputs": [
        {
          "internalType": "address",
          "name": "",
          "type": "address"
        }
      ],
      "stateMutability": "view",
      "type": "function"
    },
    {
      "inputs": [
        {
          "internalType": "uint256",
          "name": "tokenId",
          "type": "uint256"
        }
      ],
      "name": "getNftHolderAttributes",
      "outputs": [
        {
          "components": [
            {
              "internalType": "uint256",
              "name": "boxIndex",
              "type": "uint256"
            },
            {
              "internalType": "string",
              "name": "frequence",
              "type": "string"
            },
            {
              "internalType": "string",
              "name": "mood",
              "type": "string"
            },
            {
              "internalType": "string",
              "name": "imageURI",
              "type": "string"
            }
          ],
          "internalType": "struct MyEpicGame.BoxAttributes",
          "name": "",
          "type": "tuple"
        }
      ],
      "stateMutability": "view",
      "type": "function"
    },
    {
      "inputs": [],
      "name": "getNftHolders",
      "outputs": [
        {
          "internalType": "uint256[]",
          "name": "",
          "type": "uint256[]"
        }
      ],
      "stateMutability": "view",
      "type": "function"
    },
    {
      "inputs": [
        {
          "internalType": "address",
          "name": "_owner",
          "type": "address"
        }
      ],
      "name": "getTokenIds",
      "outputs": [
        {
          "internalType": "uint256[]",
          "name": "",
          "type": "uint256[]"
        }
      ],
      "stateMutability": "view",
      "type": "function"
    },
    {
      "inputs": [
        {
          "internalType": "uint256",
          "name": "_probatomint",
          "type": "uint256"
        }
      ],
      "name": "hostAParty",
      "outputs": [],
      "stateMutability": "nonpayable",
      "type": "function"
    },
    {
      "inputs": [
        {
          "internalType": "address",
          "name": "owner",
          "type": "address"
        },
        {
          "internalType": "address",
          "name": "operator",
          "type": "address"
        }
      ],
      "name": "isApprovedForAll",
      "outputs": [
        {
          "internalType": "bool",
          "name": "",
          "type": "bool"
        }
      ],
      "stateMutability": "view",
      "type": "function"
    },
    {
      "inputs": [
        {
          "internalType": "address",
          "name": "",
          "type": "address"
        }
      ],
      "name": "lastHostedAt",
      "outputs": [
        {
          "internalType": "uint256",
          "name": "",
          "type": "uint256"
        }
      ],
      "stateMutability": "view",
      "type": "function"
    },
    {
      "inputs": [],
      "name": "name",
      "outputs": [
        {
          "internalType": "string",
          "name": "",
          "type": "string"
        }
      ],
      "stateMutability": "view",
      "type": "function"
    },
    {
      "inputs": [
        {
          "internalType": "uint256",
          "name": "",
          "type": "uint256"
        }
      ],
      "name": "nftHolderAttributes",
      "outputs": [
        {
          "internalType": "uint256",
          "name": "boxIndex",
          "type": "uint256"
        },
        {
          "internalType": "string",
          "name": "frequence",
          "type": "string"
        },
        {
          "internalType": "string",
          "name": "mood",
          "type": "string"
        },
        {
          "internalType": "string",
          "name": "imageURI",
          "type": "string"
        }
      ],
      "stateMutability": "view",
      "type": "function"
    },
    {
      "inputs": [
        {
          "internalType": "address",
          "name": "",
          "type": "address"
        },
        {
          "internalType": "uint256",
          "name": "",
          "type": "uint256"
        }
      ],
      "name": "nftHolders",
      "outputs": [
        {
          "internalType": "uint256",
          "name": "",
          "type": "uint256"
        }
      ],
      "stateMutability": "view",
      "type": "function"
    },
    {
      "inputs": [
        {
          "internalType": "uint256",
          "name": "tokenId",
          "type": "uint256"
        }
      ],
      "name": "ownerOf",
      "outputs": [
        {
          "internalType": "address",
          "name": "",
          "type": "address"
        }
      ],
      "stateMutability": "view",
      "type": "function"
    },
    {
      "inputs": [
        {
          "internalType": "address",
          "name": "from",
          "type": "address"
        },
        {
          "internalType": "address",
          "name": "to",
          "type": "address"
        },
        {
          "internalType": "uint256",
          "name": "tokenId",
          "type": "uint256"
        }
      ],
      "name": "safeTransferFrom",
      "outputs": [],
      "stateMutability": "nonpayable",
      "type": "function"
    },
    {
      "inputs": [
        {
          "internalType": "address",
          "name": "from",
          "type": "address"
        },
        {
          "internalType": "address",
          "name": "to",
          "type": "address"
        },
        {
          "internalType": "uint256",
          "name": "tokenId",
          "type": "uint256"
        },
        {
          "internalType": "bytes",
          "name": "_data",
          "type": "bytes"
        }
      ],
      "name": "safeTransferFrom",
      "outputs": [],
      "stateMutability": "nonpayable",
      "type": "function"
    },
    {
      "inputs": [
        {
          "internalType": "address",
          "name": "operator",
          "type": "address"
        },
        {
          "internalType": "bool",
          "name": "approved",
          "type": "bool"
        }
      ],
      "name": "setApprovalForAll",
      "outputs": [],
      "stateMutability": "nonpayable",
      "type": "function"
    },
    {
      "inputs": [
        {
          "internalType": "bytes4",
          "name": "interfaceId",
          "type": "bytes4"
        }
      ],
      "name": "supportsInterface",
      "outputs": [
        {
          "internalType": "bool",
          "name": "",
          "type": "bool"
        }
      ],
      "stateMutability": "view",
      "type": "function"
    },
    {
      "inputs": [],
      "name": "symbol",
      "outputs": [
        {
          "internalType": "string",
          "name": "",
          "type": "string"
        }
      ],
      "stateMutability": "view",
      "type": "function"
    },
    {
      "inputs": [
        {
          "internalType": "uint256",
          "name": "index",
          "type": "uint256"
        }
      ],
      "name": "tokenByIndex",
      "outputs": [
        {
          "internalType": "uint256",
          "name": "",
          "type": "uint256"
        }
      ],
      "stateMutability": "view",
      "type": "function"
    },
    {
      "inputs": [
        {
          "internalType": "uint256",
          "name": "",
          "type": "uint256"
        }
      ],
      "name": "tokenIsAtIndex",
      "outputs": [
        {
          "internalType": "int256",
          "name": "",
          "type": "int256"
        }
      ],
      "stateMutability": "view",
      "type": "function"
    },
    {
      "inputs": [
        {
          "internalType": "address",
          "name": "owner",
          "type": "address"
        },
        {
          "internalType": "uint256",
          "name": "index",
          "type": "uint256"
        }
      ],
      "name": "tokenOfOwnerByIndex",
      "outputs": [
        {
          "internalType": "uint256",
          "name": "",
          "type": "uint256"
        }
      ],
      "stateMutability": "view",
      "type": "function"
    },
    {
      "inputs": [
        {
          "internalType": "uint256",
          "name": "_tokenId",
          "type": "uint256"
        }
      ],
      "name": "tokenURI",
      "outputs": [
        {
          "internalType": "string",
          "name": "",
          "type": "string"
        }
      ],
      "stateMutability": "view",
      "type": "function"
    },
    {
      "inputs": [],
      "name": "totalSupply",
      "outputs": [
        {
          "internalType": "uint256",
          "name": "",
          "type": "uint256"
        }
      ],
      "stateMutability": "view",
      "type": "function"
    },
    {
      "inputs": [
        {
          "internalType": "address",
          "name": "from",
          "type": "address"
        },
        {
          "internalType": "address",
          "name": "to",
          "type": "address"
        },
        {
          "internalType": "uint256",
          "name": "tokenId",
          "type": "uint256"
        }
      ],
      "name": "transferFrom",
      "outputs": [],
      "stateMutability": "nonpayable",
      "type": "function"
    },
    {
      "inputs": [
        {
          "internalType": "address",
          "name": "",
          "type": "address"
        },
        {
          "internalType": "uint256",
          "name": "",
          "type": "uint256"
        }
      ],
      "name": "userOwnedTokens",
      "outputs": [
        {
          "internalType": "uint256",
          "name": "",
          "type": "uint256"
        }
      ],
      "stateMutability": "view",
      "type": "function"
    }
  ],
  "bytecode": "0x60806040523480156200001157600080fd5b506040516200600d3803806200600d833981810160405281019062000037919062000803565b6040518060400160405280600581526020017f426f7865730000000000000000000000000000000000000000000000000000008152506040518060400160405280600381526020017f424f5800000000000000000000000000000000000000000000000000000000008152508160009080519060200190620000bb9291906200064f565b508060019080519060200190620000d49291906200064f565b50505060005b8451811015620004fe57600d604051806080016040528083815260200186848151811062000131577f4e487b7100000000000000000000000000000000000000000000000000000000600052603260045260246000fd5b6020026020010151815260200185848151811062000178577f4e487b7100000000000000000000000000000000000000000000000000000000600052603260045260246000fd5b60200260200101518152602001848481518110620001bf577f4e487b7100000000000000000000000000000000000000000000000000000000600052603260045260246000fd5b602002602001015181525090806001815401808255809150506001900390600052602060002090600402016000909190919091506000820151816000015560208201518160010190805190602001906200021b9291906200064f565b5060408201518160020190805190602001906200023a9291906200064f565b506060820151816003019080519060200190620002599291906200064f565b5050506000600d828154811062000299577f4e487b7100000000000000000000000000000000000000000000000000000000600052603260045260246000fd5b906000526020600020906004020160405180608001604052908160008201548152602001600182018054620002ce9062000acc565b80601f0160208091040260200160405190810160405280929190818152602001828054620002fc9062000acc565b80156200034d5780601f1062000321576101008083540402835291602001916200034d565b820191906000526020600020905b8154815290600101906020018083116200032f57829003601f168201915b50505050508152602001600282018054620003689062000acc565b80601f0160208091040260200160405190810160405280929190818152602001828054620003969062000acc565b8015620003e75780601f10620003bb57610100808354040283529160200191620003e7565b820191906000526020600020905b815481529060010190602001808311620003c957829003601f168201915b50505050508152602001600382018054620004029062000acc565b80601f0160208091040260200160405190810160405280929190818152602001828054620004309062000acc565b8015620004815780601f10620004555761010080835404028352916020019162000481565b820191906000526020600020905b8154815290600101906020018083116200046357829003601f168201915b5050505050815250509050620004e66040518060400160405280601f81526020017f446f6e6520696e697469616c697a696e672025732025732c20696d67202573008152508260200151836040015184606001516200056460201b62001fdc1760201c565b50600181620004f6919062000a2f565b9050620000da565b5062000516600c6200061060201b6200207e1760201c565b6064444262000526919062000a2f565b62000532919062000b02565b600a81905550600c444262000548919062000a2f565b62000554919062000b02565b600b819055505050505062000c07565b6200060a8484848460405160240162000581949392919062000914565b6040516020818303038152906040527fde68f20a000000000000000000000000000000000000000000000000000000007bffffffffffffffffffffffffffffffffffffffffffffffffffffffff19166020820180517bffffffffffffffffffffffffffffffffffffffffffffffffffffffff83818316178352505050506200062660201b60201c565b50505050565b6001816000016000828254019250508190555050565b60008151905060006a636f6e736f6c652e6c6f679050602083016000808483855afa5050505050565b8280546200065d9062000acc565b90600052602060002090601f016020900481019282620006815760008555620006cd565b82601f106200069c57805160ff1916838001178555620006cd565b82800160010185558215620006cd579182015b82811115620006cc578251825591602001919060010190620006af565b5b509050620006dc9190620006e0565b5090565b5b80821115620006fb576000816000905550600101620006e1565b5090565b6000620007166200071084620009b1565b6200097d565b9050808382526020820190508260005b858110156200075a57815185016200073f8882620007d6565b84526020840193506020830192505060018101905062000726565b5050509392505050565b60006200077b6200077584620009e0565b6200097d565b9050828152602081018484840111156200079457600080fd5b620007a184828562000a96565b509392505050565b600082601f830112620007bb57600080fd5b8151620007cd848260208601620006ff565b91505092915050565b600082601f830112620007e857600080fd5b8151620007fa84826020860162000764565b91505092915050565b600080600080608085870312156200081a57600080fd5b600085015167ffffffffffffffff8111156200083557600080fd5b6200084387828801620007a9565b945050602085015167ffffffffffffffff8111156200086157600080fd5b6200086f87828801620007a9565b935050604085015167ffffffffffffffff8111156200088d57600080fd5b6200089b87828801620007a9565b925050606085015167ffffffffffffffff811115620008b957600080fd5b620008c787828801620007a9565b91505092959194509250565b6000620008e08262000a13565b620008ec818562000a1e565b9350620008fe81856020860162000a96565b620009098162000bf6565b840191505092915050565b60006080820190508181036000830152620009308187620008d3565b90508181036020830152620009468186620008d3565b905081810360408301526200095c8185620008d3565b90508181036060830152620009728184620008d3565b905095945050505050565b6000604051905081810181811067ffffffffffffffff82111715620009a757620009a662000bc7565b5b8060405250919050565b600067ffffffffffffffff821115620009cf57620009ce62000bc7565b5b602082029050602081019050919050565b600067ffffffffffffffff821115620009fe57620009fd62000bc7565b5b601f19601f8301169050602081019050919050565b600081519050919050565b600082825260208201905092915050565b600062000a3c8262000a8c565b915062000a498362000a8c565b9250827fffffffffffffffffffffffffffffffffffffffffffffffffffffffffffffffff0382111562000a815762000a8062000b3a565b5b828201905092915050565b6000819050919050565b60005b8381101562000ab657808201518184015260208101905062000a99565b8381111562000ac6576000848401525b50505050565b6000600282049050600182168062000ae557607f821691505b6020821081141562000afc5762000afb62000b98565b5b50919050565b600062000b0f8262000a8c565b915062000b1c8362000a8c565b92508262000b2f5762000b2e62000b69565b5b828206905092915050565b7f4e487b7100000000000000000000000000000000000000000000000000000000600052601160045260246000fd5b7f4e487b7100000000000000000000000000000000000000000000000000000000600052601260045260246000fd5b7f4e487b7100000000000000000000000000000000000000000000000000000000600052602260045260246000fd5b7f4e487b7100000000000000000000000000000000000000000000000000000000600052604160045260246000fd5b6000601f19601f8301169050919050565b6153f68062000c176000396000f3fe608060405234801561001057600080fd5b50600436106101c45760003560e01c8063775bb50e116100f9578063c2f8331911610097578063cebf214111610071578063cebf21411461058e578063d004b036146105ac578063d55b2588146105dc578063e985e9c5146105f8576101c4565b8063c2f8331914610510578063c87b56dd14610540578063c8cf27f414610570576101c4565b806398da4c95116100d357806398da4c9514610487578063a1ac6d2e146104ba578063a22cb465146104d8578063b88d4fde146104f4576101c4565b8063775bb50e14610409578063776454491461043957806395d89b4114610469576101c4565b80632f745c59116101665780634f6ccce7116101405780634f6ccce7146103495780636352211e1461037957806363f30b47146103a957806370a08231146103d9576101c4565b80632f745c59146102cd57806335000496146102fd57806342842e0e1461032d576101c4565b8063095ea7b3116101a2578063095ea7b31461024757806314b924e21461026357806318160ddd1461029357806323b872dd146102b1576101c4565b806301ffc9a7146101c957806306fdde03146101f9578063081812fc14610217575b600080fd5b6101e360048036038101906101de9190613de2565b610628565b6040516101f09190614a8a565b60405180910390f35b6102016106a2565b60405161020e9190614ac0565b60405180910390f35b610231600480360381019061022c9190613e34565b610734565b60405161023e91906149a8565b60405180910390f35b610261600480360381019061025c9190613da6565b6107b9565b005b61027d60048036038101906102789190613da6565b6108d1565b60405161028a9190614de3565b60405180910390f35b61029b610902565b6040516102a89190614de3565b60405180910390f35b6102cb60048036038101906102c69190613ca0565b61090f565b005b6102e760048036038101906102e29190613da6565b61096f565b6040516102f49190614de3565b60405180910390f35b61031760048036038101906103129190613e34565b610a14565b6040516103249190614dc1565b60405180910390f35b61034760048036038101906103429190613ca0565b610c01565b005b610363600480360381019061035e9190613e34565b610c21565b6040516103709190614de3565b60405180910390f35b610393600480360381019061038e9190613e34565b610cb8565b6040516103a091906149a8565b60405180910390f35b6103c360048036038101906103be9190613c3b565b610d6a565b6040516103d09190614a68565b60405180910390f35b6103f360048036038101906103ee9190613c3b565b610e01565b6040516104009190614de3565b60405180910390f35b610423600480360381019061041e9190613da6565b610eb9565b6040516104309190614de3565b60405180910390f35b610453600480360381019061044e9190613c3b565b610eea565b6040516104609190614de3565b60405180910390f35b610471610f02565b60405161047e9190614ac0565b60405180910390f35b6104a1600480360381019061049c9190613e34565b610f94565b6040516104b19493929190614e27565b60405180910390f35b6104c261115c565b6040516104cf9190614a68565b60405180910390f35b6104f260048036038101906104ed9190613d6a565b6111f1565b005b61050e60048036038101906105099190613cef565b611207565b005b61052a60048036038101906105259190613e34565b611269565b6040516105379190614aa5565b60405180910390f35b61055a60048036038101906105559190613e34565b611281565b6040516105679190614ac0565b60405180910390f35b6105786114ec565b6040516105859190614dc1565b60405180910390f35b61059661177b565b6040516105a39190614a46565b60405180910390f35b6105c660048036038101906105c19190613c3b565b61199a565b6040516105d39190614a68565b60405180910390f35b6105f660048036038101906105f19190613e34565b611a96565b005b610612600480360381019061060d9190613c64565b611f48565b60405161061f9190614a8a565b60405180910390f35b60007f780e9d63000000000000000000000000000000000000000000000000000000007bffffffffffffffffffffffffffffffffffffffffffffffffffffffff1916827bffffffffffffffffffffffffffffffffffffffffffffffffffffffff1916148061069b575061069a82612094565b5b9050919050565b6060600080546106b19061517d565b80601f01602080910402602001604051908101604052809291908181526020018280546106dd9061517d565b801561072a5780601f106106ff5761010080835404028352916020019161072a565b820191906000526020600020905b81548152906001019060200180831161070d57829003601f168201915b5050505050905090565b600061073f82612176565b61077e576040517f08c379a000000000000000000000000000000000000000000000000000000000815260040161077590614d21565b60405180910390fd5b6004600083815260200190815260200160002060009054906101000a900473ffffffffffffffffffffffffffffffffffffffff169050919050565b60006107c482610cb8565b90508073ffffffffffffffffffffffffffffffffffffffff168373ffffffffffffffffffffffffffffffffffffffff161415610835576040517f08c379a000000000000000000000000000000000000000000000000000000000815260040161082c90614d61565b60405180910390fd5b8073ffffffffffffffffffffffffffffffffffffffff166108546121e2565b73ffffffffffffffffffffffffffffffffffffffff16148061088357506108828161087d6121e2565b611f48565b5b6108c2576040517f08c379a00000000000000000000000000000000000000000000000000000000081526004016108b990614ca1565b60405180910390fd5b6108cc83836121ea565b505050565b601060205281600052604060002081815481106108ed57600080fd5b90600052602060002001600091509150505481565b6000600880549050905090565b61092061091a6121e2565b826122a3565b61095f576040517f08c379a000000000000000000000000000000000000000000000000000000000815260040161095690614d81565b60405180910390fd5b61096a838383612381565b505050565b600061097a83610e01565b82106109bb576040517f08c379a00000000000000000000000000000000000000000000000000000000081526004016109b290614be1565b60405180910390fd5b600660008473ffffffffffffffffffffffffffffffffffffffff1673ffffffffffffffffffffffffffffffffffffffff168152602001908152602001600020600083815260200190815260200160002054905092915050565b610a1c613a9f565b600e600083815260200190815260200160002060405180608001604052908160008201548152602001600182018054610a549061517d565b80601f0160208091040260200160405190810160405280929190818152602001828054610a809061517d565b8015610acd5780601f10610aa257610100808354040283529160200191610acd565b820191906000526020600020905b815481529060010190602001808311610ab057829003601f168201915b50505050508152602001600282018054610ae69061517d565b80601f0160208091040260200160405190810160405280929190818152602001828054610b129061517d565b8015610b5f5780601f10610b3457610100808354040283529160200191610b5f565b820191906000526020600020905b815481529060010190602001808311610b4257829003601f168201915b50505050508152602001600382018054610b789061517d565b80601f0160208091040260200160405190810160405280929190818152602001828054610ba49061517d565b8015610bf15780601f10610bc657610100808354040283529160200191610bf1565b820191906000526020600020905b815481529060010190602001808311610bd457829003601f168201915b5050505050815250509050919050565b610c1c83838360405180602001604052806000815250611207565b505050565b6000610c2b610902565b8210610c6c576040517f08c379a0000000000000000000000000000000000000000000000000000000008152600401610c6390614da1565b60405180910390fd5b60088281548110610ca6577f4e487b7100000000000000000000000000000000000000000000000000000000600052603260045260246000fd5b90600052602060002001549050919050565b6000806002600084815260200190815260200160002060009054906101000a900473ffffffffffffffffffffffffffffffffffffffff169050600073ffffffffffffffffffffffffffffffffffffffff168173ffffffffffffffffffffffffffffffffffffffff161415610d61576040517f08c379a0000000000000000000000000000000000000000000000000000000008152600401610d5890614ce1565b60405180910390fd5b80915050919050565b6060600f60008373ffffffffffffffffffffffffffffffffffffffff1673ffffffffffffffffffffffffffffffffffffffff168152602001908152602001600020805480602002602001604051908101604052809291908181526020018280548015610df557602002820191906000526020600020905b815481526020019060010190808311610de1575b50505050509050919050565b60008073ffffffffffffffffffffffffffffffffffffffff168273ffffffffffffffffffffffffffffffffffffffff161415610e72576040517f08c379a0000000000000000000000000000000000000000000000000000000008152600401610e6990614cc1565b60405180910390fd5b600360008373ffffffffffffffffffffffffffffffffffffffff1673ffffffffffffffffffffffffffffffffffffffff168152602001908152602001600020549050919050565b600f6020528160005260406000208181548110610ed557600080fd5b90600052602060002001600091509150505481565b60126020528060005260406000206000915090505481565b606060018054610f119061517d565b80601f0160208091040260200160405190810160405280929190818152602001828054610f3d9061517d565b8015610f8a5780601f10610f5f57610100808354040283529160200191610f8a565b820191906000526020600020905b815481529060010190602001808311610f6d57829003601f168201915b5050505050905090565b600e602052806000526040600020600091509050806000015490806001018054610fbd9061517d565b80601f0160208091040260200160405190810160405280929190818152602001828054610fe99061517d565b80156110365780601f1061100b57610100808354040283529160200191611036565b820191906000526020600020905b81548152906001019060200180831161101957829003601f168201915b50505050509080600201805461104b9061517d565b80601f01602080910402602001604051908101604052809291908181526020018280546110779061517d565b80156110c45780601f10611099576101008083540402835291602001916110c4565b820191906000526020600020905b8154815290600101906020018083116110a757829003601f168201915b5050505050908060030180546110d99061517d565b80601f01602080910402602001604051908101604052809291908181526020018280546111059061517d565b80156111525780601f1061112757610100808354040283529160200191611152565b820191906000526020600020905b81548152906001019060200180831161113557829003601f168201915b5050505050905084565b6060600f60003373ffffffffffffffffffffffffffffffffffffffff1673ffffffffffffffffffffffffffffffffffffffff1681526020019081526020016000208054806020026020016040519081016040528092919081815260200182805480156111e757602002820191906000526020600020905b8154815260200190600101908083116111d3575b5050505050905090565b6112036111fc6121e2565b83836125dd565b5050565b6112186112126121e2565b836122a3565b611257576040517f08c379a000000000000000000000000000000000000000000000000000000000815260040161124e90614d81565b60405180910390fd5b6112638484848461274a565b50505050565b60116020528060005260406000206000915090505481565b60606000600e6000848152602001908152602001600020604051806080016040529081600082015481526020016001820180546112bd9061517d565b80601f01602080910402602001604051908101604052809291908181526020018280546112e99061517d565b80156113365780601f1061130b57610100808354040283529160200191611336565b820191906000526020600020905b81548152906001019060200180831161131957829003601f168201915b5050505050815260200160028201805461134f9061517d565b80601f016020809104026020016040519081016040528092919081815260200182805461137b9061517d565b80156113c85780601f1061139d576101008083540402835291602001916113c8565b820191906000526020600020905b8154815290600101906020018083116113ab57829003601f168201915b505050505081526020016003820180546113e19061517d565b80601f016020809104026020016040519081016040528092919081815260200182805461140d9061517d565b801561145a5780601f1061142f5761010080835404028352916020019161145a565b820191906000526020600020905b81548152906001019060200180831161143d57829003601f168201915b505050505081525050905060008160200151905060008260400151905060006114b9846020015161148a886127a6565b866060015186866040516020016114a59594939291906148f9565b604051602081830303815290604052612953565b90506000816040516020016114ce9190614986565b60405160208183030381529060405290508095505050505050919050565b6114f4613a9f565b6000600f60003373ffffffffffffffffffffffffffffffffffffffff1673ffffffffffffffffffffffffffffffffffffffff16815260200190815260200160002060008154811061156e577f4e487b7100000000000000000000000000000000000000000000000000000000600052603260045260246000fd5b90600052602060002001549050600081111561176a57600e6000828152602001908152602001600020604051806080016040529081600082015481526020016001820180546115bc9061517d565b80601f01602080910402602001604051908101604052809291908181526020018280546115e89061517d565b80156116355780601f1061160a57610100808354040283529160200191611635565b820191906000526020600020905b81548152906001019060200180831161161857829003601f168201915b5050505050815260200160028201805461164e9061517d565b80601f016020809104026020016040519081016040528092919081815260200182805461167a9061517d565b80156116c75780601f1061169c576101008083540402835291602001916116c7565b820191906000526020600020905b8154815290600101906020018083116116aa57829003601f168201915b505050505081526020016003820180546116e09061517d565b80601f016020809104026020016040519081016040528092919081815260200182805461170c9061517d565b80156117595780601f1061172e57610100808354040283529160200191611759565b820191906000526020600020905b81548152906001019060200180831161173c57829003601f168201915b505050505081525050915050611778565b611772613a9f565b80925050505b90565b6060600d805480602002602001604051908101604052809291908181526020016000905b828210156119915783829060005260206000209060040201604051806080016040529081600082015481526020016001820180546117dc9061517d565b80601f01602080910402602001604051908101604052809291908181526020018280546118089061517d565b80156118555780601f1061182a57610100808354040283529160200191611855565b820191906000526020600020905b81548152906001019060200180831161183857829003601f168201915b5050505050815260200160028201805461186e9061517d565b80601f016020809104026020016040519081016040528092919081815260200182805461189a9061517d565b80156118e75780601f106118bc576101008083540402835291602001916118e7565b820191906000526020600020905b8154815290600101906020018083116118ca57829003601f168201915b505050505081526020016003820180546119009061517d565b80601f016020809104026020016040519081016040528092919081815260200182805461192c9061517d565b80156119795780601f1061194e57610100808354040283529160200191611979565b820191906000526020600020905b81548152906001019060200180831161195c57829003601f168201915b5050505050815250508152602001906001019061179f565b50505050905090565b606060006119a783610e01565b67ffffffffffffffff8111156119e6577f4e487b7100000000000000000000000000000000000000000000000000000000600052604160045260246000fd5b604051908082528060200260200182016040528015611a145781602001602082028036833780820191505090505b50905060005b611a2384610e01565b811015611a8c57611a34848261096f565b828281518110611a6d577f4e487b7100000000000000000000000000000000000000000000000000000000600052603260045260246000fd5b6020026020010181815250508080611a84906151af565b915050611a1a565b8192505050919050565b600060019050611b1a6040518060400160405280601c81526020017f6c617374486f7374656441745b6d73672e73656e6465725d3a20256400000000815250601260003373ffffffffffffffffffffffffffffffffffffffff1673ffffffffffffffffffffffffffffffffffffffff16815260200190815260200160002054612b11565b611b596040518060400160405280601381526020017f626c6f636b2e74696d657374616d703a2025640000000000000000000000000081525042612b11565b426078601260003373ffffffffffffffffffffffffffffffffffffffff1673ffffffffffffffffffffffffffffffffffffffff16815260200190815260200160002054611ba69190614fa8565b1090508015611ec85742601260003373ffffffffffffffffffffffffffffffffffffffff1673ffffffffffffffffffffffffffffffffffffffff16815260200190815260200160002081905550611c326040518060400160405280601681526020017f257320686173207468726f776e2061207061727479210000000000000000000081525033612bad565b611c716040518060400160405280600e81526020017f70726f6261746f6d696e74203a2000000000000000000000000000000000000081525083612b11565b601360405180604001604052803373ffffffffffffffffffffffffffffffffffffffff16815260200142815250908060018154018082558091505060019003906000526020600020906002020160009091909190915060008201518160000160006101000a81548173ffffffffffffffffffffffffffffffffffffffff021916908373ffffffffffffffffffffffffffffffffffffffff1602179055506020820151816001015550506064600a544244611d2b9190614fa8565b611d359190614fa8565b611d3f91906151f8565b600a81905550600c600b544244611d569190614fa8565b611d609190614fa8565b611d6a91906151f8565b600b81905550611db16040518060400160405280601781526020017f52616e646f6d2023312067656e6572617465643a202564000000000000000000815250600a54612b11565b611df26040518060400160405280601781526020017f52616e646f6d2023322067656e6572617465643a202564000000000000000000815250600b54612b11565b611e706040518060400160405280601c81526020017f6c617374486f7374656441745b6d73672e73656e6465725d3a20256400000000815250601260003373ffffffffffffffffffffffffffffffffffffffff1673ffffffffffffffffffffffffffffffffffffffff16815260200190815260200160002054612b11565b81600a5411611ec357611eb76040518060400160405280600e81526020017f69742073686f756c64206d696e74000000000000000000000000000000000000815250612c49565b611ec2600b54612ce2565b5b611f0b565b60009050611f0a6040518060400160405280600a81526020017f7761697420612062697400000000000000000000000000000000000000000000815250612c49565b5b7fec8d2654655f3777bf009dab252f6bf35af3788e3be6ca82bf9e8ceb99186a774282604051611f3c929190614dfe565b60405180910390a15050565b6000600560008473ffffffffffffffffffffffffffffffffffffffff1673ffffffffffffffffffffffffffffffffffffffff16815260200190815260200160002060008373ffffffffffffffffffffffffffffffffffffffff1673ffffffffffffffffffffffffffffffffffffffff16815260200190815260200160002060009054906101000a900460ff16905092915050565b61207884848484604051602401611ff69493929190614b12565b6040516020818303038152906040527fde68f20a000000000000000000000000000000000000000000000000000000007bffffffffffffffffffffffffffffffffffffffffffffffffffffffff19166020820180517bffffffffffffffffffffffffffffffffffffffffffffffffffffffff83818316178352505050506130dd565b50505050565b6001816000016000828254019250508190555050565b60007f80ac58cd000000000000000000000000000000000000000000000000000000007bffffffffffffffffffffffffffffffffffffffffffffffffffffffff1916827bffffffffffffffffffffffffffffffffffffffffffffffffffffffff1916148061215f57507f5b5e139f000000000000000000000000000000000000000000000000000000007bffffffffffffffffffffffffffffffffffffffffffffffffffffffff1916827bffffffffffffffffffffffffffffffffffffffffffffffffffffffff1916145b8061216f575061216e82613106565b5b9050919050565b60008073ffffffffffffffffffffffffffffffffffffffff166002600084815260200190815260200160002060009054906101000a900473ffffffffffffffffffffffffffffffffffffffff1673ffffffffffffffffffffffffffffffffffffffff1614159050919050565b600033905090565b816004600083815260200190815260200160002060006101000a81548173ffffffffffffffffffffffffffffffffffffffff021916908373ffffffffffffffffffffffffffffffffffffffff160217905550808273ffffffffffffffffffffffffffffffffffffffff1661225d83610cb8565b73ffffffffffffffffffffffffffffffffffffffff167f8c5be1e5ebec7d5bd14f71427d1e84f3dd0314c0f7b2291e5b200ac8c7c3b92560405160405180910390a45050565b60006122ae82612176565b6122ed576040517f08c379a00000000000000000000000000000000000000000000000000000000081526004016122e490614c81565b60405180910390fd5b60006122f883610cb8565b90508073ffffffffffffffffffffffffffffffffffffffff168473ffffffffffffffffffffffffffffffffffffffff16148061236757508373ffffffffffffffffffffffffffffffffffffffff1661234f84610734565b73ffffffffffffffffffffffffffffffffffffffff16145b8061237857506123778185611f48565b5b91505092915050565b8273ffffffffffffffffffffffffffffffffffffffff166123a182610cb8565b73ffffffffffffffffffffffffffffffffffffffff16146123f7576040517f08c379a00000000000000000000000000000000000000000000000000000000081526004016123ee90614d41565b60405180910390fd5b600073ffffffffffffffffffffffffffffffffffffffff168273ffffffffffffffffffffffffffffffffffffffff161415612467576040517f08c379a000000000000000000000000000000000000000000000000000000000815260040161245e90614c41565b60405180910390fd5b612472838383613170565b61247d6000826121ea565b6001600360008573ffffffffffffffffffffffffffffffffffffffff1673ffffffffffffffffffffffffffffffffffffffff16815260200190815260200160002060008282546124cd9190615089565b925050819055506001600360008473ffffffffffffffffffffffffffffffffffffffff1673ffffffffffffffffffffffffffffffffffffffff16815260200190815260200160002060008282546125249190614fa8565b92505081905550816002600083815260200190815260200160002060006101000a81548173ffffffffffffffffffffffffffffffffffffffff021916908373ffffffffffffffffffffffffffffffffffffffff160217905550808273ffffffffffffffffffffffffffffffffffffffff168473ffffffffffffffffffffffffffffffffffffffff167fddf252ad1be2c89b69c2b068fc378daa952ba7f163c4a11628f55a4df523b3ef60405160405180910390a4505050565b8173ffffffffffffffffffffffffffffffffffffffff168373ffffffffffffffffffffffffffffffffffffffff16141561264c576040517f08c379a000000000000000000000000000000000000000000000000000000000815260040161264390614c61565b60405180910390fd5b80600560008573ffffffffffffffffffffffffffffffffffffffff1673ffffffffffffffffffffffffffffffffffffffff16815260200190815260200160002060008473ffffffffffffffffffffffffffffffffffffffff1673ffffffffffffffffffffffffffffffffffffffff16815260200190815260200160002060006101000a81548160ff0219169083151502179055508173ffffffffffffffffffffffffffffffffffffffff168373ffffffffffffffffffffffffffffffffffffffff167f17307eab39ab6107e8899845ad3d59bd9653f200f220920489ca2b5937696c318360405161273d9190614a8a565b60405180910390a3505050565b612755848484612381565b61276184848484613284565b6127a0576040517f08c379a000000000000000000000000000000000000000000000000000000000815260040161279790614c01565b60405180910390fd5b50505050565b606060008214156127ee576040518060400160405280600181526020017f3000000000000000000000000000000000000000000000000000000000000000815250905061294e565b600082905060005b60008214612820578080612809906151af565b915050600a826128199190614ffe565b91506127f6565b60008167ffffffffffffffff811115612862577f4e487b7100000000000000000000000000000000000000000000000000000000600052604160045260246000fd5b6040519080825280601f01601f1916602001820160405280156128945781602001600182028036833780820191505090505b5090505b60008514612947576001826128ad9190615089565b9150600a856128bc91906151f8565b60306128c89190614fa8565b60f81b818381518110612904577f4e487b7100000000000000000000000000000000000000000000000000000000600052603260045260246000fd5b60200101907effffffffffffffffffffffffffffffffffffffffffffffffffffffffffffff1916908160001a905350600a856129409190614ffe565b9450612898565b8093505050505b919050565b6060600082519050600081141561297c5760405180602001604052806000815250915050612b0c565b6000600360028361298d9190614fa8565b6129979190614ffe565b60046129a3919061502f565b905060006020826129b49190614fa8565b67ffffffffffffffff8111156129f3577f4e487b7100000000000000000000000000000000000000000000000000000000600052604160045260246000fd5b6040519080825280601f01601f191660200182016040528015612a255781602001600182028036833780820191505090505b5090506000604051806060016040528060408152602001615353604091399050600181016020830160005b86811015612ac95760038101905062ffffff818a015116603f8160121c168401518060081b905060ff603f83600c1c1686015116810190508060081b905060ff603f8360061c1686015116810190508060081b905060ff603f831686015116810190508060e01b90508084526004840193505050612a50565b506003860660018114612ae35760028114612af357612afe565b613d3d60f01b6002830352612afe565b603d60f81b60018303525b508484525050819450505050505b919050565b612ba98282604051602401612b27929190614b73565b6040516020818303038152906040527f9710a9d0000000000000000000000000000000000000000000000000000000007bffffffffffffffffffffffffffffffffffffffffffffffffffffffff19166020820180517bffffffffffffffffffffffffffffffffffffffffffffffffffffffff83818316178352505050506130dd565b5050565b612c458282604051602401612bc3929190614ae2565b6040516020818303038152906040527f319af333000000000000000000000000000000000000000000000000000000007bffffffffffffffffffffffffffffffffffffffffffffffffffffffff19166020820180517bffffffffffffffffffffffffffffffffffffffffffffffffffffffff83818316178352505050506130dd565b5050565b612cdf81604051602401612c5d9190614ac0565b6040516020818303038152906040527f41304fac000000000000000000000000000000000000000000000000000000007bffffffffffffffffffffffffffffffffffffffffffffffffffffffff19166020820180517bffffffffffffffffffffffffffffffffffffffffffffffffffffffff83818316178352505050506130dd565b50565b6000612cee600c61341b565b9050612cfa3382613429565b6040518060800160405280838152602001600d8481548110612d45577f4e487b7100000000000000000000000000000000000000000000000000000000600052603260045260246000fd5b90600052602060002090600402016001018054612d619061517d565b80601f0160208091040260200160405190810160405280929190818152602001828054612d8d9061517d565b8015612dda5780601f10612daf57610100808354040283529160200191612dda565b820191906000526020600020905b815481529060010190602001808311612dbd57829003601f168201915b50505050508152602001600d8481548110612e1e577f4e487b7100000000000000000000000000000000000000000000000000000000600052603260045260246000fd5b90600052602060002090600402016002018054612e3a9061517d565b80601f0160208091040260200160405190810160405280929190818152602001828054612e669061517d565b8015612eb35780601f10612e8857610100808354040283529160200191612eb3565b820191906000526020600020905b815481529060010190602001808311612e9657829003601f168201915b50505050508152602001600d8481548110612ef7577f4e487b7100000000000000000000000000000000000000000000000000000000600052603260045260246000fd5b90600052602060002090600402016003018054612f139061517d565b80601f0160208091040260200160405190810160405280929190818152602001828054612f3f9061517d565b8015612f8c5780601f10612f6157610100808354040283529160200191612f8c565b820191906000526020600020905b815481529060010190602001808311612f6f57829003601f168201915b5050505050815250600e6000838152602001908152602001600020600082015181600001556020820151816001019080519060200190612fcd929190613ac7565b506040820151816002019080519060200190612fea929190613ac7565b506060820151816003019080519060200190613007929190613ac7565b5090505061302e6040518060600160405280602e8152602001615393602e91398284613447565b600f60003373ffffffffffffffffffffffffffffffffffffffff1673ffffffffffffffffffffffffffffffffffffffff16815260200190815260200160002081908060018154018082558091505060019003906000526020600020016000909190919091505561309e600c61207e565b7f75c6f6a1a201a7a14934962d50cb5d3af5dd75266af121eba66d337d2e985fea3382846040516130d193929190614a0f565b60405180910390a15050565b60008151905060006a636f6e736f6c652e6c6f679050602083016000808483855afa5050505050565b60007f01ffc9a7000000000000000000000000000000000000000000000000000000007bffffffffffffffffffffffffffffffffffffffffffffffffffffffff1916827bffffffffffffffffffffffffffffffffffffffffffffffffffffffff1916149050919050565b61317b8383836134e6565b600073ffffffffffffffffffffffffffffffffffffffff168373ffffffffffffffffffffffffffffffffffffffff1614156131be576131b9816134eb565b6131fd565b8173ffffffffffffffffffffffffffffffffffffffff168373ffffffffffffffffffffffffffffffffffffffff16146131fc576131fb8382613534565b5b5b600073ffffffffffffffffffffffffffffffffffffffff168273ffffffffffffffffffffffffffffffffffffffff1614156132405761323b816136a1565b61327f565b8273ffffffffffffffffffffffffffffffffffffffff168273ffffffffffffffffffffffffffffffffffffffff161461327e5761327d82826137e4565b5b5b505050565b60006132a58473ffffffffffffffffffffffffffffffffffffffff16613863565b1561340e578373ffffffffffffffffffffffffffffffffffffffff1663150b7a026132ce6121e2565b8786866040518563ffffffff1660e01b81526004016132f094939291906149c3565b602060405180830381600087803b15801561330a57600080fd5b505af192505050801561333b57506040513d601f19601f820116820180604052508101906133389190613e0b565b60015b6133be573d806000811461336b576040519150601f19603f3d011682016040523d82523d6000602084013e613370565b606091505b506000815114156133b6576040517f08c379a00000000000000000000000000000000000000000000000000000000081526004016133ad90614c01565b60405180910390fd5b805181602001fd5b63150b7a0260e01b7bffffffffffffffffffffffffffffffffffffffffffffffffffffffff1916817bffffffffffffffffffffffffffffffffffffffffffffffffffffffff191614915050613413565b600190505b949350505050565b600081600001549050919050565b613443828260405180602001604052806000815250613876565b5050565b6134e183838360405160240161345f93929190614ba3565b6040516020818303038152906040527f969cdd03000000000000000000000000000000000000000000000000000000007bffffffffffffffffffffffffffffffffffffffffffffffffffffffff19166020820180517bffffffffffffffffffffffffffffffffffffffffffffffffffffffff83818316178352505050506130dd565b505050565b505050565b6008805490506009600083815260200190815260200160002081905550600881908060018154018082558091505060019003906000526020600020016000909190919091505550565b6000600161354184610e01565b61354b9190615089565b9050600060076000848152602001908152602001600020549050818114613630576000600660008673ffffffffffffffffffffffffffffffffffffffff1673ffffffffffffffffffffffffffffffffffffffff168152602001908152602001600020600084815260200190815260200160002054905080600660008773ffffffffffffffffffffffffffffffffffffffff1673ffffffffffffffffffffffffffffffffffffffff168152602001908152602001600020600084815260200190815260200160002081905550816007600083815260200190815260200160002081905550505b6007600084815260200190815260200160002060009055600660008573ffffffffffffffffffffffffffffffffffffffff1673ffffffffffffffffffffffffffffffffffffffff16815260200190815260200160002060008381526020019081526020016000206000905550505050565b600060016008805490506136b59190615089565b905060006009600084815260200190815260200160002054905060006008838154811061370b577f4e487b7100000000000000000000000000000000000000000000000000000000600052603260045260246000fd5b906000526020600020015490508060088381548110613753577f4e487b7100000000000000000000000000000000000000000000000000000000600052603260045260246000fd5b9060005260206000200181905550816009600083815260200190815260200160002081905550600960008581526020019081526020016000206000905560088054806137c8577f4e487b7100000000000000000000000000000000000000000000000000000000600052603160045260246000fd5b6001900381819060005260206000200160009055905550505050565b60006137ef83610e01565b905081600660008573ffffffffffffffffffffffffffffffffffffffff1673ffffffffffffffffffffffffffffffffffffffff168152602001908152602001600020600083815260200190815260200160002081905550806007600084815260200190815260200160002081905550505050565b600080823b905060008111915050919050565b61388083836138d1565b61388d6000848484613284565b6138cc576040517f08c379a00000000000000000000000000000000000000000000000000000000081526004016138c390614c01565b60405180910390fd5b505050565b600073ffffffffffffffffffffffffffffffffffffffff168273ffffffffffffffffffffffffffffffffffffffff161415613941576040517f08c379a000000000000000000000000000000000000000000000000000000000815260040161393890614d01565b60405180910390fd5b61394a81612176565b1561398a576040517f08c379a000000000000000000000000000000000000000000000000000000000815260040161398190614c21565b60405180910390fd5b61399660008383613170565b6001600360008473ffffffffffffffffffffffffffffffffffffffff1673ffffffffffffffffffffffffffffffffffffffff16815260200190815260200160002060008282546139e69190614fa8565b92505081905550816002600083815260200190815260200160002060006101000a81548173ffffffffffffffffffffffffffffffffffffffff021916908373ffffffffffffffffffffffffffffffffffffffff160217905550808273ffffffffffffffffffffffffffffffffffffffff16600073ffffffffffffffffffffffffffffffffffffffff167fddf252ad1be2c89b69c2b068fc378daa952ba7f163c4a11628f55a4df523b3ef60405160405180910390a45050565b6040518060800160405280600081526020016060815260200160608152602001606081525090565b828054613ad39061517d565b90600052602060002090601f016020900481019282613af55760008555613b3c565b82601f10613b0e57805160ff1916838001178555613b3c565b82800160010185558215613b3c579182015b82811115613b3b578251825591602001919060010190613b20565b5b509050613b499190613b4d565b5090565b5b80821115613b66576000816000905550600101613b4e565b5090565b6000613b7d613b7884614eb2565b614e81565b905082815260208101848484011115613b9557600080fd5b613ba084828561513b565b509392505050565b600081359050613bb7816152f6565b92915050565b600081359050613bcc8161530d565b92915050565b600081359050613be181615324565b92915050565b600081519050613bf681615324565b92915050565b600082601f830112613c0d57600080fd5b8135613c1d848260208601613b6a565b91505092915050565b600081359050613c358161533b565b92915050565b600060208284031215613c4d57600080fd5b6000613c5b84828501613ba8565b91505092915050565b60008060408385031215613c7757600080fd5b6000613c8585828601613ba8565b9250506020613c9685828601613ba8565b9150509250929050565b600080600060608486031215613cb557600080fd5b6000613cc386828701613ba8565b9350506020613cd486828701613ba8565b9250506040613ce586828701613c26565b9150509250925092565b60008060008060808587031215613d0557600080fd5b6000613d1387828801613ba8565b9450506020613d2487828801613ba8565b9350506040613d3587828801613c26565b925050606085013567ffffffffffffffff811115613d5257600080fd5b613d5e87828801613bfc565b91505092959194509250565b60008060408385031215613d7d57600080fd5b6000613d8b85828601613ba8565b9250506020613d9c85828601613bbd565b9150509250929050565b60008060408385031215613db957600080fd5b6000613dc785828601613ba8565b9250506020613dd885828601613c26565b9150509250929050565b600060208284031215613df457600080fd5b6000613e0284828501613bd2565b91505092915050565b600060208284031215613e1d57600080fd5b6000613e2b84828501613be7565b91505092915050565b600060208284031215613e4657600080fd5b6000613e5484828501613c26565b91505092915050565b6000613e6983836147f9565b905092915050565b6000613e7d83836148db565b60208301905092915050565b613e92816150bd565b82525050565b6000613ea382614f02565b613ead8185614f48565b935083602082028501613ebf85614ee2565b8060005b85811015613efb5784840389528151613edc8582613e5d565b9450613ee783614f2e565b925060208a01995050600181019050613ec3565b50829750879550505050505092915050565b6000613f1882614f0d565b613f228185614f59565b9350613f2d83614ef2565b8060005b83811015613f5e578151613f458882613e71565b9750613f5083614f3b565b925050600181019050613f31565b5085935050505092915050565b613f74816150cf565b82525050565b6000613f8582614f18565b613f8f8185614f6a565b9350613f9f81856020860161514a565b613fa8816152e5565b840191505092915050565b613fbc81615107565b82525050565b6000613fcd82614f23565b613fd78185614f7b565b9350613fe781856020860161514a565b613ff0816152e5565b840191505092915050565b600061400682614f23565b6140108185614f8c565b935061402081856020860161514a565b614029816152e5565b840191505092915050565b600061403f82614f23565b6140498185614f9d565b935061405981856020860161514a565b80840191505092915050565b6000614072600b83614f9d565b91507f202d2d204e465420233a200000000000000000000000000000000000000000006000830152600b82019050919050565b60006140b2602b83614f8c565b91507f455243373231456e756d657261626c653a206f776e657220696e646578206f7560008301527f74206f6620626f756e64730000000000000000000000000000000000000000006020830152604082019050919050565b6000614118603283614f8c565b91507f4552433732313a207472616e7366657220746f206e6f6e20455243373231526560008301527f63656976657220696d706c656d656e74657200000000000000000000000000006020830152604082019050919050565b600061417e601c83614f8c565b91507f4552433732313a20746f6b656e20616c7265616479206d696e746564000000006000830152602082019050919050565b60006141be603883614f9d565b91507f222c20226465736372697074696f6e223a20224120736f756e6473797374656d60008301527f20626f78222c2022696d616765223a2022697066733a2f2f00000000000000006020830152603882019050919050565b6000614224602483614f8c565b91507f4552433732313a207472616e7366657220746f20746865207a65726f2061646460008301527f72657373000000000000000000000000000000000000000000000000000000006020830152604082019050919050565b600061428a601983614f8c565b91507f4552433732313a20617070726f766520746f2063616c6c6572000000000000006000830152602082019050919050565b60006142ca602c83614f8c565b91507f4552433732313a206f70657261746f7220717565727920666f72206e6f6e657860008301527f697374656e7420746f6b656e00000000000000000000000000000000000000006020830152604082019050919050565b6000614330600f83614f9d565b91507f7b226672657175656e6365223a202200000000000000000000000000000000006000830152600f82019050919050565b6000614370603883614f8c565b91507f4552433732313a20617070726f76652063616c6c6572206973206e6f74206f7760008301527f6e6572206e6f7220617070726f76656420666f7220616c6c00000000000000006020830152604082019050919050565b60006143d6602a83614f8c565b91507f4552433732313a2062616c616e636520717565727920666f7220746865207a6560008301527f726f2061646472657373000000000000000000000000000000000000000000006020830152604082019050919050565b600061443c602983614f8c565b91507f4552433732313a206f776e657220717565727920666f72206e6f6e657869737460008301527f656e7420746f6b656e00000000000000000000000000000000000000000000006020830152604082019050919050565b60006144a2600983614f9d565b91507f2c20226d6f6f64223a00000000000000000000000000000000000000000000006000830152600982019050919050565b60006144e2600383614f9d565b91507f205d7d00000000000000000000000000000000000000000000000000000000006000830152600382019050919050565b6000614522602083614f8c565b91507f4552433732313a206d696e7420746f20746865207a65726f20616464726573736000830152602082019050919050565b6000614562602c83614f8c565b91507f4552433732313a20617070726f76656420717565727920666f72206e6f6e657860008301527f697374656e7420746f6b656e00000000000000000000000000000000000000006020830152604082019050919050565b60006145c8602983614f8c565b91507f4552433732313a207472616e73666572206f6620746f6b656e2074686174206960008301527f73206e6f74206f776e00000000000000000000000000000000000000000000006020830152604082019050919050565b600061462e602183614f8c565b91507f4552433732313a20617070726f76616c20746f2063757272656e74206f776e6560008301527f72000000000000000000000000000000000000000000000000000000000000006020830152604082019050919050565b6000614694601d83614f9d565b91507f646174613a6170706c69636174696f6e2f6a736f6e3b6261736536342c0000006000830152601d82019050919050565b60006146d4602283614f9d565b91507f222c202261747472696275746573223a205b207b20226672657175656e63652260008301527f3a200000000000000000000000000000000000000000000000000000000000006020830152602282019050919050565b600061473a603183614f8c565b91507f4552433732313a207472616e736665722063616c6c6572206973206e6f74206f60008301527f776e6572206e6f7220617070726f7665640000000000000000000000000000006020830152604082019050919050565b60006147a0602c83614f8c565b91507f455243373231456e756d657261626c653a20676c6f62616c20696e646578206f60008301527f7574206f6620626f756e647300000000000000000000000000000000000000006020830152604082019050919050565b600060808301600083015161481160008601826148db565b50602083015184820360208601526148298282613fc2565b915050604083015184820360408601526148438282613fc2565b9150506060830151848203606086015261485d8282613fc2565b9150508091505092915050565b600060808301600083015161488260008601826148db565b506020830151848203602086015261489a8282613fc2565b915050604083015184820360408601526148b48282613fc2565b915050606083015184820360608601526148ce8282613fc2565b9150508091505092915050565b6148e481615131565b82525050565b6148f381615131565b82525050565b600061490482614323565b91506149108288614034565b915061491b82614065565b91506149278287614034565b9150614932826141b1565b915061493e8286614034565b9150614949826146c7565b91506149558285614034565b915061496082614495565b915061496c8284614034565b9150614977826144d5565b91508190509695505050505050565b600061499182614687565b915061499d8284614034565b915081905092915050565b60006020820190506149bd6000830184613e89565b92915050565b60006080820190506149d86000830187613e89565b6149e56020830186613e89565b6149f260408301856148ea565b8181036060830152614a048184613f7a565b905095945050505050565b6000606082019050614a246000830186613e89565b614a3160208301856148ea565b614a3e60408301846148ea565b949350505050565b60006020820190508181036000830152614a608184613e98565b905092915050565b60006020820190508181036000830152614a828184613f0d565b905092915050565b6000602082019050614a9f6000830184613f6b565b92915050565b6000602082019050614aba6000830184613fb3565b92915050565b60006020820190508181036000830152614ada8184613ffb565b905092915050565b60006040820190508181036000830152614afc8185613ffb565b9050614b0b6020830184613e89565b9392505050565b60006080820190508181036000830152614b2c8187613ffb565b90508181036020830152614b408186613ffb565b90508181036040830152614b548185613ffb565b90508181036060830152614b688184613ffb565b905095945050505050565b60006040820190508181036000830152614b8d8185613ffb565b9050614b9c60208301846148ea565b9392505050565b60006060820190508181036000830152614bbd8186613ffb565b9050614bcc60208301856148ea565b614bd960408301846148ea565b949350505050565b60006020820190508181036000830152614bfa816140a5565b9050919050565b60006020820190508181036000830152614c1a8161410b565b9050919050565b60006020820190508181036000830152614c3a81614171565b9050919050565b60006020820190508181036000830152614c5a81614217565b9050919050565b60006020820190508181036000830152614c7a8161427d565b9050919050565b60006020820190508181036000830152614c9a816142bd565b9050919050565b60006020820190508181036000830152614cba81614363565b9050919050565b60006020820190508181036000830152614cda816143c9565b9050919050565b60006020820190508181036000830152614cfa8161442f565b9050919050565b60006020820190508181036000830152614d1a81614515565b9050919050565b60006020820190508181036000830152614d3a81614555565b9050919050565b60006020820190508181036000830152614d5a816145bb565b9050919050565b60006020820190508181036000830152614d7a81614621565b9050919050565b60006020820190508181036000830152614d9a8161472d565b9050919050565b60006020820190508181036000830152614dba81614793565b9050919050565b60006020820190508181036000830152614ddb818461486a565b905092915050565b6000602082019050614df860008301846148ea565b92915050565b6000604082019050614e1360008301856148ea565b614e206020830184613f6b565b9392505050565b6000608082019050614e3c60008301876148ea565b8181036020830152614e4e8186613ffb565b90508181036040830152614e628185613ffb565b90508181036060830152614e768184613ffb565b905095945050505050565b6000604051905081810181811067ffffffffffffffff82111715614ea857614ea76152b6565b5b8060405250919050565b600067ffffffffffffffff821115614ecd57614ecc6152b6565b5b601f19601f8301169050602081019050919050565b6000819050602082019050919050565b6000819050602082019050919050565b600081519050919050565b600081519050919050565b600081519050919050565b600081519050919050565b6000602082019050919050565b6000602082019050919050565b600082825260208201905092915050565b600082825260208201905092915050565b600082825260208201905092915050565b600082825260208201905092915050565b600082825260208201905092915050565b600081905092915050565b6000614fb382615131565b9150614fbe83615131565b9250827fffffffffffffffffffffffffffffffffffffffffffffffffffffffffffffffff03821115614ff357614ff2615229565b5b828201905092915050565b600061500982615131565b915061501483615131565b92508261502457615023615258565b5b828204905092915050565b600061503a82615131565b915061504583615131565b9250817fffffffffffffffffffffffffffffffffffffffffffffffffffffffffffffffff048311821515161561507e5761507d615229565b5b828202905092915050565b600061509482615131565b915061509f83615131565b9250828210156150b2576150b1615229565b5b828203905092915050565b60006150c882615111565b9050919050565b60008115159050919050565b60007fffffffff0000000000000000000000000000000000000000000000000000000082169050919050565b6000819050919050565b600073ffffffffffffffffffffffffffffffffffffffff82169050919050565b6000819050919050565b82818337600083830152505050565b60005b8381101561516857808201518184015260208101905061514d565b83811115615177576000848401525b50505050565b6000600282049050600182168061519557607f821691505b602082108114156151a9576151a8615287565b5b50919050565b60006151ba82615131565b91507fffffffffffffffffffffffffffffffffffffffffffffffffffffffffffffffff8214156151ed576151ec615229565b5b600182019050919050565b600061520382615131565b915061520e83615131565b92508261521e5761521d615258565b5b828206905092915050565b7f4e487b7100000000000000000000000000000000000000000000000000000000600052601160045260246000fd5b7f4e487b7100000000000000000000000000000000000000000000000000000000600052601260045260246000fd5b7f4e487b7100000000000000000000000000000000000000000000000000000000600052602260045260246000fd5b7f4e487b7100000000000000000000000000000000000000000000000000000000600052604160045260246000fd5b6000601f19601f8301169050919050565b6152ff816150bd565b811461530a57600080fd5b50565b615316816150cf565b811461532157600080fd5b50565b61532d816150db565b811461533857600080fd5b50565b61534481615131565b811461534f57600080fd5b5056fe4142434445464748494a4b4c4d4e4f505152535455565758595a6162636465666768696a6b6c6d6e6f707172737475767778797a303132333435363738392b2f4d696e746564204e465420772f20746f6b656e496420257320616e6420636861726163746572496e646578202573a2646970667358221220aac074b7eb28ac61605d348909b88a2ccb9c3c3412b174951ae086c094839e8964736f6c63430008000033",
  "linkReferences": {},
  "deployedLinkReferences": {}
}