{
  "_format": "hh-sol-artifact-1",
  "contractName": "MyEpicGame",
  "sourceName": "contracts/MyEpicGame.sol",
  "abi": [
    {
      "inputs": [
        {
          "internalType": "string[]",
          "name": "boxNames",
          "type": "string[]"
        },
        {
          "internalType": "string[]",
          "name": "boxFrequences",
          "type": "string[]"
        },
        {
          "internalType": "string[]",
          "name": "boxMoods",
          "type": "string[]"
        },
        {
          "internalType": "string[]",
          "name": "boxImageURIs",
          "type": "string[]"
        }
      ],
      "stateMutability": "nonpayable",
      "type": "constructor"
    },
    {
      "anonymous": false,
      "inputs": [
        {
          "indexed": true,
          "internalType": "address",
          "name": "owner",
          "type": "address"
        },
        {
          "indexed": true,
          "internalType": "address",
          "name": "approved",
          "type": "address"
        },
        {
          "indexed": true,
          "internalType": "uint256",
          "name": "tokenId",
          "type": "uint256"
        }
      ],
      "name": "Approval",
      "type": "event"
    },
    {
      "anonymous": false,
      "inputs": [
        {
          "indexed": true,
          "internalType": "address",
          "name": "owner",
          "type": "address"
        },
        {
          "indexed": true,
          "internalType": "address",
          "name": "operator",
          "type": "address"
        },
        {
          "indexed": false,
          "internalType": "bool",
          "name": "approved",
          "type": "bool"
        }
      ],
      "name": "ApprovalForAll",
      "type": "event"
    },
    {
      "anonymous": false,
      "inputs": [
        {
          "indexed": false,
          "internalType": "address",
          "name": "sender",
          "type": "address"
        },
        {
          "indexed": false,
          "internalType": "uint256",
          "name": "tokenId",
          "type": "uint256"
        },
        {
          "indexed": false,
          "internalType": "uint256",
          "name": "boxIndex",
          "type": "uint256"
        }
      ],
      "name": "BoxNFTMinted",
      "type": "event"
    },
    {
      "anonymous": false,
      "inputs": [
        {
          "indexed": false,
          "internalType": "uint256",
          "name": "timestamp",
          "type": "uint256"
        },
        {
          "indexed": false,
          "internalType": "bool",
          "name": "cooldownRespected",
          "type": "bool"
        }
      ],
      "name": "PartyComplete",
      "type": "event"
    },
    {
      "anonymous": false,
      "inputs": [
        {
          "indexed": true,
          "internalType": "address",
          "name": "from",
          "type": "address"
        },
        {
          "indexed": true,
          "internalType": "address",
          "name": "to",
          "type": "address"
        },
        {
          "indexed": true,
          "internalType": "uint256",
          "name": "tokenId",
          "type": "uint256"
        }
      ],
      "name": "Transfer",
      "type": "event"
    },
    {
      "inputs": [
        {
          "internalType": "address",
          "name": "to",
          "type": "address"
        },
        {
          "internalType": "uint256",
          "name": "tokenId",
          "type": "uint256"
        }
      ],
      "name": "approve",
      "outputs": [],
      "stateMutability": "nonpayable",
      "type": "function"
    },
    {
      "inputs": [
        {
          "internalType": "address",
          "name": "owner",
          "type": "address"
        }
      ],
      "name": "balanceOf",
      "outputs": [
        {
          "internalType": "uint256",
          "name": "",
          "type": "uint256"
        }
      ],
      "stateMutability": "view",
      "type": "function"
    },
    {
      "inputs": [
        {
          "internalType": "uint256",
          "name": "tokenId",
          "type": "uint256"
        }
      ],
      "name": "getApproved",
      "outputs": [
        {
          "internalType": "address",
          "name": "",
          "type": "address"
        }
      ],
      "stateMutability": "view",
      "type": "function"
    },
    {
      "inputs": [
        {
          "internalType": "uint256",
          "name": "tokenId",
          "type": "uint256"
        }
      ],
      "name": "getNftHolderAttributes",
      "outputs": [
        {
          "components": [
            {
              "internalType": "uint256",
              "name": "boxIndex",
              "type": "uint256"
            },
            {
              "internalType": "string",
              "name": "frequence",
              "type": "string"
            },
            {
              "internalType": "string",
              "name": "mood",
              "type": "string"
            },
            {
              "internalType": "string",
              "name": "imageURI",
              "type": "string"
            }
          ],
          "internalType": "struct MyEpicGame.BoxAttributes",
          "name": "",
          "type": "tuple"
        }
      ],
      "stateMutability": "view",
      "type": "function"
    },
    {
      "inputs": [
        {
          "internalType": "address",
          "name": "_owner",
          "type": "address"
        }
      ],
      "name": "getTokenIds",
      "outputs": [
        {
          "internalType": "uint256[]",
          "name": "",
          "type": "uint256[]"
        }
      ],
      "stateMutability": "view",
      "type": "function"
    },
    {
      "inputs": [
        {
          "internalType": "uint256",
          "name": "_probatomint",
          "type": "uint256"
        }
      ],
      "name": "hostAParty",
      "outputs": [],
      "stateMutability": "nonpayable",
      "type": "function"
    },
    {
      "inputs": [
        {
          "internalType": "address",
          "name": "owner",
          "type": "address"
        },
        {
          "internalType": "address",
          "name": "operator",
          "type": "address"
        }
      ],
      "name": "isApprovedForAll",
      "outputs": [
        {
          "internalType": "bool",
          "name": "",
          "type": "bool"
        }
      ],
      "stateMutability": "view",
      "type": "function"
    },
    {
      "inputs": [
        {
          "internalType": "address",
          "name": "",
          "type": "address"
        }
      ],
      "name": "lastHostedAt",
      "outputs": [
        {
          "internalType": "uint256",
          "name": "",
          "type": "uint256"
        }
      ],
      "stateMutability": "view",
      "type": "function"
    },
    {
      "inputs": [],
      "name": "name",
      "outputs": [
        {
          "internalType": "string",
          "name": "",
          "type": "string"
        }
      ],
      "stateMutability": "view",
      "type": "function"
    },
    {
      "inputs": [
        {
          "internalType": "uint256",
          "name": "",
          "type": "uint256"
        }
      ],
      "name": "nftHolderAttributes",
      "outputs": [
        {
          "internalType": "uint256",
          "name": "boxIndex",
          "type": "uint256"
        },
        {
          "internalType": "string",
          "name": "frequence",
          "type": "string"
        },
        {
          "internalType": "string",
          "name": "mood",
          "type": "string"
        },
        {
          "internalType": "string",
          "name": "imageURI",
          "type": "string"
        }
      ],
      "stateMutability": "view",
      "type": "function"
    },
    {
      "inputs": [
        {
          "internalType": "uint256",
          "name": "tokenId",
          "type": "uint256"
        }
      ],
      "name": "ownerOf",
      "outputs": [
        {
          "internalType": "address",
          "name": "",
          "type": "address"
        }
      ],
      "stateMutability": "view",
      "type": "function"
    },
    {
      "inputs": [
        {
          "internalType": "address",
          "name": "from",
          "type": "address"
        },
        {
          "internalType": "address",
          "name": "to",
          "type": "address"
        },
        {
          "internalType": "uint256",
          "name": "tokenId",
          "type": "uint256"
        }
      ],
      "name": "safeTransferFrom",
      "outputs": [],
      "stateMutability": "nonpayable",
      "type": "function"
    },
    {
      "inputs": [
        {
          "internalType": "address",
          "name": "from",
          "type": "address"
        },
        {
          "internalType": "address",
          "name": "to",
          "type": "address"
        },
        {
          "internalType": "uint256",
          "name": "tokenId",
          "type": "uint256"
        },
        {
          "internalType": "bytes",
          "name": "_data",
          "type": "bytes"
        }
      ],
      "name": "safeTransferFrom",
      "outputs": [],
      "stateMutability": "nonpayable",
      "type": "function"
    },
    {
      "inputs": [
        {
          "internalType": "address",
          "name": "operator",
          "type": "address"
        },
        {
          "internalType": "bool",
          "name": "approved",
          "type": "bool"
        }
      ],
      "name": "setApprovalForAll",
      "outputs": [],
      "stateMutability": "nonpayable",
      "type": "function"
    },
    {
      "inputs": [
        {
          "internalType": "bytes4",
          "name": "interfaceId",
          "type": "bytes4"
        }
      ],
      "name": "supportsInterface",
      "outputs": [
        {
          "internalType": "bool",
          "name": "",
          "type": "bool"
        }
      ],
      "stateMutability": "view",
      "type": "function"
    },
    {
      "inputs": [],
      "name": "symbol",
      "outputs": [
        {
          "internalType": "string",
          "name": "",
          "type": "string"
        }
      ],
      "stateMutability": "view",
      "type": "function"
    },
    {
      "inputs": [
        {
          "internalType": "uint256",
          "name": "index",
          "type": "uint256"
        }
      ],
      "name": "tokenByIndex",
      "outputs": [
        {
          "internalType": "uint256",
          "name": "",
          "type": "uint256"
        }
      ],
      "stateMutability": "view",
      "type": "function"
    },
    {
      "inputs": [
        {
          "internalType": "address",
          "name": "owner",
          "type": "address"
        },
        {
          "internalType": "uint256",
          "name": "index",
          "type": "uint256"
        }
      ],
      "name": "tokenOfOwnerByIndex",
      "outputs": [
        {
          "internalType": "uint256",
          "name": "",
          "type": "uint256"
        }
      ],
      "stateMutability": "view",
      "type": "function"
    },
    {
      "inputs": [
        {
          "internalType": "uint256",
          "name": "_tokenId",
          "type": "uint256"
        }
      ],
      "name": "tokenURI",
      "outputs": [
        {
          "internalType": "string",
          "name": "",
          "type": "string"
        }
      ],
      "stateMutability": "view",
      "type": "function"
    },
    {
      "inputs": [],
      "name": "totalSupply",
      "outputs": [
        {
          "internalType": "uint256",
          "name": "",
          "type": "uint256"
        }
      ],
      "stateMutability": "view",
      "type": "function"
    },
    {
      "inputs": [
        {
          "internalType": "address",
          "name": "from",
          "type": "address"
        },
        {
          "internalType": "address",
          "name": "to",
          "type": "address"
        },
        {
          "internalType": "uint256",
          "name": "tokenId",
          "type": "uint256"
        }
      ],
      "name": "transferFrom",
      "outputs": [],
      "stateMutability": "nonpayable",
      "type": "function"
    }
  ],
  "bytecode": "0x60806040523480156200001157600080fd5b50604051620054e8380380620054e8833981810160405281019062000037919062000804565b6040518060400160405280600581526020017f426f7865730000000000000000000000000000000000000000000000000000008152506040518060400160405280600381526020017f424f5800000000000000000000000000000000000000000000000000000000008152508160009080519060200190620000bb92919062000650565b508060019080519060200190620000d492919062000650565b50505060005b8451811015620004fe57600d604051806080016040528083815260200186848151811062000131577f4e487b7100000000000000000000000000000000000000000000000000000000600052603260045260246000fd5b6020026020010151815260200185848151811062000178577f4e487b7100000000000000000000000000000000000000000000000000000000600052603260045260246000fd5b60200260200101518152602001848481518110620001bf577f4e487b7100000000000000000000000000000000000000000000000000000000600052603260045260246000fd5b602002602001015181525090806001815401808255809150506001900390600052602060002090600402016000909190919091506000820151816000015560208201518160010190805190602001906200021b92919062000650565b5060408201518160020190805190602001906200023a92919062000650565b5060608201518160030190805190602001906200025992919062000650565b5050506000600d828154811062000299577f4e487b7100000000000000000000000000000000000000000000000000000000600052603260045260246000fd5b906000526020600020906004020160405180608001604052908160008201548152602001600182018054620002ce9062000acd565b80601f0160208091040260200160405190810160405280929190818152602001828054620002fc9062000acd565b80156200034d5780601f1062000321576101008083540402835291602001916200034d565b820191906000526020600020905b8154815290600101906020018083116200032f57829003601f168201915b50505050508152602001600282018054620003689062000acd565b80601f0160208091040260200160405190810160405280929190818152602001828054620003969062000acd565b8015620003e75780601f10620003bb57610100808354040283529160200191620003e7565b820191906000526020600020905b815481529060010190602001808311620003c957829003601f168201915b50505050508152602001600382018054620004029062000acd565b80601f0160208091040260200160405190810160405280929190818152602001828054620004309062000acd565b8015620004815780601f10620004555761010080835404028352916020019162000481565b820191906000526020600020905b8154815290600101906020018083116200046357829003601f168201915b5050505050815250509050620004e66040518060400160405280601f81526020017f446f6e6520696e697469616c697a696e672025732025732c20696d67202573008152508260200151836040015184606001516200056560201b620017a31760201c565b50600181620004f6919062000a30565b9050620000da565b5062000516600a6200061160201b620018451760201c565b6103e8444262000527919062000a30565b62000533919062000b03565b600b81905550600c444262000549919062000a30565b62000555919062000b03565b600c819055505050505062000c08565b6200060b8484848460405160240162000582949392919062000915565b6040516020818303038152906040527fde68f20a000000000000000000000000000000000000000000000000000000007bffffffffffffffffffffffffffffffffffffffffffffffffffffffff19166020820180517bffffffffffffffffffffffffffffffffffffffffffffffffffffffff83818316178352505050506200062760201b60201c565b50505050565b6001816000016000828254019250508190555050565b60008151905060006a636f6e736f6c652e6c6f679050602083016000808483855afa5050505050565b8280546200065e9062000acd565b90600052602060002090601f016020900481019282620006825760008555620006ce565b82601f106200069d57805160ff1916838001178555620006ce565b82800160010185558215620006ce579182015b82811115620006cd578251825591602001919060010190620006b0565b5b509050620006dd9190620006e1565b5090565b5b80821115620006fc576000816000905550600101620006e2565b5090565b6000620007176200071184620009b2565b6200097e565b9050808382526020820190508260005b858110156200075b5781518501620007408882620007d7565b84526020840193506020830192505060018101905062000727565b5050509392505050565b60006200077c6200077684620009e1565b6200097e565b9050828152602081018484840111156200079557600080fd5b620007a284828562000a97565b509392505050565b600082601f830112620007bc57600080fd5b8151620007ce84826020860162000700565b91505092915050565b600082601f830112620007e957600080fd5b8151620007fb84826020860162000765565b91505092915050565b600080600080608085870312156200081b57600080fd5b600085015167ffffffffffffffff8111156200083657600080fd5b6200084487828801620007aa565b945050602085015167ffffffffffffffff8111156200086257600080fd5b6200087087828801620007aa565b935050604085015167ffffffffffffffff8111156200088e57600080fd5b6200089c87828801620007aa565b925050606085015167ffffffffffffffff811115620008ba57600080fd5b620008c887828801620007aa565b91505092959194509250565b6000620008e18262000a14565b620008ed818562000a1f565b9350620008ff81856020860162000a97565b6200090a8162000bf7565b840191505092915050565b60006080820190508181036000830152620009318187620008d4565b90508181036020830152620009478186620008d4565b905081810360408301526200095d8185620008d4565b90508181036060830152620009738184620008d4565b905095945050505050565b6000604051905081810181811067ffffffffffffffff82111715620009a857620009a762000bc8565b5b8060405250919050565b600067ffffffffffffffff821115620009d057620009cf62000bc8565b5b602082029050602081019050919050565b600067ffffffffffffffff821115620009ff57620009fe62000bc8565b5b601f19601f8301169050602081019050919050565b600081519050919050565b600082825260208201905092915050565b600062000a3d8262000a8d565b915062000a4a8362000a8d565b9250827fffffffffffffffffffffffffffffffffffffffffffffffffffffffffffffffff0382111562000a825762000a8162000b3b565b5b828201905092915050565b6000819050919050565b60005b8381101562000ab757808201518184015260208101905062000a9a565b8381111562000ac7576000848401525b50505050565b6000600282049050600182168062000ae657607f821691505b6020821081141562000afd5762000afc62000b99565b5b50919050565b600062000b108262000a8d565b915062000b1d8362000a8d565b92508262000b305762000b2f62000b6a565b5b828206905092915050565b7f4e487b7100000000000000000000000000000000000000000000000000000000600052601160045260246000fd5b7f4e487b7100000000000000000000000000000000000000000000000000000000600052601260045260246000fd5b7f4e487b7100000000000000000000000000000000000000000000000000000000600052602260045260246000fd5b7f4e487b7100000000000000000000000000000000000000000000000000000000600052604160045260246000fd5b6000601f19601f8301169050919050565b6148d08062000c186000396000f3fe608060405234801561001057600080fd5b50600436106101375760003560e01c80636352211e116100b8578063a22cb4651161007c578063a22cb4651461039d578063b88d4fde146103b9578063c87b56dd146103d5578063d004b03614610405578063d55b258814610435578063e985e9c51461045157610137565b80636352211e146102bc57806370a08231146102ec578063776454491461031c57806395d89b411461034c57806398da4c951461036a57610137565b806323b872dd116100ff57806323b872dd146101f45780632f745c5914610210578063350004961461024057806342842e0e146102705780634f6ccce71461028c57610137565b806301ffc9a71461013c57806306fdde031461016c578063081812fc1461018a578063095ea7b3146101ba57806318160ddd146101d6575b600080fd5b610156600480360381019061015191906134a7565b610481565b6040516101639190613ff2565b60405180910390f35b6101746104fb565b604051610181919061400d565b60405180910390f35b6101a4600480360381019061019f91906134f9565b61058d565b6040516101b19190613f32565b60405180910390f35b6101d460048036038101906101cf919061346b565b610612565b005b6101de61072a565b6040516101eb9190614300565b60405180910390f35b61020e60048036038101906102099190613365565b610737565b005b61022a6004803603810190610225919061346b565b610797565b6040516102379190614300565b60405180910390f35b61025a600480360381019061025591906134f9565b61083c565b60405161026791906142de565b60405180910390f35b61028a60048036038101906102859190613365565b610a29565b005b6102a660048036038101906102a191906134f9565b610a49565b6040516102b39190614300565b60405180910390f35b6102d660048036038101906102d191906134f9565b610ae0565b6040516102e39190613f32565b60405180910390f35b61030660048036038101906103019190613300565b610b92565b6040516103139190614300565b60405180910390f35b61033660048036038101906103319190613300565b610c4a565b6040516103439190614300565b60405180910390f35b610354610c62565b604051610361919061400d565b60405180910390f35b610384600480360381019061037f91906134f9565b610cf4565b6040516103949493929190614344565b60405180910390f35b6103b760048036038101906103b2919061342f565b610ebc565b005b6103d360048036038101906103ce91906133b4565b610ed2565b005b6103ef60048036038101906103ea91906134f9565b610f34565b6040516103fc919061400d565b60405180910390f35b61041f600480360381019061041a9190613300565b61118d565b60405161042c9190613fd0565b60405180910390f35b61044f600480360381019061044a91906134f9565b611289565b005b61046b60048036038101906104669190613329565b61170f565b6040516104789190613ff2565b60405180910390f35b60007f780e9d63000000000000000000000000000000000000000000000000000000007bffffffffffffffffffffffffffffffffffffffffffffffffffffffff1916827bffffffffffffffffffffffffffffffffffffffffffffffffffffffff191614806104f457506104f38261185b565b5b9050919050565b60606000805461050a90614657565b80601f016020809104026020016040519081016040528092919081815260200182805461053690614657565b80156105835780601f1061055857610100808354040283529160200191610583565b820191906000526020600020905b81548152906001019060200180831161056657829003601f168201915b5050505050905090565b60006105988261193d565b6105d7576040517f08c379a00000000000000000000000000000000000000000000000000000000081526004016105ce9061423e565b60405180910390fd5b6004600083815260200190815260200160002060009054906101000a900473ffffffffffffffffffffffffffffffffffffffff169050919050565b600061061d82610ae0565b90508073ffffffffffffffffffffffffffffffffffffffff168373ffffffffffffffffffffffffffffffffffffffff16141561068e576040517f08c379a00000000000000000000000000000000000000000000000000000000081526004016106859061427e565b60405180910390fd5b8073ffffffffffffffffffffffffffffffffffffffff166106ad6119a9565b73ffffffffffffffffffffffffffffffffffffffff1614806106dc57506106db816106d66119a9565b61170f565b5b61071b576040517f08c379a0000000000000000000000000000000000000000000000000000000008152600401610712906141be565b60405180910390fd5b61072583836119b1565b505050565b6000600880549050905090565b6107486107426119a9565b82611a6a565b610787576040517f08c379a000000000000000000000000000000000000000000000000000000000815260040161077e9061429e565b60405180910390fd5b610792838383611b48565b505050565b60006107a283610b92565b82106107e3576040517f08c379a00000000000000000000000000000000000000000000000000000000081526004016107da906140fe565b60405180910390fd5b600660008473ffffffffffffffffffffffffffffffffffffffff1673ffffffffffffffffffffffffffffffffffffffff168152602001908152602001600020600083815260200190815260200160002054905092915050565b610844613164565b600f60008381526020019081526020016000206040518060800160405290816000820154815260200160018201805461087c90614657565b80601f01602080910402602001604051908101604052809291908181526020018280546108a890614657565b80156108f55780601f106108ca576101008083540402835291602001916108f5565b820191906000526020600020905b8154815290600101906020018083116108d857829003601f168201915b5050505050815260200160028201805461090e90614657565b80601f016020809104026020016040519081016040528092919081815260200182805461093a90614657565b80156109875780601f1061095c57610100808354040283529160200191610987565b820191906000526020600020905b81548152906001019060200180831161096a57829003601f168201915b505050505081526020016003820180546109a090614657565b80601f01602080910402602001604051908101604052809291908181526020018280546109cc90614657565b8015610a195780601f106109ee57610100808354040283529160200191610a19565b820191906000526020600020905b8154815290600101906020018083116109fc57829003601f168201915b5050505050815250509050919050565b610a4483838360405180602001604052806000815250610ed2565b505050565b6000610a5361072a565b8210610a94576040517f08c379a0000000000000000000000000000000000000000000000000000000008152600401610a8b906142be565b60405180910390fd5b60088281548110610ace577f4e487b7100000000000000000000000000000000000000000000000000000000600052603260045260246000fd5b90600052602060002001549050919050565b6000806002600084815260200190815260200160002060009054906101000a900473ffffffffffffffffffffffffffffffffffffffff169050600073ffffffffffffffffffffffffffffffffffffffff168173ffffffffffffffffffffffffffffffffffffffff161415610b89576040517f08c379a0000000000000000000000000000000000000000000000000000000008152600401610b80906141fe565b60405180910390fd5b80915050919050565b60008073ffffffffffffffffffffffffffffffffffffffff168273ffffffffffffffffffffffffffffffffffffffff161415610c03576040517f08c379a0000000000000000000000000000000000000000000000000000000008152600401610bfa906141de565b60405180910390fd5b600360008373ffffffffffffffffffffffffffffffffffffffff1673ffffffffffffffffffffffffffffffffffffffff168152602001908152602001600020549050919050565b60106020528060005260406000206000915090505481565b606060018054610c7190614657565b80601f0160208091040260200160405190810160405280929190818152602001828054610c9d90614657565b8015610cea5780601f10610cbf57610100808354040283529160200191610cea565b820191906000526020600020905b815481529060010190602001808311610ccd57829003601f168201915b5050505050905090565b600f602052806000526040600020600091509050806000015490806001018054610d1d90614657565b80601f0160208091040260200160405190810160405280929190818152602001828054610d4990614657565b8015610d965780601f10610d6b57610100808354040283529160200191610d96565b820191906000526020600020905b815481529060010190602001808311610d7957829003601f168201915b505050505090806002018054610dab90614657565b80601f0160208091040260200160405190810160405280929190818152602001828054610dd790614657565b8015610e245780601f10610df957610100808354040283529160200191610e24565b820191906000526020600020905b815481529060010190602001808311610e0757829003601f168201915b505050505090806003018054610e3990614657565b80601f0160208091040260200160405190810160405280929190818152602001828054610e6590614657565b8015610eb25780601f10610e8757610100808354040283529160200191610eb2565b820191906000526020600020905b815481529060010190602001808311610e9557829003601f168201915b5050505050905084565b610ece610ec76119a9565b8383611da4565b5050565b610ee3610edd6119a9565b83611a6a565b610f22576040517f08c379a0000000000000000000000000000000000000000000000000000000008152600401610f199061429e565b60405180910390fd5b610f2e84848484611f11565b50505050565b60606000600f600084815260200190815260200160002060405180608001604052908160008201548152602001600182018054610f7090614657565b80601f0160208091040260200160405190810160405280929190818152602001828054610f9c90614657565b8015610fe95780601f10610fbe57610100808354040283529160200191610fe9565b820191906000526020600020905b815481529060010190602001808311610fcc57829003601f168201915b5050505050815260200160028201805461100290614657565b80601f016020809104026020016040519081016040528092919081815260200182805461102e90614657565b801561107b5780601f106110505761010080835404028352916020019161107b565b820191906000526020600020905b81548152906001019060200180831161105e57829003601f168201915b5050505050815260200160038201805461109490614657565b80601f01602080910402602001604051908101604052809291908181526020018280546110c090614657565b801561110d5780601f106110e25761010080835404028352916020019161110d565b820191906000526020600020905b8154815290600101906020018083116110f057829003601f168201915b5050505050815250509050600061115c61112685611f6d565b8360600151846020015185604001516040516020016111489493929190613e9b565b60405160208183030381529060405261211a565b90506000816040516020016111719190613f10565b6040516020818303038152906040529050809350505050919050565b6060600061119a83610b92565b67ffffffffffffffff8111156111d9577f4e487b7100000000000000000000000000000000000000000000000000000000600052604160045260246000fd5b6040519080825280602002602001820160405280156112075781602001602082028036833780820191505090505b50905060005b61121684610b92565b81101561127f576112278482610797565b828281518110611260577f4e487b7100000000000000000000000000000000000000000000000000000000600052603260045260246000fd5b602002602001018181525050808061127790614689565b91505061120d565b8192505050919050565b600060019050600080600e61129d33610b92565b116112b2576112ab33610b92565b91506112b7565b600e91505b60286010836112c69190614513565b6112d0919061448c565b90506113116040518060400160405280600f81526020017f757365724e6674436f756e74203a200000000000000000000000000000000000815250836122d8565b6113506040518060400160405280600e81526020017f70726f6261746f6d696e74203a20000000000000000000000000000000000000815250856122d8565b61138f6040518060400160405280600b81526020017f6d617850726f6261203a20000000000000000000000000000000000000000000815250826122d8565b4262015180601060003373ffffffffffffffffffffffffffffffffffffffff1673ffffffffffffffffffffffffffffffffffffffff168152602001908152602001600020546113de919061448c565b109250600192508280156113f157508084105b1561168d5742601060003373ffffffffffffffffffffffffffffffffffffffff1673ffffffffffffffffffffffffffffffffffffffff16815260200190815260200160002081905550600e60405180604001604052803373ffffffffffffffffffffffffffffffffffffffff16815260200142815250908060018154018082558091505060019003906000526020600020906002020160009091909190915060008201518160000160006101000a81548173ffffffffffffffffffffffffffffffffffffffff021916908373ffffffffffffffffffffffffffffffffffffffff1602179055506020820151816001015550506103e8600b5442446114f5919061448c565b6114ff919061448c565b61150991906146d2565b600b81905550600c8054424461151f919061448c565b611529919061448c565b61153391906146d2565b600c8190555061010584141561158c5761154d600c612374565b61158b6040518060400160405280601081526020017f6d696e7465642066756c6c74656b6e6f00000000000000000000000000000000815250612709565b5b6101068414156115df576115a0600d612374565b6115de6040518060400160405280600e81526020017f6d696e7465642066756c6c647562000000000000000000000000000000000000815250612709565b5b610107841415611632576115f3600e612374565b6116316040518060400160405280601181526020017f6d696e7465642066756c6c6a756e676c65000000000000000000000000000000815250612709565b5b600b54600b54141561168857611649600c54612374565b6116876040518060400160405280600681526020017f6d696e7465640000000000000000000000000000000000000000000000000000815250612709565b5b6116d0565b600092506116cf6040518060400160405280600a81526020017f7761697420612062697400000000000000000000000000000000000000000000815250612709565b5b7fec8d2654655f3777bf009dab252f6bf35af3788e3be6ca82bf9e8ceb99186a77428460405161170192919061431b565b60405180910390a150505050565b6000600560008473ffffffffffffffffffffffffffffffffffffffff1673ffffffffffffffffffffffffffffffffffffffff16815260200190815260200160002060008373ffffffffffffffffffffffffffffffffffffffff1673ffffffffffffffffffffffffffffffffffffffff16815260200190815260200160002060009054906101000a900460ff16905092915050565b61183f848484846040516024016117bd949392919061402f565b6040516020818303038152906040527fde68f20a000000000000000000000000000000000000000000000000000000007bffffffffffffffffffffffffffffffffffffffffffffffffffffffff19166020820180517bffffffffffffffffffffffffffffffffffffffffffffffffffffffff83818316178352505050506127a2565b50505050565b6001816000016000828254019250508190555050565b60007f80ac58cd000000000000000000000000000000000000000000000000000000007bffffffffffffffffffffffffffffffffffffffffffffffffffffffff1916827bffffffffffffffffffffffffffffffffffffffffffffffffffffffff1916148061192657507f5b5e139f000000000000000000000000000000000000000000000000000000007bffffffffffffffffffffffffffffffffffffffffffffffffffffffff1916827bffffffffffffffffffffffffffffffffffffffffffffffffffffffff1916145b806119365750611935826127cb565b5b9050919050565b60008073ffffffffffffffffffffffffffffffffffffffff166002600084815260200190815260200160002060009054906101000a900473ffffffffffffffffffffffffffffffffffffffff1673ffffffffffffffffffffffffffffffffffffffff1614159050919050565b600033905090565b816004600083815260200190815260200160002060006101000a81548173ffffffffffffffffffffffffffffffffffffffff021916908373ffffffffffffffffffffffffffffffffffffffff160217905550808273ffffffffffffffffffffffffffffffffffffffff16611a2483610ae0565b73ffffffffffffffffffffffffffffffffffffffff167f8c5be1e5ebec7d5bd14f71427d1e84f3dd0314c0f7b2291e5b200ac8c7c3b92560405160405180910390a45050565b6000611a758261193d565b611ab4576040517f08c379a0000000000000000000000000000000000000000000000000000000008152600401611aab9061419e565b60405180910390fd5b6000611abf83610ae0565b90508073ffffffffffffffffffffffffffffffffffffffff168473ffffffffffffffffffffffffffffffffffffffff161480611b2e57508373ffffffffffffffffffffffffffffffffffffffff16611b168461058d565b73ffffffffffffffffffffffffffffffffffffffff16145b80611b3f5750611b3e818561170f565b5b91505092915050565b8273ffffffffffffffffffffffffffffffffffffffff16611b6882610ae0565b73ffffffffffffffffffffffffffffffffffffffff1614611bbe576040517f08c379a0000000000000000000000000000000000000000000000000000000008152600401611bb59061425e565b60405180910390fd5b600073ffffffffffffffffffffffffffffffffffffffff168273ffffffffffffffffffffffffffffffffffffffff161415611c2e576040517f08c379a0000000000000000000000000000000000000000000000000000000008152600401611c259061415e565b60405180910390fd5b611c39838383612835565b611c446000826119b1565b6001600360008573ffffffffffffffffffffffffffffffffffffffff1673ffffffffffffffffffffffffffffffffffffffff1681526020019081526020016000206000828254611c94919061456d565b925050819055506001600360008473ffffffffffffffffffffffffffffffffffffffff1673ffffffffffffffffffffffffffffffffffffffff1681526020019081526020016000206000828254611ceb919061448c565b92505081905550816002600083815260200190815260200160002060006101000a81548173ffffffffffffffffffffffffffffffffffffffff021916908373ffffffffffffffffffffffffffffffffffffffff160217905550808273ffffffffffffffffffffffffffffffffffffffff168473ffffffffffffffffffffffffffffffffffffffff167fddf252ad1be2c89b69c2b068fc378daa952ba7f163c4a11628f55a4df523b3ef60405160405180910390a4505050565b8173ffffffffffffffffffffffffffffffffffffffff168373ffffffffffffffffffffffffffffffffffffffff161415611e13576040517f08c379a0000000000000000000000000000000000000000000000000000000008152600401611e0a9061417e565b60405180910390fd5b80600560008573ffffffffffffffffffffffffffffffffffffffff1673ffffffffffffffffffffffffffffffffffffffff16815260200190815260200160002060008473ffffffffffffffffffffffffffffffffffffffff1673ffffffffffffffffffffffffffffffffffffffff16815260200190815260200160002060006101000a81548160ff0219169083151502179055508173ffffffffffffffffffffffffffffffffffffffff168373ffffffffffffffffffffffffffffffffffffffff167f17307eab39ab6107e8899845ad3d59bd9653f200f220920489ca2b5937696c3183604051611f049190613ff2565b60405180910390a3505050565b611f1c848484611b48565b611f2884848484612949565b611f67576040517f08c379a0000000000000000000000000000000000000000000000000000000008152600401611f5e9061411e565b60405180910390fd5b50505050565b60606000821415611fb5576040518060400160405280600181526020017f30000000000000000000000000000000000000000000000000000000000000008152509050612115565b600082905060005b60008214611fe7578080611fd090614689565b915050600a82611fe091906144e2565b9150611fbd565b60008167ffffffffffffffff811115612029577f4e487b7100000000000000000000000000000000000000000000000000000000600052604160045260246000fd5b6040519080825280601f01601f19166020018201604052801561205b5781602001600182028036833780820191505090505b5090505b6000851461210e57600182612074919061456d565b9150600a8561208391906146d2565b603061208f919061448c565b60f81b8183815181106120cb577f4e487b7100000000000000000000000000000000000000000000000000000000600052603260045260246000fd5b60200101907effffffffffffffffffffffffffffffffffffffffffffffffffffffffffffff1916908160001a905350600a8561210791906144e2565b945061205f565b8093505050505b919050565b6060600082519050600081141561214357604051806020016040528060008152509150506122d3565b60006003600283612154919061448c565b61215e91906144e2565b600461216a9190614513565b9050600060208261217b919061448c565b67ffffffffffffffff8111156121ba577f4e487b7100000000000000000000000000000000000000000000000000000000600052604160045260246000fd5b6040519080825280601f01601f1916602001820160405280156121ec5781602001600182028036833780820191505090505b509050600060405180606001604052806040815260200161482d604091399050600181016020830160005b868110156122905760038101905062ffffff818a015116603f8160121c168401518060081b905060ff603f83600c1c1686015116810190508060081b905060ff603f8360061c1686015116810190508060081b905060ff603f831686015116810190508060e01b90508084526004840193505050612217565b5060038606600181146122aa57600281146122ba576122c5565b613d3d60f01b60028303526122c5565b603d60f81b60018303525b508484525050819450505050505b919050565b61237082826040516024016122ee929190614090565b6040516020818303038152906040527f9710a9d0000000000000000000000000000000000000000000000000000000007bffffffffffffffffffffffffffffffffffffffffffffffffffffffff19166020820180517bffffffffffffffffffffffffffffffffffffffffffffffffffffffff83818316178352505050506127a2565b5050565b6000612380600a612ae0565b905061238c3382612aee565b6040518060800160405280838152602001600d84815481106123d7577f4e487b7100000000000000000000000000000000000000000000000000000000600052603260045260246000fd5b906000526020600020906004020160010180546123f390614657565b80601f016020809104026020016040519081016040528092919081815260200182805461241f90614657565b801561246c5780601f106124415761010080835404028352916020019161246c565b820191906000526020600020905b81548152906001019060200180831161244f57829003601f168201915b50505050508152602001600d84815481106124b0577f4e487b7100000000000000000000000000000000000000000000000000000000600052603260045260246000fd5b906000526020600020906004020160020180546124cc90614657565b80601f01602080910402602001604051908101604052809291908181526020018280546124f890614657565b80156125455780601f1061251a57610100808354040283529160200191612545565b820191906000526020600020905b81548152906001019060200180831161252857829003601f168201915b50505050508152602001600d8481548110612589577f4e487b7100000000000000000000000000000000000000000000000000000000600052603260045260246000fd5b906000526020600020906004020160030180546125a590614657565b80601f01602080910402602001604051908101604052809291908181526020018280546125d190614657565b801561261e5780601f106125f35761010080835404028352916020019161261e565b820191906000526020600020905b81548152906001019060200180831161260157829003601f168201915b5050505050815250600f600083815260200190815260200160002060008201518160000155602082015181600101908051906020019061265f92919061318c565b50604082015181600201908051906020019061267c92919061318c565b50606082015181600301908051906020019061269992919061318c565b509050506126c06040518060600160405280602e815260200161486d602e91398284612b0c565b6126ca600a611845565b7f75c6f6a1a201a7a14934962d50cb5d3af5dd75266af121eba66d337d2e985fea3382846040516126fd93929190613f99565b60405180910390a15050565b61279f8160405160240161271d919061400d565b6040516020818303038152906040527f41304fac000000000000000000000000000000000000000000000000000000007bffffffffffffffffffffffffffffffffffffffffffffffffffffffff19166020820180517bffffffffffffffffffffffffffffffffffffffffffffffffffffffff83818316178352505050506127a2565b50565b60008151905060006a636f6e736f6c652e6c6f679050602083016000808483855afa5050505050565b60007f01ffc9a7000000000000000000000000000000000000000000000000000000007bffffffffffffffffffffffffffffffffffffffffffffffffffffffff1916827bffffffffffffffffffffffffffffffffffffffffffffffffffffffff1916149050919050565b612840838383612bab565b600073ffffffffffffffffffffffffffffffffffffffff168373ffffffffffffffffffffffffffffffffffffffff1614156128835761287e81612bb0565b6128c2565b8173ffffffffffffffffffffffffffffffffffffffff168373ffffffffffffffffffffffffffffffffffffffff16146128c1576128c08382612bf9565b5b5b600073ffffffffffffffffffffffffffffffffffffffff168273ffffffffffffffffffffffffffffffffffffffff1614156129055761290081612d66565b612944565b8273ffffffffffffffffffffffffffffffffffffffff168273ffffffffffffffffffffffffffffffffffffffff1614612943576129428282612ea9565b5b5b505050565b600061296a8473ffffffffffffffffffffffffffffffffffffffff16612f28565b15612ad3578373ffffffffffffffffffffffffffffffffffffffff1663150b7a026129936119a9565b8786866040518563ffffffff1660e01b81526004016129b59493929190613f4d565b602060405180830381600087803b1580156129cf57600080fd5b505af1925050508015612a0057506040513d601f19601f820116820180604052508101906129fd91906134d0565b60015b612a83573d8060008114612a30576040519150601f19603f3d011682016040523d82523d6000602084013e612a35565b606091505b50600081511415612a7b576040517f08c379a0000000000000000000000000000000000000000000000000000000008152600401612a729061411e565b60405180910390fd5b805181602001fd5b63150b7a0260e01b7bffffffffffffffffffffffffffffffffffffffffffffffffffffffff1916817bffffffffffffffffffffffffffffffffffffffffffffffffffffffff191614915050612ad8565b600190505b949350505050565b600081600001549050919050565b612b08828260405180602001604052806000815250612f3b565b5050565b612ba6838383604051602401612b24939291906140c0565b6040516020818303038152906040527f969cdd03000000000000000000000000000000000000000000000000000000007bffffffffffffffffffffffffffffffffffffffffffffffffffffffff19166020820180517bffffffffffffffffffffffffffffffffffffffffffffffffffffffff83818316178352505050506127a2565b505050565b505050565b6008805490506009600083815260200190815260200160002081905550600881908060018154018082558091505060019003906000526020600020016000909190919091505550565b60006001612c0684610b92565b612c10919061456d565b9050600060076000848152602001908152602001600020549050818114612cf5576000600660008673ffffffffffffffffffffffffffffffffffffffff1673ffffffffffffffffffffffffffffffffffffffff168152602001908152602001600020600084815260200190815260200160002054905080600660008773ffffffffffffffffffffffffffffffffffffffff1673ffffffffffffffffffffffffffffffffffffffff168152602001908152602001600020600084815260200190815260200160002081905550816007600083815260200190815260200160002081905550505b6007600084815260200190815260200160002060009055600660008573ffffffffffffffffffffffffffffffffffffffff1673ffffffffffffffffffffffffffffffffffffffff16815260200190815260200160002060008381526020019081526020016000206000905550505050565b60006001600880549050612d7a919061456d565b9050600060096000848152602001908152602001600020549050600060088381548110612dd0577f4e487b7100000000000000000000000000000000000000000000000000000000600052603260045260246000fd5b906000526020600020015490508060088381548110612e18577f4e487b7100000000000000000000000000000000000000000000000000000000600052603260045260246000fd5b906000526020600020018190555081600960008381526020019081526020016000208190555060096000858152602001908152602001600020600090556008805480612e8d577f4e487b7100000000000000000000000000000000000000000000000000000000600052603160045260246000fd5b6001900381819060005260206000200160009055905550505050565b6000612eb483610b92565b905081600660008573ffffffffffffffffffffffffffffffffffffffff1673ffffffffffffffffffffffffffffffffffffffff168152602001908152602001600020600083815260200190815260200160002081905550806007600084815260200190815260200160002081905550505050565b600080823b905060008111915050919050565b612f458383612f96565b612f526000848484612949565b612f91576040517f08c379a0000000000000000000000000000000000000000000000000000000008152600401612f889061411e565b60405180910390fd5b505050565b600073ffffffffffffffffffffffffffffffffffffffff168273ffffffffffffffffffffffffffffffffffffffff161415613006576040517f08c379a0000000000000000000000000000000000000000000000000000000008152600401612ffd9061421e565b60405180910390fd5b61300f8161193d565b1561304f576040517f08c379a00000000000000000000000000000000000000000000000000000000081526004016130469061413e565b60405180910390fd5b61305b60008383612835565b6001600360008473ffffffffffffffffffffffffffffffffffffffff1673ffffffffffffffffffffffffffffffffffffffff16815260200190815260200160002060008282546130ab919061448c565b92505081905550816002600083815260200190815260200160002060006101000a81548173ffffffffffffffffffffffffffffffffffffffff021916908373ffffffffffffffffffffffffffffffffffffffff160217905550808273ffffffffffffffffffffffffffffffffffffffff16600073ffffffffffffffffffffffffffffffffffffffff167fddf252ad1be2c89b69c2b068fc378daa952ba7f163c4a11628f55a4df523b3ef60405160405180910390a45050565b6040518060800160405280600081526020016060815260200160608152602001606081525090565b82805461319890614657565b90600052602060002090601f0160209004810192826131ba5760008555613201565b82601f106131d357805160ff1916838001178555613201565b82800160010185558215613201579182015b828111156132005782518255916020019190600101906131e5565b5b50905061320e9190613212565b5090565b5b8082111561322b576000816000905550600101613213565b5090565b600061324261323d846143cf565b61439e565b90508281526020810184848401111561325a57600080fd5b613265848285614615565b509392505050565b60008135905061327c816147d0565b92915050565b600081359050613291816147e7565b92915050565b6000813590506132a6816147fe565b92915050565b6000815190506132bb816147fe565b92915050565b600082601f8301126132d257600080fd5b81356132e284826020860161322f565b91505092915050565b6000813590506132fa81614815565b92915050565b60006020828403121561331257600080fd5b60006133208482850161326d565b91505092915050565b6000806040838503121561333c57600080fd5b600061334a8582860161326d565b925050602061335b8582860161326d565b9150509250929050565b60008060006060848603121561337a57600080fd5b60006133888682870161326d565b93505060206133998682870161326d565b92505060406133aa868287016132eb565b9150509250925092565b600080600080608085870312156133ca57600080fd5b60006133d88782880161326d565b94505060206133e98782880161326d565b93505060406133fa878288016132eb565b925050606085013567ffffffffffffffff81111561341757600080fd5b613423878288016132c1565b91505092959194509250565b6000806040838503121561344257600080fd5b60006134508582860161326d565b925050602061346185828601613282565b9150509250929050565b6000806040838503121561347e57600080fd5b600061348c8582860161326d565b925050602061349d858286016132eb565b9150509250929050565b6000602082840312156134b957600080fd5b60006134c784828501613297565b91505092915050565b6000602082840312156134e257600080fd5b60006134f0848285016132ac565b91505092915050565b60006020828403121561350b57600080fd5b6000613519848285016132eb565b91505092915050565b600061352e8383613e7d565b60208301905092915050565b613543816145a1565b82525050565b60006135548261440f565b61355e818561443d565b9350613569836143ff565b8060005b8381101561359a5781516135818882613522565b975061358c83614430565b92505060018101905061356d565b5085935050505092915050565b6135b0816145b3565b82525050565b60006135c18261441a565b6135cb818561444e565b93506135db818560208601614624565b6135e4816147bf565b840191505092915050565b60006135fa82614425565b613604818561445f565b9350613614818560208601614624565b61361d816147bf565b840191505092915050565b600061363382614425565b61363d8185614470565b935061364d818560208601614624565b613656816147bf565b840191505092915050565b600061366c82614425565b6136768185614481565b9350613686818560208601614624565b80840191505092915050565b600061369f600583614481565b91507f227d205d7d0000000000000000000000000000000000000000000000000000006000830152600582019050919050565b60006136df602b83614470565b91507f455243373231456e756d657261626c653a206f776e657220696e646578206f7560008301527f74206f6620626f756e64730000000000000000000000000000000000000000006020830152604082019050919050565b6000613745603283614470565b91507f4552433732313a207472616e7366657220746f206e6f6e20455243373231526560008301527f63656976657220696d706c656d656e74657200000000000000000000000000006020830152604082019050919050565b60006137ab601c83614470565b91507f4552433732313a20746f6b656e20616c7265616479206d696e746564000000006000830152602082019050919050565b60006137eb603883614481565b91507f222c20226465736372697074696f6e223a20224120736f756e6473797374656d60008301527f20626f78222c2022696d616765223a2022697066733a2f2f00000000000000006020830152603882019050919050565b6000613851602483614470565b91507f4552433732313a207472616e7366657220746f20746865207a65726f2061646460008301527f72657373000000000000000000000000000000000000000000000000000000006020830152604082019050919050565b60006138b7601983614470565b91507f4552433732313a20617070726f766520746f2063616c6c6572000000000000006000830152602082019050919050565b60006138f7602c83614470565b91507f4552433732313a206f70657261746f7220717565727920666f72206e6f6e657860008301527f697374656e7420746f6b656e00000000000000000000000000000000000000006020830152604082019050919050565b600061395d603883614470565b91507f4552433732313a20617070726f76652063616c6c6572206973206e6f74206f7760008301527f6e6572206e6f7220617070726f76656420666f7220616c6c00000000000000006020830152604082019050919050565b60006139c3602a83614470565b91507f4552433732313a2062616c616e636520717565727920666f7220746865207a6560008301527f726f2061646472657373000000000000000000000000000000000000000000006020830152604082019050919050565b6000613a29602983614470565b91507f4552433732313a206f776e657220717565727920666f72206e6f6e657869737460008301527f656e7420746f6b656e00000000000000000000000000000000000000000000006020830152604082019050919050565b6000613a8f603a83614481565b91507f222c202261747472696275746573223a205b207b202274726169745f7479706560008301527f223a20226672657175656e6365222c202276616c7565223a20220000000000006020830152603a82019050919050565b6000613af5602083614470565b91507f4552433732313a206d696e7420746f20746865207a65726f20616464726573736000830152602082019050919050565b6000613b35602c83614470565b91507f4552433732313a20617070726f76656420717565727920666f72206e6f6e657860008301527f697374656e7420746f6b656e00000000000000000000000000000000000000006020830152604082019050919050565b6000613b9b602983614470565b91507f4552433732313a207472616e73666572206f6620746f6b656e2074686174206960008301527f73206e6f74206f776e00000000000000000000000000000000000000000000006020830152604082019050919050565b6000613c01602683614481565b91507f227d2c207b202274726169745f74797065223a20226d6f6f64222c202276616c60008301527f7565223a202200000000000000000000000000000000000000000000000000006020830152602682019050919050565b6000613c67602183614470565b91507f4552433732313a20617070726f76616c20746f2063757272656e74206f776e6560008301527f72000000000000000000000000000000000000000000000000000000000000006020830152604082019050919050565b6000613ccd601d83614481565b91507f7b226e616d65223a20222043727970746f536f6e6f734e465420233a200000006000830152601d82019050919050565b6000613d0d601d83614481565b91507f646174613a6170706c69636174696f6e2f6a736f6e3b6261736536342c0000006000830152601d82019050919050565b6000613d4d603183614470565b91507f4552433732313a207472616e736665722063616c6c6572206973206e6f74206f60008301527f776e6572206e6f7220617070726f7665640000000000000000000000000000006020830152604082019050919050565b6000613db3602c83614470565b91507f455243373231456e756d657261626c653a20676c6f62616c20696e646578206f60008301527f7574206f6620626f756e647300000000000000000000000000000000000000006020830152604082019050919050565b6000608083016000830151613e246000860182613e7d565b5060208301518482036020860152613e3c82826135ef565b91505060408301518482036040860152613e5682826135ef565b91505060608301518482036060860152613e7082826135ef565b9150508091505092915050565b613e868161460b565b82525050565b613e958161460b565b82525050565b6000613ea682613cc0565b9150613eb28287613661565b9150613ebd826137de565b9150613ec98286613661565b9150613ed482613a82565b9150613ee08285613661565b9150613eeb82613bf4565b9150613ef78284613661565b9150613f0282613692565b915081905095945050505050565b6000613f1b82613d00565b9150613f278284613661565b915081905092915050565b6000602082019050613f47600083018461353a565b92915050565b6000608082019050613f62600083018761353a565b613f6f602083018661353a565b613f7c6040830185613e8c565b8181036060830152613f8e81846135b6565b905095945050505050565b6000606082019050613fae600083018661353a565b613fbb6020830185613e8c565b613fc86040830184613e8c565b949350505050565b60006020820190508181036000830152613fea8184613549565b905092915050565b600060208201905061400760008301846135a7565b92915050565b600060208201905081810360008301526140278184613628565b905092915050565b600060808201905081810360008301526140498187613628565b9050818103602083015261405d8186613628565b905081810360408301526140718185613628565b905081810360608301526140858184613628565b905095945050505050565b600060408201905081810360008301526140aa8185613628565b90506140b96020830184613e8c565b9392505050565b600060608201905081810360008301526140da8186613628565b90506140e96020830185613e8c565b6140f66040830184613e8c565b949350505050565b60006020820190508181036000830152614117816136d2565b9050919050565b6000602082019050818103600083015261413781613738565b9050919050565b600060208201905081810360008301526141578161379e565b9050919050565b6000602082019050818103600083015261417781613844565b9050919050565b60006020820190508181036000830152614197816138aa565b9050919050565b600060208201905081810360008301526141b7816138ea565b9050919050565b600060208201905081810360008301526141d781613950565b9050919050565b600060208201905081810360008301526141f7816139b6565b9050919050565b6000602082019050818103600083015261421781613a1c565b9050919050565b6000602082019050818103600083015261423781613ae8565b9050919050565b6000602082019050818103600083015261425781613b28565b9050919050565b6000602082019050818103600083015261427781613b8e565b9050919050565b6000602082019050818103600083015261429781613c5a565b9050919050565b600060208201905081810360008301526142b781613d40565b9050919050565b600060208201905081810360008301526142d781613da6565b9050919050565b600060208201905081810360008301526142f88184613e0c565b905092915050565b60006020820190506143156000830184613e8c565b92915050565b60006040820190506143306000830185613e8c565b61433d60208301846135a7565b9392505050565b60006080820190506143596000830187613e8c565b818103602083015261436b8186613628565b9050818103604083015261437f8185613628565b905081810360608301526143938184613628565b905095945050505050565b6000604051905081810181811067ffffffffffffffff821117156143c5576143c4614790565b5b8060405250919050565b600067ffffffffffffffff8211156143ea576143e9614790565b5b601f19601f8301169050602081019050919050565b6000819050602082019050919050565b600081519050919050565b600081519050919050565b600081519050919050565b6000602082019050919050565b600082825260208201905092915050565b600082825260208201905092915050565b600082825260208201905092915050565b600082825260208201905092915050565b600081905092915050565b60006144978261460b565b91506144a28361460b565b9250827fffffffffffffffffffffffffffffffffffffffffffffffffffffffffffffffff038211156144d7576144d6614703565b5b828201905092915050565b60006144ed8261460b565b91506144f88361460b565b92508261450857614507614732565b5b828204905092915050565b600061451e8261460b565b91506145298361460b565b9250817fffffffffffffffffffffffffffffffffffffffffffffffffffffffffffffffff048311821515161561456257614561614703565b5b828202905092915050565b60006145788261460b565b91506145838361460b565b92508282101561459657614595614703565b5b828203905092915050565b60006145ac826145eb565b9050919050565b60008115159050919050565b60007fffffffff0000000000000000000000000000000000000000000000000000000082169050919050565b600073ffffffffffffffffffffffffffffffffffffffff82169050919050565b6000819050919050565b82818337600083830152505050565b60005b83811015614642578082015181840152602081019050614627565b83811115614651576000848401525b50505050565b6000600282049050600182168061466f57607f821691505b6020821081141561468357614682614761565b5b50919050565b60006146948261460b565b91507fffffffffffffffffffffffffffffffffffffffffffffffffffffffffffffffff8214156146c7576146c6614703565b5b600182019050919050565b60006146dd8261460b565b91506146e88361460b565b9250826146f8576146f7614732565b5b828206905092915050565b7f4e487b7100000000000000000000000000000000000000000000000000000000600052601160045260246000fd5b7f4e487b7100000000000000000000000000000000000000000000000000000000600052601260045260246000fd5b7f4e487b7100000000000000000000000000000000000000000000000000000000600052602260045260246000fd5b7f4e487b7100000000000000000000000000000000000000000000000000000000600052604160045260246000fd5b6000601f19601f8301169050919050565b6147d9816145a1565b81146147e457600080fd5b50565b6147f0816145b3565b81146147fb57600080fd5b50565b614807816145bf565b811461481257600080fd5b50565b61481e8161460b565b811461482957600080fd5b5056fe4142434445464748494a4b4c4d4e4f505152535455565758595a6162636465666768696a6b6c6d6e6f707172737475767778797a303132333435363738392b2f4d696e746564204e465420772f20746f6b656e496420257320616e6420636861726163746572496e646578202573a2646970667358221220b237c6f2c8c97b1413774b85ac97a0f02a8ba2e17d9325e3dbd4f4aa0fc5382164736f6c63430008000033",
  "linkReferences": {},
  "deployedLinkReferences": {}
}