{
  "_format": "hh-sol-artifact-1",
  "contractName": "MyEpicGame",
  "sourceName": "contracts/MyEpicGame.sol",
  "abi": [
    {
      "inputs": [
        {
          "internalType": "string[]",
          "name": "boxNames",
          "type": "string[]"
        },
        {
          "internalType": "string[]",
          "name": "boxFrequences",
          "type": "string[]"
        },
        {
          "internalType": "string[]",
          "name": "boxMoods",
          "type": "string[]"
        },
        {
          "internalType": "string[]",
          "name": "boxImageURIs",
          "type": "string[]"
        }
      ],
      "stateMutability": "nonpayable",
      "type": "constructor"
    },
    {
      "anonymous": false,
      "inputs": [
        {
          "indexed": true,
          "internalType": "address",
          "name": "owner",
          "type": "address"
        },
        {
          "indexed": true,
          "internalType": "address",
          "name": "approved",
          "type": "address"
        },
        {
          "indexed": true,
          "internalType": "uint256",
          "name": "tokenId",
          "type": "uint256"
        }
      ],
      "name": "Approval",
      "type": "event"
    },
    {
      "anonymous": false,
      "inputs": [
        {
          "indexed": true,
          "internalType": "address",
          "name": "owner",
          "type": "address"
        },
        {
          "indexed": true,
          "internalType": "address",
          "name": "operator",
          "type": "address"
        },
        {
          "indexed": false,
          "internalType": "bool",
          "name": "approved",
          "type": "bool"
        }
      ],
      "name": "ApprovalForAll",
      "type": "event"
    },
    {
      "anonymous": false,
      "inputs": [
        {
          "indexed": false,
          "internalType": "address",
          "name": "sender",
          "type": "address"
        },
        {
          "indexed": false,
          "internalType": "uint256",
          "name": "tokenId",
          "type": "uint256"
        },
        {
          "indexed": false,
          "internalType": "uint256",
          "name": "boxIndex",
          "type": "uint256"
        }
      ],
      "name": "BoxNFTMinted",
      "type": "event"
    },
    {
      "anonymous": false,
      "inputs": [
        {
          "indexed": false,
          "internalType": "uint256",
          "name": "timestamp",
          "type": "uint256"
        },
        {
          "indexed": false,
          "internalType": "bool",
          "name": "cooldownRespected",
          "type": "bool"
        }
      ],
      "name": "PartyComplete",
      "type": "event"
    },
    {
      "anonymous": false,
      "inputs": [
        {
          "indexed": true,
          "internalType": "address",
          "name": "from",
          "type": "address"
        },
        {
          "indexed": true,
          "internalType": "address",
          "name": "to",
          "type": "address"
        },
        {
          "indexed": true,
          "internalType": "uint256",
          "name": "tokenId",
          "type": "uint256"
        }
      ],
      "name": "Transfer",
      "type": "event"
    },
    {
      "inputs": [
        {
          "internalType": "address",
          "name": "to",
          "type": "address"
        },
        {
          "internalType": "uint256",
          "name": "tokenId",
          "type": "uint256"
        }
      ],
      "name": "approve",
      "outputs": [],
      "stateMutability": "nonpayable",
      "type": "function"
    },
    {
      "inputs": [
        {
          "internalType": "address",
          "name": "owner",
          "type": "address"
        }
      ],
      "name": "balanceOf",
      "outputs": [
        {
          "internalType": "uint256",
          "name": "",
          "type": "uint256"
        }
      ],
      "stateMutability": "view",
      "type": "function"
    },
    {
      "inputs": [],
      "name": "checkIfUserHasNFT",
      "outputs": [
        {
          "components": [
            {
              "internalType": "uint256",
              "name": "boxIndex",
              "type": "uint256"
            },
            {
              "internalType": "string",
              "name": "frequence",
              "type": "string"
            },
            {
              "internalType": "string",
              "name": "mood",
              "type": "string"
            },
            {
              "internalType": "string",
              "name": "imageURI",
              "type": "string"
            }
          ],
          "internalType": "struct MyEpicGame.BoxAttributes",
          "name": "",
          "type": "tuple"
        }
      ],
      "stateMutability": "view",
      "type": "function"
    },
    {
      "inputs": [],
      "name": "getAllDefaultBoxes",
      "outputs": [
        {
          "components": [
            {
              "internalType": "uint256",
              "name": "boxIndex",
              "type": "uint256"
            },
            {
              "internalType": "string",
              "name": "frequence",
              "type": "string"
            },
            {
              "internalType": "string",
              "name": "mood",
              "type": "string"
            },
            {
              "internalType": "string",
              "name": "imageURI",
              "type": "string"
            }
          ],
          "internalType": "struct MyEpicGame.BoxAttributes[]",
          "name": "",
          "type": "tuple[]"
        }
      ],
      "stateMutability": "view",
      "type": "function"
    },
    {
      "inputs": [
        {
          "internalType": "address",
          "name": "account",
          "type": "address"
        }
      ],
      "name": "getAllOwnedBoxes",
      "outputs": [
        {
          "internalType": "uint256[]",
          "name": "",
          "type": "uint256[]"
        }
      ],
      "stateMutability": "view",
      "type": "function"
    },
    {
      "inputs": [
        {
          "internalType": "uint256",
          "name": "tokenId",
          "type": "uint256"
        }
      ],
      "name": "getApproved",
      "outputs": [
        {
          "internalType": "address",
          "name": "",
          "type": "address"
        }
      ],
      "stateMutability": "view",
      "type": "function"
    },
    {
      "inputs": [
        {
          "internalType": "uint256",
          "name": "tokenId",
          "type": "uint256"
        }
      ],
      "name": "getNftHolderAttributes",
      "outputs": [
        {
          "components": [
            {
              "internalType": "uint256",
              "name": "boxIndex",
              "type": "uint256"
            },
            {
              "internalType": "string",
              "name": "frequence",
              "type": "string"
            },
            {
              "internalType": "string",
              "name": "mood",
              "type": "string"
            },
            {
              "internalType": "string",
              "name": "imageURI",
              "type": "string"
            }
          ],
          "internalType": "struct MyEpicGame.BoxAttributes",
          "name": "",
          "type": "tuple"
        }
      ],
      "stateMutability": "view",
      "type": "function"
    },
    {
      "inputs": [],
      "name": "getNftHolders",
      "outputs": [
        {
          "internalType": "uint256[]",
          "name": "",
          "type": "uint256[]"
        }
      ],
      "stateMutability": "view",
      "type": "function"
    },
    {
      "inputs": [
        {
          "internalType": "address",
          "name": "_owner",
          "type": "address"
        }
      ],
      "name": "getTokenIds",
      "outputs": [
        {
          "internalType": "uint256[]",
          "name": "",
          "type": "uint256[]"
        }
      ],
      "stateMutability": "view",
      "type": "function"
    },
    {
      "inputs": [
        {
          "internalType": "uint256",
          "name": "_probatomint",
          "type": "uint256"
        }
      ],
      "name": "hostAParty",
      "outputs": [],
      "stateMutability": "nonpayable",
      "type": "function"
    },
    {
      "inputs": [
        {
          "internalType": "address",
          "name": "owner",
          "type": "address"
        },
        {
          "internalType": "address",
          "name": "operator",
          "type": "address"
        }
      ],
      "name": "isApprovedForAll",
      "outputs": [
        {
          "internalType": "bool",
          "name": "",
          "type": "bool"
        }
      ],
      "stateMutability": "view",
      "type": "function"
    },
    {
      "inputs": [
        {
          "internalType": "address",
          "name": "",
          "type": "address"
        }
      ],
      "name": "lastHostedAt",
      "outputs": [
        {
          "internalType": "uint256",
          "name": "",
          "type": "uint256"
        }
      ],
      "stateMutability": "view",
      "type": "function"
    },
    {
      "inputs": [],
      "name": "name",
      "outputs": [
        {
          "internalType": "string",
          "name": "",
          "type": "string"
        }
      ],
      "stateMutability": "view",
      "type": "function"
    },
    {
      "inputs": [
        {
          "internalType": "uint256",
          "name": "",
          "type": "uint256"
        }
      ],
      "name": "nftHolderAttributes",
      "outputs": [
        {
          "internalType": "uint256",
          "name": "boxIndex",
          "type": "uint256"
        },
        {
          "internalType": "string",
          "name": "frequence",
          "type": "string"
        },
        {
          "internalType": "string",
          "name": "mood",
          "type": "string"
        },
        {
          "internalType": "string",
          "name": "imageURI",
          "type": "string"
        }
      ],
      "stateMutability": "view",
      "type": "function"
    },
    {
      "inputs": [
        {
          "internalType": "address",
          "name": "",
          "type": "address"
        },
        {
          "internalType": "uint256",
          "name": "",
          "type": "uint256"
        }
      ],
      "name": "nftHolders",
      "outputs": [
        {
          "internalType": "uint256",
          "name": "",
          "type": "uint256"
        }
      ],
      "stateMutability": "view",
      "type": "function"
    },
    {
      "inputs": [
        {
          "internalType": "uint256",
          "name": "tokenId",
          "type": "uint256"
        }
      ],
      "name": "ownerOf",
      "outputs": [
        {
          "internalType": "address",
          "name": "",
          "type": "address"
        }
      ],
      "stateMutability": "view",
      "type": "function"
    },
    {
      "inputs": [
        {
          "internalType": "address",
          "name": "from",
          "type": "address"
        },
        {
          "internalType": "address",
          "name": "to",
          "type": "address"
        },
        {
          "internalType": "uint256",
          "name": "tokenId",
          "type": "uint256"
        }
      ],
      "name": "safeTransferFrom",
      "outputs": [],
      "stateMutability": "nonpayable",
      "type": "function"
    },
    {
      "inputs": [
        {
          "internalType": "address",
          "name": "from",
          "type": "address"
        },
        {
          "internalType": "address",
          "name": "to",
          "type": "address"
        },
        {
          "internalType": "uint256",
          "name": "tokenId",
          "type": "uint256"
        },
        {
          "internalType": "bytes",
          "name": "_data",
          "type": "bytes"
        }
      ],
      "name": "safeTransferFrom",
      "outputs": [],
      "stateMutability": "nonpayable",
      "type": "function"
    },
    {
      "inputs": [
        {
          "internalType": "address",
          "name": "operator",
          "type": "address"
        },
        {
          "internalType": "bool",
          "name": "approved",
          "type": "bool"
        }
      ],
      "name": "setApprovalForAll",
      "outputs": [],
      "stateMutability": "nonpayable",
      "type": "function"
    },
    {
      "inputs": [
        {
          "internalType": "bytes4",
          "name": "interfaceId",
          "type": "bytes4"
        }
      ],
      "name": "supportsInterface",
      "outputs": [
        {
          "internalType": "bool",
          "name": "",
          "type": "bool"
        }
      ],
      "stateMutability": "view",
      "type": "function"
    },
    {
      "inputs": [],
      "name": "symbol",
      "outputs": [
        {
          "internalType": "string",
          "name": "",
          "type": "string"
        }
      ],
      "stateMutability": "view",
      "type": "function"
    },
    {
      "inputs": [
        {
          "internalType": "uint256",
          "name": "index",
          "type": "uint256"
        }
      ],
      "name": "tokenByIndex",
      "outputs": [
        {
          "internalType": "uint256",
          "name": "",
          "type": "uint256"
        }
      ],
      "stateMutability": "view",
      "type": "function"
    },
    {
      "inputs": [
        {
          "internalType": "uint256",
          "name": "",
          "type": "uint256"
        }
      ],
      "name": "tokenIsAtIndex",
      "outputs": [
        {
          "internalType": "int256",
          "name": "",
          "type": "int256"
        }
      ],
      "stateMutability": "view",
      "type": "function"
    },
    {
      "inputs": [
        {
          "internalType": "address",
          "name": "owner",
          "type": "address"
        },
        {
          "internalType": "uint256",
          "name": "index",
          "type": "uint256"
        }
      ],
      "name": "tokenOfOwnerByIndex",
      "outputs": [
        {
          "internalType": "uint256",
          "name": "",
          "type": "uint256"
        }
      ],
      "stateMutability": "view",
      "type": "function"
    },
    {
      "inputs": [
        {
          "internalType": "uint256",
          "name": "_tokenId",
          "type": "uint256"
        }
      ],
      "name": "tokenURI",
      "outputs": [
        {
          "internalType": "string",
          "name": "",
          "type": "string"
        }
      ],
      "stateMutability": "view",
      "type": "function"
    },
    {
      "inputs": [],
      "name": "totalSupply",
      "outputs": [
        {
          "internalType": "uint256",
          "name": "",
          "type": "uint256"
        }
      ],
      "stateMutability": "view",
      "type": "function"
    },
    {
      "inputs": [
        {
          "internalType": "address",
          "name": "from",
          "type": "address"
        },
        {
          "internalType": "address",
          "name": "to",
          "type": "address"
        },
        {
          "internalType": "uint256",
          "name": "tokenId",
          "type": "uint256"
        }
      ],
      "name": "transferFrom",
      "outputs": [],
      "stateMutability": "nonpayable",
      "type": "function"
    },
    {
      "inputs": [
        {
          "internalType": "address",
          "name": "",
          "type": "address"
        },
        {
          "internalType": "uint256",
          "name": "",
          "type": "uint256"
        }
      ],
      "name": "userOwnedTokens",
      "outputs": [
        {
          "internalType": "uint256",
          "name": "",
          "type": "uint256"
        }
      ],
      "stateMutability": "view",
      "type": "function"
    }
  ],
  "bytecode": "0x60806040523480156200001157600080fd5b506040516200600f3803806200600f833981810160405281019062000037919062000804565b6040518060400160405280600581526020017f426f7865730000000000000000000000000000000000000000000000000000008152506040518060400160405280600381526020017f424f5800000000000000000000000000000000000000000000000000000000008152508160009080519060200190620000bb92919062000650565b508060019080519060200190620000d492919062000650565b50505060005b8451811015620004fe57600d604051806080016040528083815260200186848151811062000131577f4e487b7100000000000000000000000000000000000000000000000000000000600052603260045260246000fd5b6020026020010151815260200185848151811062000178577f4e487b7100000000000000000000000000000000000000000000000000000000600052603260045260246000fd5b60200260200101518152602001848481518110620001bf577f4e487b7100000000000000000000000000000000000000000000000000000000600052603260045260246000fd5b602002602001015181525090806001815401808255809150506001900390600052602060002090600402016000909190919091506000820151816000015560208201518160010190805190602001906200021b92919062000650565b5060408201518160020190805190602001906200023a92919062000650565b5060608201518160030190805190602001906200025992919062000650565b5050506000600d828154811062000299577f4e487b7100000000000000000000000000000000000000000000000000000000600052603260045260246000fd5b906000526020600020906004020160405180608001604052908160008201548152602001600182018054620002ce9062000acd565b80601f0160208091040260200160405190810160405280929190818152602001828054620002fc9062000acd565b80156200034d5780601f1062000321576101008083540402835291602001916200034d565b820191906000526020600020905b8154815290600101906020018083116200032f57829003601f168201915b50505050508152602001600282018054620003689062000acd565b80601f0160208091040260200160405190810160405280929190818152602001828054620003969062000acd565b8015620003e75780601f10620003bb57610100808354040283529160200191620003e7565b820191906000526020600020905b815481529060010190602001808311620003c957829003601f168201915b50505050508152602001600382018054620004029062000acd565b80601f0160208091040260200160405190810160405280929190818152602001828054620004309062000acd565b8015620004815780601f10620004555761010080835404028352916020019162000481565b820191906000526020600020905b8154815290600101906020018083116200046357829003601f168201915b5050505050815250509050620004e66040518060400160405280601f81526020017f446f6e6520696e697469616c697a696e672025732025732c20696d67202573008152508260200151836040015184606001516200056560201b62001fdd1760201c565b50600181620004f6919062000a30565b9050620000da565b5062000516600c6200061160201b6200207f1760201c565b6103e8444262000527919062000a30565b62000533919062000b03565b600a81905550600c444262000549919062000a30565b62000555919062000b03565b600b819055505050505062000c08565b6200060b8484848460405160240162000582949392919062000915565b6040516020818303038152906040527fde68f20a000000000000000000000000000000000000000000000000000000007bffffffffffffffffffffffffffffffffffffffffffffffffffffffff19166020820180517bffffffffffffffffffffffffffffffffffffffffffffffffffffffff83818316178352505050506200062760201b60201c565b50505050565b6001816000016000828254019250508190555050565b60008151905060006a636f6e736f6c652e6c6f679050602083016000808483855afa5050505050565b8280546200065e9062000acd565b90600052602060002090601f016020900481019282620006825760008555620006ce565b82601f106200069d57805160ff1916838001178555620006ce565b82800160010185558215620006ce579182015b82811115620006cd578251825591602001919060010190620006b0565b5b509050620006dd9190620006e1565b5090565b5b80821115620006fc576000816000905550600101620006e2565b5090565b6000620007176200071184620009b2565b6200097e565b9050808382526020820190508260005b858110156200075b5781518501620007408882620007d7565b84526020840193506020830192505060018101905062000727565b5050509392505050565b60006200077c6200077684620009e1565b6200097e565b9050828152602081018484840111156200079557600080fd5b620007a284828562000a97565b509392505050565b600082601f830112620007bc57600080fd5b8151620007ce84826020860162000700565b91505092915050565b600082601f830112620007e957600080fd5b8151620007fb84826020860162000765565b91505092915050565b600080600080608085870312156200081b57600080fd5b600085015167ffffffffffffffff8111156200083657600080fd5b6200084487828801620007aa565b945050602085015167ffffffffffffffff8111156200086257600080fd5b6200087087828801620007aa565b935050604085015167ffffffffffffffff8111156200088e57600080fd5b6200089c87828801620007aa565b925050606085015167ffffffffffffffff811115620008ba57600080fd5b620008c887828801620007aa565b91505092959194509250565b6000620008e18262000a14565b620008ed818562000a1f565b9350620008ff81856020860162000a97565b6200090a8162000bf7565b840191505092915050565b60006080820190508181036000830152620009318187620008d4565b90508181036020830152620009478186620008d4565b905081810360408301526200095d8185620008d4565b90508181036060830152620009738184620008d4565b905095945050505050565b6000604051905081810181811067ffffffffffffffff82111715620009a857620009a762000bc8565b5b8060405250919050565b600067ffffffffffffffff821115620009d057620009cf62000bc8565b5b602082029050602081019050919050565b600067ffffffffffffffff821115620009ff57620009fe62000bc8565b5b601f19601f8301169050602081019050919050565b600081519050919050565b600082825260208201905092915050565b600062000a3d8262000a8d565b915062000a4a8362000a8d565b9250827fffffffffffffffffffffffffffffffffffffffffffffffffffffffffffffffff0382111562000a825762000a8162000b3b565b5b828201905092915050565b6000819050919050565b60005b8381101562000ab757808201518184015260208101905062000a9a565b8381111562000ac7576000848401525b50505050565b6000600282049050600182168062000ae657607f821691505b6020821081141562000afd5762000afc62000b99565b5b50919050565b600062000b108262000a8d565b915062000b1d8362000a8d565b92508262000b305762000b2f62000b6a565b5b828206905092915050565b7f4e487b7100000000000000000000000000000000000000000000000000000000600052601160045260246000fd5b7f4e487b7100000000000000000000000000000000000000000000000000000000600052601260045260246000fd5b7f4e487b7100000000000000000000000000000000000000000000000000000000600052602260045260246000fd5b7f4e487b7100000000000000000000000000000000000000000000000000000000600052604160045260246000fd5b6000601f19601f8301169050919050565b6153f78062000c186000396000f3fe608060405234801561001057600080fd5b50600436106101c45760003560e01c8063775bb50e116100f9578063c2f8331911610097578063cebf214111610071578063cebf21411461058e578063d004b036146105ac578063d55b2588146105dc578063e985e9c5146105f8576101c4565b8063c2f8331914610510578063c87b56dd14610540578063c8cf27f414610570576101c4565b806398da4c95116100d357806398da4c9514610487578063a1ac6d2e146104ba578063a22cb465146104d8578063b88d4fde146104f4576101c4565b8063775bb50e14610409578063776454491461043957806395d89b4114610469576101c4565b80632f745c59116101665780634f6ccce7116101405780634f6ccce7146103495780636352211e1461037957806363f30b47146103a957806370a08231146103d9576101c4565b80632f745c59146102cd57806335000496146102fd57806342842e0e1461032d576101c4565b8063095ea7b3116101a2578063095ea7b31461024757806314b924e21461026357806318160ddd1461029357806323b872dd146102b1576101c4565b806301ffc9a7146101c957806306fdde03146101f9578063081812fc14610217575b600080fd5b6101e360048036038101906101de9190613de3565b610628565b6040516101f09190614a8b565b60405180910390f35b6102016106a2565b60405161020e9190614ac1565b60405180910390f35b610231600480360381019061022c9190613e35565b610734565b60405161023e91906149a9565b60405180910390f35b610261600480360381019061025c9190613da7565b6107b9565b005b61027d60048036038101906102789190613da7565b6108d1565b60405161028a9190614de4565b60405180910390f35b61029b610902565b6040516102a89190614de4565b60405180910390f35b6102cb60048036038101906102c69190613ca1565b61090f565b005b6102e760048036038101906102e29190613da7565b61096f565b6040516102f49190614de4565b60405180910390f35b61031760048036038101906103129190613e35565b610a14565b6040516103249190614dc2565b60405180910390f35b61034760048036038101906103429190613ca1565b610c01565b005b610363600480360381019061035e9190613e35565b610c21565b6040516103709190614de4565b60405180910390f35b610393600480360381019061038e9190613e35565b610cb8565b6040516103a091906149a9565b60405180910390f35b6103c360048036038101906103be9190613c3c565b610d6a565b6040516103d09190614a69565b60405180910390f35b6103f360048036038101906103ee9190613c3c565b610e01565b6040516104009190614de4565b60405180910390f35b610423600480360381019061041e9190613da7565b610eb9565b6040516104309190614de4565b60405180910390f35b610453600480360381019061044e9190613c3c565b610eea565b6040516104609190614de4565b60405180910390f35b610471610f02565b60405161047e9190614ac1565b60405180910390f35b6104a1600480360381019061049c9190613e35565b610f94565b6040516104b19493929190614e28565b60405180910390f35b6104c261115c565b6040516104cf9190614a69565b60405180910390f35b6104f260048036038101906104ed9190613d6b565b6111f1565b005b61050e60048036038101906105099190613cf0565b611207565b005b61052a60048036038101906105259190613e35565b611269565b6040516105379190614aa6565b60405180910390f35b61055a60048036038101906105559190613e35565b611281565b6040516105679190614ac1565b60405180910390f35b6105786114ec565b6040516105859190614dc2565b60405180910390f35b61059661177b565b6040516105a39190614a47565b60405180910390f35b6105c660048036038101906105c19190613c3c565b61199a565b6040516105d39190614a69565b60405180910390f35b6105f660048036038101906105f19190613e35565b611a96565b005b610612600480360381019061060d9190613c65565b611f49565b60405161061f9190614a8b565b60405180910390f35b60007f780e9d63000000000000000000000000000000000000000000000000000000007bffffffffffffffffffffffffffffffffffffffffffffffffffffffff1916827bffffffffffffffffffffffffffffffffffffffffffffffffffffffff1916148061069b575061069a82612095565b5b9050919050565b6060600080546106b19061517e565b80601f01602080910402602001604051908101604052809291908181526020018280546106dd9061517e565b801561072a5780601f106106ff5761010080835404028352916020019161072a565b820191906000526020600020905b81548152906001019060200180831161070d57829003601f168201915b5050505050905090565b600061073f82612177565b61077e576040517f08c379a000000000000000000000000000000000000000000000000000000000815260040161077590614d22565b60405180910390fd5b6004600083815260200190815260200160002060009054906101000a900473ffffffffffffffffffffffffffffffffffffffff169050919050565b60006107c482610cb8565b90508073ffffffffffffffffffffffffffffffffffffffff168373ffffffffffffffffffffffffffffffffffffffff161415610835576040517f08c379a000000000000000000000000000000000000000000000000000000000815260040161082c90614d62565b60405180910390fd5b8073ffffffffffffffffffffffffffffffffffffffff166108546121e3565b73ffffffffffffffffffffffffffffffffffffffff16148061088357506108828161087d6121e3565b611f49565b5b6108c2576040517f08c379a00000000000000000000000000000000000000000000000000000000081526004016108b990614ca2565b60405180910390fd5b6108cc83836121eb565b505050565b601060205281600052604060002081815481106108ed57600080fd5b90600052602060002001600091509150505481565b6000600880549050905090565b61092061091a6121e3565b826122a4565b61095f576040517f08c379a000000000000000000000000000000000000000000000000000000000815260040161095690614d82565b60405180910390fd5b61096a838383612382565b505050565b600061097a83610e01565b82106109bb576040517f08c379a00000000000000000000000000000000000000000000000000000000081526004016109b290614be2565b60405180910390fd5b600660008473ffffffffffffffffffffffffffffffffffffffff1673ffffffffffffffffffffffffffffffffffffffff168152602001908152602001600020600083815260200190815260200160002054905092915050565b610a1c613aa0565b600e600083815260200190815260200160002060405180608001604052908160008201548152602001600182018054610a549061517e565b80601f0160208091040260200160405190810160405280929190818152602001828054610a809061517e565b8015610acd5780601f10610aa257610100808354040283529160200191610acd565b820191906000526020600020905b815481529060010190602001808311610ab057829003601f168201915b50505050508152602001600282018054610ae69061517e565b80601f0160208091040260200160405190810160405280929190818152602001828054610b129061517e565b8015610b5f5780601f10610b3457610100808354040283529160200191610b5f565b820191906000526020600020905b815481529060010190602001808311610b4257829003601f168201915b50505050508152602001600382018054610b789061517e565b80601f0160208091040260200160405190810160405280929190818152602001828054610ba49061517e565b8015610bf15780601f10610bc657610100808354040283529160200191610bf1565b820191906000526020600020905b815481529060010190602001808311610bd457829003601f168201915b5050505050815250509050919050565b610c1c83838360405180602001604052806000815250611207565b505050565b6000610c2b610902565b8210610c6c576040517f08c379a0000000000000000000000000000000000000000000000000000000008152600401610c6390614da2565b60405180910390fd5b60088281548110610ca6577f4e487b7100000000000000000000000000000000000000000000000000000000600052603260045260246000fd5b90600052602060002001549050919050565b6000806002600084815260200190815260200160002060009054906101000a900473ffffffffffffffffffffffffffffffffffffffff169050600073ffffffffffffffffffffffffffffffffffffffff168173ffffffffffffffffffffffffffffffffffffffff161415610d61576040517f08c379a0000000000000000000000000000000000000000000000000000000008152600401610d5890614ce2565b60405180910390fd5b80915050919050565b6060600f60008373ffffffffffffffffffffffffffffffffffffffff1673ffffffffffffffffffffffffffffffffffffffff168152602001908152602001600020805480602002602001604051908101604052809291908181526020018280548015610df557602002820191906000526020600020905b815481526020019060010190808311610de1575b50505050509050919050565b60008073ffffffffffffffffffffffffffffffffffffffff168273ffffffffffffffffffffffffffffffffffffffff161415610e72576040517f08c379a0000000000000000000000000000000000000000000000000000000008152600401610e6990614cc2565b60405180910390fd5b600360008373ffffffffffffffffffffffffffffffffffffffff1673ffffffffffffffffffffffffffffffffffffffff168152602001908152602001600020549050919050565b600f6020528160005260406000208181548110610ed557600080fd5b90600052602060002001600091509150505481565b60126020528060005260406000206000915090505481565b606060018054610f119061517e565b80601f0160208091040260200160405190810160405280929190818152602001828054610f3d9061517e565b8015610f8a5780601f10610f5f57610100808354040283529160200191610f8a565b820191906000526020600020905b815481529060010190602001808311610f6d57829003601f168201915b5050505050905090565b600e602052806000526040600020600091509050806000015490806001018054610fbd9061517e565b80601f0160208091040260200160405190810160405280929190818152602001828054610fe99061517e565b80156110365780601f1061100b57610100808354040283529160200191611036565b820191906000526020600020905b81548152906001019060200180831161101957829003601f168201915b50505050509080600201805461104b9061517e565b80601f01602080910402602001604051908101604052809291908181526020018280546110779061517e565b80156110c45780601f10611099576101008083540402835291602001916110c4565b820191906000526020600020905b8154815290600101906020018083116110a757829003601f168201915b5050505050908060030180546110d99061517e565b80601f01602080910402602001604051908101604052809291908181526020018280546111059061517e565b80156111525780601f1061112757610100808354040283529160200191611152565b820191906000526020600020905b81548152906001019060200180831161113557829003601f168201915b5050505050905084565b6060600f60003373ffffffffffffffffffffffffffffffffffffffff1673ffffffffffffffffffffffffffffffffffffffff1681526020019081526020016000208054806020026020016040519081016040528092919081815260200182805480156111e757602002820191906000526020600020905b8154815260200190600101908083116111d3575b5050505050905090565b6112036111fc6121e3565b83836125de565b5050565b6112186112126121e3565b836122a4565b611257576040517f08c379a000000000000000000000000000000000000000000000000000000000815260040161124e90614d82565b60405180910390fd5b6112638484848461274b565b50505050565b60116020528060005260406000206000915090505481565b60606000600e6000848152602001908152602001600020604051806080016040529081600082015481526020016001820180546112bd9061517e565b80601f01602080910402602001604051908101604052809291908181526020018280546112e99061517e565b80156113365780601f1061130b57610100808354040283529160200191611336565b820191906000526020600020905b81548152906001019060200180831161131957829003601f168201915b5050505050815260200160028201805461134f9061517e565b80601f016020809104026020016040519081016040528092919081815260200182805461137b9061517e565b80156113c85780601f1061139d576101008083540402835291602001916113c8565b820191906000526020600020905b8154815290600101906020018083116113ab57829003601f168201915b505050505081526020016003820180546113e19061517e565b80601f016020809104026020016040519081016040528092919081815260200182805461140d9061517e565b801561145a5780601f1061142f5761010080835404028352916020019161145a565b820191906000526020600020905b81548152906001019060200180831161143d57829003601f168201915b505050505081525050905060008160200151905060008260400151905060006114b9846020015161148a886127a7565b866060015186866040516020016114a59594939291906148fa565b604051602081830303815290604052612954565b90506000816040516020016114ce9190614987565b60405160208183030381529060405290508095505050505050919050565b6114f4613aa0565b6000600f60003373ffffffffffffffffffffffffffffffffffffffff1673ffffffffffffffffffffffffffffffffffffffff16815260200190815260200160002060008154811061156e577f4e487b7100000000000000000000000000000000000000000000000000000000600052603260045260246000fd5b90600052602060002001549050600081111561176a57600e6000828152602001908152602001600020604051806080016040529081600082015481526020016001820180546115bc9061517e565b80601f01602080910402602001604051908101604052809291908181526020018280546115e89061517e565b80156116355780601f1061160a57610100808354040283529160200191611635565b820191906000526020600020905b81548152906001019060200180831161161857829003601f168201915b5050505050815260200160028201805461164e9061517e565b80601f016020809104026020016040519081016040528092919081815260200182805461167a9061517e565b80156116c75780601f1061169c576101008083540402835291602001916116c7565b820191906000526020600020905b8154815290600101906020018083116116aa57829003601f168201915b505050505081526020016003820180546116e09061517e565b80601f016020809104026020016040519081016040528092919081815260200182805461170c9061517e565b80156117595780601f1061172e57610100808354040283529160200191611759565b820191906000526020600020905b81548152906001019060200180831161173c57829003601f168201915b505050505081525050915050611778565b611772613aa0565b80925050505b90565b6060600d805480602002602001604051908101604052809291908181526020016000905b828210156119915783829060005260206000209060040201604051806080016040529081600082015481526020016001820180546117dc9061517e565b80601f01602080910402602001604051908101604052809291908181526020018280546118089061517e565b80156118555780601f1061182a57610100808354040283529160200191611855565b820191906000526020600020905b81548152906001019060200180831161183857829003601f168201915b5050505050815260200160028201805461186e9061517e565b80601f016020809104026020016040519081016040528092919081815260200182805461189a9061517e565b80156118e75780601f106118bc576101008083540402835291602001916118e7565b820191906000526020600020905b8154815290600101906020018083116118ca57829003601f168201915b505050505081526020016003820180546119009061517e565b80601f016020809104026020016040519081016040528092919081815260200182805461192c9061517e565b80156119795780601f1061194e57610100808354040283529160200191611979565b820191906000526020600020905b81548152906001019060200180831161195c57829003601f168201915b5050505050815250508152602001906001019061179f565b50505050905090565b606060006119a783610e01565b67ffffffffffffffff8111156119e6577f4e487b7100000000000000000000000000000000000000000000000000000000600052604160045260246000fd5b604051908082528060200260200182016040528015611a145781602001602082028036833780820191505090505b50905060005b611a2384610e01565b811015611a8c57611a34848261096f565b828281518110611a6d577f4e487b7100000000000000000000000000000000000000000000000000000000600052603260045260246000fd5b6020026020010181815250508080611a84906151b0565b915050611a1a565b8192505050919050565b600060019050611b1a6040518060400160405280601c81526020017f6c617374486f7374656441745b6d73672e73656e6465725d3a20256400000000815250601260003373ffffffffffffffffffffffffffffffffffffffff1673ffffffffffffffffffffffffffffffffffffffff16815260200190815260200160002054612b12565b611b596040518060400160405280601381526020017f626c6f636b2e74696d657374616d703a2025640000000000000000000000000081525042612b12565b426078601260003373ffffffffffffffffffffffffffffffffffffffff1673ffffffffffffffffffffffffffffffffffffffff16815260200190815260200160002054611ba69190614fa9565b1090508015611ec95742601260003373ffffffffffffffffffffffffffffffffffffffff1673ffffffffffffffffffffffffffffffffffffffff16815260200190815260200160002081905550611c326040518060400160405280601681526020017f257320686173207468726f776e2061207061727479210000000000000000000081525033612bae565b611c716040518060400160405280600e81526020017f70726f6261746f6d696e74203a2000000000000000000000000000000000000081525083612b12565b601360405180604001604052803373ffffffffffffffffffffffffffffffffffffffff16815260200142815250908060018154018082558091505060019003906000526020600020906002020160009091909190915060008201518160000160006101000a81548173ffffffffffffffffffffffffffffffffffffffff021916908373ffffffffffffffffffffffffffffffffffffffff1602179055506020820151816001015550506103e8600a544244611d2c9190614fa9565b611d369190614fa9565b611d4091906151f9565b600a81905550600c600b544244611d579190614fa9565b611d619190614fa9565b611d6b91906151f9565b600b81905550611db26040518060400160405280601781526020017f52616e646f6d2023312067656e6572617465643a202564000000000000000000815250600a54612b12565b611df36040518060400160405280601781526020017f52616e646f6d2023322067656e6572617465643a202564000000000000000000815250600b54612b12565b611e716040518060400160405280601c81526020017f6c617374486f7374656441745b6d73672e73656e6465725d3a20256400000000815250601260003373ffffffffffffffffffffffffffffffffffffffff1673ffffffffffffffffffffffffffffffffffffffff16815260200190815260200160002054612b12565b81600a5411611ec457611eb86040518060400160405280600e81526020017f69742073686f756c64206d696e74000000000000000000000000000000000000815250612c4a565b611ec3600b54612ce3565b5b611f0c565b60009050611f0b6040518060400160405280600a81526020017f7761697420612062697400000000000000000000000000000000000000000000815250612c4a565b5b7fec8d2654655f3777bf009dab252f6bf35af3788e3be6ca82bf9e8ceb99186a774282604051611f3d929190614dff565b60405180910390a15050565b6000600560008473ffffffffffffffffffffffffffffffffffffffff1673ffffffffffffffffffffffffffffffffffffffff16815260200190815260200160002060008373ffffffffffffffffffffffffffffffffffffffff1673ffffffffffffffffffffffffffffffffffffffff16815260200190815260200160002060009054906101000a900460ff16905092915050565b61207984848484604051602401611ff79493929190614b13565b6040516020818303038152906040527fde68f20a000000000000000000000000000000000000000000000000000000007bffffffffffffffffffffffffffffffffffffffffffffffffffffffff19166020820180517bffffffffffffffffffffffffffffffffffffffffffffffffffffffff83818316178352505050506130de565b50505050565b6001816000016000828254019250508190555050565b60007f80ac58cd000000000000000000000000000000000000000000000000000000007bffffffffffffffffffffffffffffffffffffffffffffffffffffffff1916827bffffffffffffffffffffffffffffffffffffffffffffffffffffffff1916148061216057507f5b5e139f000000000000000000000000000000000000000000000000000000007bffffffffffffffffffffffffffffffffffffffffffffffffffffffff1916827bffffffffffffffffffffffffffffffffffffffffffffffffffffffff1916145b80612170575061216f82613107565b5b9050919050565b60008073ffffffffffffffffffffffffffffffffffffffff166002600084815260200190815260200160002060009054906101000a900473ffffffffffffffffffffffffffffffffffffffff1673ffffffffffffffffffffffffffffffffffffffff1614159050919050565b600033905090565b816004600083815260200190815260200160002060006101000a81548173ffffffffffffffffffffffffffffffffffffffff021916908373ffffffffffffffffffffffffffffffffffffffff160217905550808273ffffffffffffffffffffffffffffffffffffffff1661225e83610cb8565b73ffffffffffffffffffffffffffffffffffffffff167f8c5be1e5ebec7d5bd14f71427d1e84f3dd0314c0f7b2291e5b200ac8c7c3b92560405160405180910390a45050565b60006122af82612177565b6122ee576040517f08c379a00000000000000000000000000000000000000000000000000000000081526004016122e590614c82565b60405180910390fd5b60006122f983610cb8565b90508073ffffffffffffffffffffffffffffffffffffffff168473ffffffffffffffffffffffffffffffffffffffff16148061236857508373ffffffffffffffffffffffffffffffffffffffff1661235084610734565b73ffffffffffffffffffffffffffffffffffffffff16145b8061237957506123788185611f49565b5b91505092915050565b8273ffffffffffffffffffffffffffffffffffffffff166123a282610cb8565b73ffffffffffffffffffffffffffffffffffffffff16146123f8576040517f08c379a00000000000000000000000000000000000000000000000000000000081526004016123ef90614d42565b60405180910390fd5b600073ffffffffffffffffffffffffffffffffffffffff168273ffffffffffffffffffffffffffffffffffffffff161415612468576040517f08c379a000000000000000000000000000000000000000000000000000000000815260040161245f90614c42565b60405180910390fd5b612473838383613171565b61247e6000826121eb565b6001600360008573ffffffffffffffffffffffffffffffffffffffff1673ffffffffffffffffffffffffffffffffffffffff16815260200190815260200160002060008282546124ce919061508a565b925050819055506001600360008473ffffffffffffffffffffffffffffffffffffffff1673ffffffffffffffffffffffffffffffffffffffff16815260200190815260200160002060008282546125259190614fa9565b92505081905550816002600083815260200190815260200160002060006101000a81548173ffffffffffffffffffffffffffffffffffffffff021916908373ffffffffffffffffffffffffffffffffffffffff160217905550808273ffffffffffffffffffffffffffffffffffffffff168473ffffffffffffffffffffffffffffffffffffffff167fddf252ad1be2c89b69c2b068fc378daa952ba7f163c4a11628f55a4df523b3ef60405160405180910390a4505050565b8173ffffffffffffffffffffffffffffffffffffffff168373ffffffffffffffffffffffffffffffffffffffff16141561264d576040517f08c379a000000000000000000000000000000000000000000000000000000000815260040161264490614c62565b60405180910390fd5b80600560008573ffffffffffffffffffffffffffffffffffffffff1673ffffffffffffffffffffffffffffffffffffffff16815260200190815260200160002060008473ffffffffffffffffffffffffffffffffffffffff1673ffffffffffffffffffffffffffffffffffffffff16815260200190815260200160002060006101000a81548160ff0219169083151502179055508173ffffffffffffffffffffffffffffffffffffffff168373ffffffffffffffffffffffffffffffffffffffff167f17307eab39ab6107e8899845ad3d59bd9653f200f220920489ca2b5937696c318360405161273e9190614a8b565b60405180910390a3505050565b612756848484612382565b61276284848484613285565b6127a1576040517f08c379a000000000000000000000000000000000000000000000000000000000815260040161279890614c02565b60405180910390fd5b50505050565b606060008214156127ef576040518060400160405280600181526020017f3000000000000000000000000000000000000000000000000000000000000000815250905061294f565b600082905060005b6000821461282157808061280a906151b0565b915050600a8261281a9190614fff565b91506127f7565b60008167ffffffffffffffff811115612863577f4e487b7100000000000000000000000000000000000000000000000000000000600052604160045260246000fd5b6040519080825280601f01601f1916602001820160405280156128955781602001600182028036833780820191505090505b5090505b60008514612948576001826128ae919061508a565b9150600a856128bd91906151f9565b60306128c99190614fa9565b60f81b818381518110612905577f4e487b7100000000000000000000000000000000000000000000000000000000600052603260045260246000fd5b60200101907effffffffffffffffffffffffffffffffffffffffffffffffffffffffffffff1916908160001a905350600a856129419190614fff565b9450612899565b8093505050505b919050565b6060600082519050600081141561297d5760405180602001604052806000815250915050612b0d565b6000600360028361298e9190614fa9565b6129989190614fff565b60046129a49190615030565b905060006020826129b59190614fa9565b67ffffffffffffffff8111156129f4577f4e487b7100000000000000000000000000000000000000000000000000000000600052604160045260246000fd5b6040519080825280601f01601f191660200182016040528015612a265781602001600182028036833780820191505090505b5090506000604051806060016040528060408152602001615354604091399050600181016020830160005b86811015612aca5760038101905062ffffff818a015116603f8160121c168401518060081b905060ff603f83600c1c1686015116810190508060081b905060ff603f8360061c1686015116810190508060081b905060ff603f831686015116810190508060e01b90508084526004840193505050612a51565b506003860660018114612ae45760028114612af457612aff565b613d3d60f01b6002830352612aff565b603d60f81b60018303525b508484525050819450505050505b919050565b612baa8282604051602401612b28929190614b74565b6040516020818303038152906040527f9710a9d0000000000000000000000000000000000000000000000000000000007bffffffffffffffffffffffffffffffffffffffffffffffffffffffff19166020820180517bffffffffffffffffffffffffffffffffffffffffffffffffffffffff83818316178352505050506130de565b5050565b612c468282604051602401612bc4929190614ae3565b6040516020818303038152906040527f319af333000000000000000000000000000000000000000000000000000000007bffffffffffffffffffffffffffffffffffffffffffffffffffffffff19166020820180517bffffffffffffffffffffffffffffffffffffffffffffffffffffffff83818316178352505050506130de565b5050565b612ce081604051602401612c5e9190614ac1565b6040516020818303038152906040527f41304fac000000000000000000000000000000000000000000000000000000007bffffffffffffffffffffffffffffffffffffffffffffffffffffffff19166020820180517bffffffffffffffffffffffffffffffffffffffffffffffffffffffff83818316178352505050506130de565b50565b6000612cef600c61341c565b9050612cfb338261342a565b6040518060800160405280838152602001600d8481548110612d46577f4e487b7100000000000000000000000000000000000000000000000000000000600052603260045260246000fd5b90600052602060002090600402016001018054612d629061517e565b80601f0160208091040260200160405190810160405280929190818152602001828054612d8e9061517e565b8015612ddb5780601f10612db057610100808354040283529160200191612ddb565b820191906000526020600020905b815481529060010190602001808311612dbe57829003601f168201915b50505050508152602001600d8481548110612e1f577f4e487b7100000000000000000000000000000000000000000000000000000000600052603260045260246000fd5b90600052602060002090600402016002018054612e3b9061517e565b80601f0160208091040260200160405190810160405280929190818152602001828054612e679061517e565b8015612eb45780601f10612e8957610100808354040283529160200191612eb4565b820191906000526020600020905b815481529060010190602001808311612e9757829003601f168201915b50505050508152602001600d8481548110612ef8577f4e487b7100000000000000000000000000000000000000000000000000000000600052603260045260246000fd5b90600052602060002090600402016003018054612f149061517e565b80601f0160208091040260200160405190810160405280929190818152602001828054612f409061517e565b8015612f8d5780601f10612f6257610100808354040283529160200191612f8d565b820191906000526020600020905b815481529060010190602001808311612f7057829003601f168201915b5050505050815250600e6000838152602001908152602001600020600082015181600001556020820151816001019080519060200190612fce929190613ac8565b506040820151816002019080519060200190612feb929190613ac8565b506060820151816003019080519060200190613008929190613ac8565b5090505061302f6040518060600160405280602e8152602001615394602e91398284613448565b600f60003373ffffffffffffffffffffffffffffffffffffffff1673ffffffffffffffffffffffffffffffffffffffff16815260200190815260200160002081908060018154018082558091505060019003906000526020600020016000909190919091505561309f600c61207f565b7f75c6f6a1a201a7a14934962d50cb5d3af5dd75266af121eba66d337d2e985fea3382846040516130d293929190614a10565b60405180910390a15050565b60008151905060006a636f6e736f6c652e6c6f679050602083016000808483855afa5050505050565b60007f01ffc9a7000000000000000000000000000000000000000000000000000000007bffffffffffffffffffffffffffffffffffffffffffffffffffffffff1916827bffffffffffffffffffffffffffffffffffffffffffffffffffffffff1916149050919050565b61317c8383836134e7565b600073ffffffffffffffffffffffffffffffffffffffff168373ffffffffffffffffffffffffffffffffffffffff1614156131bf576131ba816134ec565b6131fe565b8173ffffffffffffffffffffffffffffffffffffffff168373ffffffffffffffffffffffffffffffffffffffff16146131fd576131fc8382613535565b5b5b600073ffffffffffffffffffffffffffffffffffffffff168273ffffffffffffffffffffffffffffffffffffffff1614156132415761323c816136a2565b613280565b8273ffffffffffffffffffffffffffffffffffffffff168273ffffffffffffffffffffffffffffffffffffffff161461327f5761327e82826137e5565b5b5b505050565b60006132a68473ffffffffffffffffffffffffffffffffffffffff16613864565b1561340f578373ffffffffffffffffffffffffffffffffffffffff1663150b7a026132cf6121e3565b8786866040518563ffffffff1660e01b81526004016132f194939291906149c4565b602060405180830381600087803b15801561330b57600080fd5b505af192505050801561333c57506040513d601f19601f820116820180604052508101906133399190613e0c565b60015b6133bf573d806000811461336c576040519150601f19603f3d011682016040523d82523d6000602084013e613371565b606091505b506000815114156133b7576040517f08c379a00000000000000000000000000000000000000000000000000000000081526004016133ae90614c02565b60405180910390fd5b805181602001fd5b63150b7a0260e01b7bffffffffffffffffffffffffffffffffffffffffffffffffffffffff1916817bffffffffffffffffffffffffffffffffffffffffffffffffffffffff191614915050613414565b600190505b949350505050565b600081600001549050919050565b613444828260405180602001604052806000815250613877565b5050565b6134e283838360405160240161346093929190614ba4565b6040516020818303038152906040527f969cdd03000000000000000000000000000000000000000000000000000000007bffffffffffffffffffffffffffffffffffffffffffffffffffffffff19166020820180517bffffffffffffffffffffffffffffffffffffffffffffffffffffffff83818316178352505050506130de565b505050565b505050565b6008805490506009600083815260200190815260200160002081905550600881908060018154018082558091505060019003906000526020600020016000909190919091505550565b6000600161354284610e01565b61354c919061508a565b9050600060076000848152602001908152602001600020549050818114613631576000600660008673ffffffffffffffffffffffffffffffffffffffff1673ffffffffffffffffffffffffffffffffffffffff168152602001908152602001600020600084815260200190815260200160002054905080600660008773ffffffffffffffffffffffffffffffffffffffff1673ffffffffffffffffffffffffffffffffffffffff168152602001908152602001600020600084815260200190815260200160002081905550816007600083815260200190815260200160002081905550505b6007600084815260200190815260200160002060009055600660008573ffffffffffffffffffffffffffffffffffffffff1673ffffffffffffffffffffffffffffffffffffffff16815260200190815260200160002060008381526020019081526020016000206000905550505050565b600060016008805490506136b6919061508a565b905060006009600084815260200190815260200160002054905060006008838154811061370c577f4e487b7100000000000000000000000000000000000000000000000000000000600052603260045260246000fd5b906000526020600020015490508060088381548110613754577f4e487b7100000000000000000000000000000000000000000000000000000000600052603260045260246000fd5b9060005260206000200181905550816009600083815260200190815260200160002081905550600960008581526020019081526020016000206000905560088054806137c9577f4e487b7100000000000000000000000000000000000000000000000000000000600052603160045260246000fd5b6001900381819060005260206000200160009055905550505050565b60006137f083610e01565b905081600660008573ffffffffffffffffffffffffffffffffffffffff1673ffffffffffffffffffffffffffffffffffffffff168152602001908152602001600020600083815260200190815260200160002081905550806007600084815260200190815260200160002081905550505050565b600080823b905060008111915050919050565b61388183836138d2565b61388e6000848484613285565b6138cd576040517f08c379a00000000000000000000000000000000000000000000000000000000081526004016138c490614c02565b60405180910390fd5b505050565b600073ffffffffffffffffffffffffffffffffffffffff168273ffffffffffffffffffffffffffffffffffffffff161415613942576040517f08c379a000000000000000000000000000000000000000000000000000000000815260040161393990614d02565b60405180910390fd5b61394b81612177565b1561398b576040517f08c379a000000000000000000000000000000000000000000000000000000000815260040161398290614c22565b60405180910390fd5b61399760008383613171565b6001600360008473ffffffffffffffffffffffffffffffffffffffff1673ffffffffffffffffffffffffffffffffffffffff16815260200190815260200160002060008282546139e79190614fa9565b92505081905550816002600083815260200190815260200160002060006101000a81548173ffffffffffffffffffffffffffffffffffffffff021916908373ffffffffffffffffffffffffffffffffffffffff160217905550808273ffffffffffffffffffffffffffffffffffffffff16600073ffffffffffffffffffffffffffffffffffffffff167fddf252ad1be2c89b69c2b068fc378daa952ba7f163c4a11628f55a4df523b3ef60405160405180910390a45050565b6040518060800160405280600081526020016060815260200160608152602001606081525090565b828054613ad49061517e565b90600052602060002090601f016020900481019282613af65760008555613b3d565b82601f10613b0f57805160ff1916838001178555613b3d565b82800160010185558215613b3d579182015b82811115613b3c578251825591602001919060010190613b21565b5b509050613b4a9190613b4e565b5090565b5b80821115613b67576000816000905550600101613b4f565b5090565b6000613b7e613b7984614eb3565b614e82565b905082815260208101848484011115613b9657600080fd5b613ba184828561513c565b509392505050565b600081359050613bb8816152f7565b92915050565b600081359050613bcd8161530e565b92915050565b600081359050613be281615325565b92915050565b600081519050613bf781615325565b92915050565b600082601f830112613c0e57600080fd5b8135613c1e848260208601613b6b565b91505092915050565b600081359050613c368161533c565b92915050565b600060208284031215613c4e57600080fd5b6000613c5c84828501613ba9565b91505092915050565b60008060408385031215613c7857600080fd5b6000613c8685828601613ba9565b9250506020613c9785828601613ba9565b9150509250929050565b600080600060608486031215613cb657600080fd5b6000613cc486828701613ba9565b9350506020613cd586828701613ba9565b9250506040613ce686828701613c27565b9150509250925092565b60008060008060808587031215613d0657600080fd5b6000613d1487828801613ba9565b9450506020613d2587828801613ba9565b9350506040613d3687828801613c27565b925050606085013567ffffffffffffffff811115613d5357600080fd5b613d5f87828801613bfd565b91505092959194509250565b60008060408385031215613d7e57600080fd5b6000613d8c85828601613ba9565b9250506020613d9d85828601613bbe565b9150509250929050565b60008060408385031215613dba57600080fd5b6000613dc885828601613ba9565b9250506020613dd985828601613c27565b9150509250929050565b600060208284031215613df557600080fd5b6000613e0384828501613bd3565b91505092915050565b600060208284031215613e1e57600080fd5b6000613e2c84828501613be8565b91505092915050565b600060208284031215613e4757600080fd5b6000613e5584828501613c27565b91505092915050565b6000613e6a83836147fa565b905092915050565b6000613e7e83836148dc565b60208301905092915050565b613e93816150be565b82525050565b6000613ea482614f03565b613eae8185614f49565b935083602082028501613ec085614ee3565b8060005b85811015613efc5784840389528151613edd8582613e5e565b9450613ee883614f2f565b925060208a01995050600181019050613ec4565b50829750879550505050505092915050565b6000613f1982614f0e565b613f238185614f5a565b9350613f2e83614ef3565b8060005b83811015613f5f578151613f468882613e72565b9750613f5183614f3c565b925050600181019050613f32565b5085935050505092915050565b613f75816150d0565b82525050565b6000613f8682614f19565b613f908185614f6b565b9350613fa081856020860161514b565b613fa9816152e6565b840191505092915050565b613fbd81615108565b82525050565b6000613fce82614f24565b613fd88185614f7c565b9350613fe881856020860161514b565b613ff1816152e6565b840191505092915050565b600061400782614f24565b6140118185614f8d565b935061402181856020860161514b565b61402a816152e6565b840191505092915050565b600061404082614f24565b61404a8185614f9e565b935061405a81856020860161514b565b80840191505092915050565b6000614073600b83614f9e565b91507f202d2d204e465420233a200000000000000000000000000000000000000000006000830152600b82019050919050565b60006140b3602b83614f8d565b91507f455243373231456e756d657261626c653a206f776e657220696e646578206f7560008301527f74206f6620626f756e64730000000000000000000000000000000000000000006020830152604082019050919050565b6000614119603283614f8d565b91507f4552433732313a207472616e7366657220746f206e6f6e20455243373231526560008301527f63656976657220696d706c656d656e74657200000000000000000000000000006020830152604082019050919050565b600061417f601c83614f8d565b91507f4552433732313a20746f6b656e20616c7265616479206d696e746564000000006000830152602082019050919050565b60006141bf603883614f9e565b91507f222c20226465736372697074696f6e223a20224120736f756e6473797374656d60008301527f20626f78222c2022696d616765223a2022697066733a2f2f00000000000000006020830152603882019050919050565b6000614225602483614f8d565b91507f4552433732313a207472616e7366657220746f20746865207a65726f2061646460008301527f72657373000000000000000000000000000000000000000000000000000000006020830152604082019050919050565b600061428b601983614f8d565b91507f4552433732313a20617070726f766520746f2063616c6c6572000000000000006000830152602082019050919050565b60006142cb602c83614f8d565b91507f4552433732313a206f70657261746f7220717565727920666f72206e6f6e657860008301527f697374656e7420746f6b656e00000000000000000000000000000000000000006020830152604082019050919050565b6000614331600f83614f9e565b91507f7b226672657175656e6365223a202200000000000000000000000000000000006000830152600f82019050919050565b6000614371603883614f8d565b91507f4552433732313a20617070726f76652063616c6c6572206973206e6f74206f7760008301527f6e6572206e6f7220617070726f76656420666f7220616c6c00000000000000006020830152604082019050919050565b60006143d7602a83614f8d565b91507f4552433732313a2062616c616e636520717565727920666f7220746865207a6560008301527f726f2061646472657373000000000000000000000000000000000000000000006020830152604082019050919050565b600061443d602983614f8d565b91507f4552433732313a206f776e657220717565727920666f72206e6f6e657869737460008301527f656e7420746f6b656e00000000000000000000000000000000000000000000006020830152604082019050919050565b60006144a3600983614f9e565b91507f2c20226d6f6f64223a00000000000000000000000000000000000000000000006000830152600982019050919050565b60006144e3600383614f9e565b91507f205d7d00000000000000000000000000000000000000000000000000000000006000830152600382019050919050565b6000614523602083614f8d565b91507f4552433732313a206d696e7420746f20746865207a65726f20616464726573736000830152602082019050919050565b6000614563602c83614f8d565b91507f4552433732313a20617070726f76656420717565727920666f72206e6f6e657860008301527f697374656e7420746f6b656e00000000000000000000000000000000000000006020830152604082019050919050565b60006145c9602983614f8d565b91507f4552433732313a207472616e73666572206f6620746f6b656e2074686174206960008301527f73206e6f74206f776e00000000000000000000000000000000000000000000006020830152604082019050919050565b600061462f602183614f8d565b91507f4552433732313a20617070726f76616c20746f2063757272656e74206f776e6560008301527f72000000000000000000000000000000000000000000000000000000000000006020830152604082019050919050565b6000614695601d83614f9e565b91507f646174613a6170706c69636174696f6e2f6a736f6e3b6261736536342c0000006000830152601d82019050919050565b60006146d5602283614f9e565b91507f222c202261747472696275746573223a205b207b20226672657175656e63652260008301527f3a200000000000000000000000000000000000000000000000000000000000006020830152602282019050919050565b600061473b603183614f8d565b91507f4552433732313a207472616e736665722063616c6c6572206973206e6f74206f60008301527f776e6572206e6f7220617070726f7665640000000000000000000000000000006020830152604082019050919050565b60006147a1602c83614f8d565b91507f455243373231456e756d657261626c653a20676c6f62616c20696e646578206f60008301527f7574206f6620626f756e647300000000000000000000000000000000000000006020830152604082019050919050565b600060808301600083015161481260008601826148dc565b506020830151848203602086015261482a8282613fc3565b915050604083015184820360408601526148448282613fc3565b9150506060830151848203606086015261485e8282613fc3565b9150508091505092915050565b600060808301600083015161488360008601826148dc565b506020830151848203602086015261489b8282613fc3565b915050604083015184820360408601526148b58282613fc3565b915050606083015184820360608601526148cf8282613fc3565b9150508091505092915050565b6148e581615132565b82525050565b6148f481615132565b82525050565b600061490582614324565b91506149118288614035565b915061491c82614066565b91506149288287614035565b9150614933826141b2565b915061493f8286614035565b915061494a826146c8565b91506149568285614035565b915061496182614496565b915061496d8284614035565b9150614978826144d6565b91508190509695505050505050565b600061499282614688565b915061499e8284614035565b915081905092915050565b60006020820190506149be6000830184613e8a565b92915050565b60006080820190506149d96000830187613e8a565b6149e66020830186613e8a565b6149f360408301856148eb565b8181036060830152614a058184613f7b565b905095945050505050565b6000606082019050614a256000830186613e8a565b614a3260208301856148eb565b614a3f60408301846148eb565b949350505050565b60006020820190508181036000830152614a618184613e99565b905092915050565b60006020820190508181036000830152614a838184613f0e565b905092915050565b6000602082019050614aa06000830184613f6c565b92915050565b6000602082019050614abb6000830184613fb4565b92915050565b60006020820190508181036000830152614adb8184613ffc565b905092915050565b60006040820190508181036000830152614afd8185613ffc565b9050614b0c6020830184613e8a565b9392505050565b60006080820190508181036000830152614b2d8187613ffc565b90508181036020830152614b418186613ffc565b90508181036040830152614b558185613ffc565b90508181036060830152614b698184613ffc565b905095945050505050565b60006040820190508181036000830152614b8e8185613ffc565b9050614b9d60208301846148eb565b9392505050565b60006060820190508181036000830152614bbe8186613ffc565b9050614bcd60208301856148eb565b614bda60408301846148eb565b949350505050565b60006020820190508181036000830152614bfb816140a6565b9050919050565b60006020820190508181036000830152614c1b8161410c565b9050919050565b60006020820190508181036000830152614c3b81614172565b9050919050565b60006020820190508181036000830152614c5b81614218565b9050919050565b60006020820190508181036000830152614c7b8161427e565b9050919050565b60006020820190508181036000830152614c9b816142be565b9050919050565b60006020820190508181036000830152614cbb81614364565b9050919050565b60006020820190508181036000830152614cdb816143ca565b9050919050565b60006020820190508181036000830152614cfb81614430565b9050919050565b60006020820190508181036000830152614d1b81614516565b9050919050565b60006020820190508181036000830152614d3b81614556565b9050919050565b60006020820190508181036000830152614d5b816145bc565b9050919050565b60006020820190508181036000830152614d7b81614622565b9050919050565b60006020820190508181036000830152614d9b8161472e565b9050919050565b60006020820190508181036000830152614dbb81614794565b9050919050565b60006020820190508181036000830152614ddc818461486b565b905092915050565b6000602082019050614df960008301846148eb565b92915050565b6000604082019050614e1460008301856148eb565b614e216020830184613f6c565b9392505050565b6000608082019050614e3d60008301876148eb565b8181036020830152614e4f8186613ffc565b90508181036040830152614e638185613ffc565b90508181036060830152614e778184613ffc565b905095945050505050565b6000604051905081810181811067ffffffffffffffff82111715614ea957614ea86152b7565b5b8060405250919050565b600067ffffffffffffffff821115614ece57614ecd6152b7565b5b601f19601f8301169050602081019050919050565b6000819050602082019050919050565b6000819050602082019050919050565b600081519050919050565b600081519050919050565b600081519050919050565b600081519050919050565b6000602082019050919050565b6000602082019050919050565b600082825260208201905092915050565b600082825260208201905092915050565b600082825260208201905092915050565b600082825260208201905092915050565b600082825260208201905092915050565b600081905092915050565b6000614fb482615132565b9150614fbf83615132565b9250827fffffffffffffffffffffffffffffffffffffffffffffffffffffffffffffffff03821115614ff457614ff361522a565b5b828201905092915050565b600061500a82615132565b915061501583615132565b92508261502557615024615259565b5b828204905092915050565b600061503b82615132565b915061504683615132565b9250817fffffffffffffffffffffffffffffffffffffffffffffffffffffffffffffffff048311821515161561507f5761507e61522a565b5b828202905092915050565b600061509582615132565b91506150a083615132565b9250828210156150b3576150b261522a565b5b828203905092915050565b60006150c982615112565b9050919050565b60008115159050919050565b60007fffffffff0000000000000000000000000000000000000000000000000000000082169050919050565b6000819050919050565b600073ffffffffffffffffffffffffffffffffffffffff82169050919050565b6000819050919050565b82818337600083830152505050565b60005b8381101561516957808201518184015260208101905061514e565b83811115615178576000848401525b50505050565b6000600282049050600182168061519657607f821691505b602082108114156151aa576151a9615288565b5b50919050565b60006151bb82615132565b91507fffffffffffffffffffffffffffffffffffffffffffffffffffffffffffffffff8214156151ee576151ed61522a565b5b600182019050919050565b600061520482615132565b915061520f83615132565b92508261521f5761521e615259565b5b828206905092915050565b7f4e487b7100000000000000000000000000000000000000000000000000000000600052601160045260246000fd5b7f4e487b7100000000000000000000000000000000000000000000000000000000600052601260045260246000fd5b7f4e487b7100000000000000000000000000000000000000000000000000000000600052602260045260246000fd5b7f4e487b7100000000000000000000000000000000000000000000000000000000600052604160045260246000fd5b6000601f19601f8301169050919050565b615300816150be565b811461530b57600080fd5b50565b615317816150d0565b811461532257600080fd5b50565b61532e816150dc565b811461533957600080fd5b50565b61534581615132565b811461535057600080fd5b5056fe4142434445464748494a4b4c4d4e4f505152535455565758595a6162636465666768696a6b6c6d6e6f707172737475767778797a303132333435363738392b2f4d696e746564204e465420772f20746f6b656e496420257320616e6420636861726163746572496e646578202573a264697066735822122074f8c22430e50465e4068290a7eaad24a7c1395b51d6c8bf6154d7814607778764736f6c63430008000033",
  "linkReferences": {},
  "deployedLinkReferences": {}
}