{
  "_format": "hh-sol-artifact-1",
  "contractName": "MyEpicGame",
  "sourceName": "contracts/MyEpicGame.sol",
  "abi": [
    {
      "inputs": [
        {
          "internalType": "string[]",
          "name": "boxNames",
          "type": "string[]"
        },
        {
          "internalType": "string[]",
          "name": "boxFrequences",
          "type": "string[]"
        },
        {
          "internalType": "string[]",
          "name": "boxMoods",
          "type": "string[]"
        },
        {
          "internalType": "string[]",
          "name": "boxImageURIs",
          "type": "string[]"
        }
      ],
      "stateMutability": "nonpayable",
      "type": "constructor"
    },
    {
      "anonymous": false,
      "inputs": [
        {
          "indexed": true,
          "internalType": "address",
          "name": "owner",
          "type": "address"
        },
        {
          "indexed": true,
          "internalType": "address",
          "name": "approved",
          "type": "address"
        },
        {
          "indexed": true,
          "internalType": "uint256",
          "name": "tokenId",
          "type": "uint256"
        }
      ],
      "name": "Approval",
      "type": "event"
    },
    {
      "anonymous": false,
      "inputs": [
        {
          "indexed": true,
          "internalType": "address",
          "name": "owner",
          "type": "address"
        },
        {
          "indexed": true,
          "internalType": "address",
          "name": "operator",
          "type": "address"
        },
        {
          "indexed": false,
          "internalType": "bool",
          "name": "approved",
          "type": "bool"
        }
      ],
      "name": "ApprovalForAll",
      "type": "event"
    },
    {
      "anonymous": false,
      "inputs": [
        {
          "indexed": false,
          "internalType": "address",
          "name": "sender",
          "type": "address"
        },
        {
          "indexed": false,
          "internalType": "uint256",
          "name": "tokenId",
          "type": "uint256"
        },
        {
          "indexed": false,
          "internalType": "uint256",
          "name": "boxIndex",
          "type": "uint256"
        }
      ],
      "name": "BoxNFTMinted",
      "type": "event"
    },
    {
      "anonymous": false,
      "inputs": [
        {
          "indexed": false,
          "internalType": "uint256",
          "name": "timestamp",
          "type": "uint256"
        },
        {
          "indexed": false,
          "internalType": "bool",
          "name": "cooldownRespected",
          "type": "bool"
        }
      ],
      "name": "PartyComplete",
      "type": "event"
    },
    {
      "anonymous": false,
      "inputs": [
        {
          "indexed": true,
          "internalType": "address",
          "name": "from",
          "type": "address"
        },
        {
          "indexed": true,
          "internalType": "address",
          "name": "to",
          "type": "address"
        },
        {
          "indexed": true,
          "internalType": "uint256",
          "name": "tokenId",
          "type": "uint256"
        }
      ],
      "name": "Transfer",
      "type": "event"
    },
    {
      "inputs": [
        {
          "internalType": "address",
          "name": "to",
          "type": "address"
        },
        {
          "internalType": "uint256",
          "name": "tokenId",
          "type": "uint256"
        }
      ],
      "name": "approve",
      "outputs": [],
      "stateMutability": "nonpayable",
      "type": "function"
    },
    {
      "inputs": [
        {
          "internalType": "address",
          "name": "owner",
          "type": "address"
        }
      ],
      "name": "balanceOf",
      "outputs": [
        {
          "internalType": "uint256",
          "name": "",
          "type": "uint256"
        }
      ],
      "stateMutability": "view",
      "type": "function"
    },
    {
      "inputs": [
        {
          "internalType": "uint256",
          "name": "tokenId",
          "type": "uint256"
        }
      ],
      "name": "getApproved",
      "outputs": [
        {
          "internalType": "address",
          "name": "",
          "type": "address"
        }
      ],
      "stateMutability": "view",
      "type": "function"
    },
    {
      "inputs": [
        {
          "internalType": "uint256",
          "name": "tokenId",
          "type": "uint256"
        }
      ],
      "name": "getNftHolderAttributes",
      "outputs": [
        {
          "components": [
            {
              "internalType": "uint256",
              "name": "boxIndex",
              "type": "uint256"
            },
            {
              "internalType": "string",
              "name": "frequence",
              "type": "string"
            },
            {
              "internalType": "string",
              "name": "mood",
              "type": "string"
            },
            {
              "internalType": "string",
              "name": "imageURI",
              "type": "string"
            }
          ],
          "internalType": "struct MyEpicGame.BoxAttributes",
          "name": "",
          "type": "tuple"
        }
      ],
      "stateMutability": "view",
      "type": "function"
    },
    {
      "inputs": [
        {
          "internalType": "address",
          "name": "_owner",
          "type": "address"
        }
      ],
      "name": "getTokenIds",
      "outputs": [
        {
          "internalType": "uint256[]",
          "name": "",
          "type": "uint256[]"
        }
      ],
      "stateMutability": "view",
      "type": "function"
    },
    {
      "inputs": [
        {
          "internalType": "uint256",
          "name": "_probatomint",
          "type": "uint256"
        }
      ],
      "name": "hostAParty",
      "outputs": [],
      "stateMutability": "nonpayable",
      "type": "function"
    },
    {
      "inputs": [
        {
          "internalType": "address",
          "name": "owner",
          "type": "address"
        },
        {
          "internalType": "address",
          "name": "operator",
          "type": "address"
        }
      ],
      "name": "isApprovedForAll",
      "outputs": [
        {
          "internalType": "bool",
          "name": "",
          "type": "bool"
        }
      ],
      "stateMutability": "view",
      "type": "function"
    },
    {
      "inputs": [
        {
          "internalType": "address",
          "name": "",
          "type": "address"
        }
      ],
      "name": "lastHostedAt",
      "outputs": [
        {
          "internalType": "uint256",
          "name": "",
          "type": "uint256"
        }
      ],
      "stateMutability": "view",
      "type": "function"
    },
    {
      "inputs": [],
      "name": "name",
      "outputs": [
        {
          "internalType": "string",
          "name": "",
          "type": "string"
        }
      ],
      "stateMutability": "view",
      "type": "function"
    },
    {
      "inputs": [
        {
          "internalType": "uint256",
          "name": "",
          "type": "uint256"
        }
      ],
      "name": "nftHolderAttributes",
      "outputs": [
        {
          "internalType": "uint256",
          "name": "boxIndex",
          "type": "uint256"
        },
        {
          "internalType": "string",
          "name": "frequence",
          "type": "string"
        },
        {
          "internalType": "string",
          "name": "mood",
          "type": "string"
        },
        {
          "internalType": "string",
          "name": "imageURI",
          "type": "string"
        }
      ],
      "stateMutability": "view",
      "type": "function"
    },
    {
      "inputs": [
        {
          "internalType": "uint256",
          "name": "tokenId",
          "type": "uint256"
        }
      ],
      "name": "ownerOf",
      "outputs": [
        {
          "internalType": "address",
          "name": "",
          "type": "address"
        }
      ],
      "stateMutability": "view",
      "type": "function"
    },
    {
      "inputs": [
        {
          "internalType": "address",
          "name": "from",
          "type": "address"
        },
        {
          "internalType": "address",
          "name": "to",
          "type": "address"
        },
        {
          "internalType": "uint256",
          "name": "tokenId",
          "type": "uint256"
        }
      ],
      "name": "safeTransferFrom",
      "outputs": [],
      "stateMutability": "nonpayable",
      "type": "function"
    },
    {
      "inputs": [
        {
          "internalType": "address",
          "name": "from",
          "type": "address"
        },
        {
          "internalType": "address",
          "name": "to",
          "type": "address"
        },
        {
          "internalType": "uint256",
          "name": "tokenId",
          "type": "uint256"
        },
        {
          "internalType": "bytes",
          "name": "_data",
          "type": "bytes"
        }
      ],
      "name": "safeTransferFrom",
      "outputs": [],
      "stateMutability": "nonpayable",
      "type": "function"
    },
    {
      "inputs": [
        {
          "internalType": "address",
          "name": "operator",
          "type": "address"
        },
        {
          "internalType": "bool",
          "name": "approved",
          "type": "bool"
        }
      ],
      "name": "setApprovalForAll",
      "outputs": [],
      "stateMutability": "nonpayable",
      "type": "function"
    },
    {
      "inputs": [
        {
          "internalType": "bytes4",
          "name": "interfaceId",
          "type": "bytes4"
        }
      ],
      "name": "supportsInterface",
      "outputs": [
        {
          "internalType": "bool",
          "name": "",
          "type": "bool"
        }
      ],
      "stateMutability": "view",
      "type": "function"
    },
    {
      "inputs": [],
      "name": "symbol",
      "outputs": [
        {
          "internalType": "string",
          "name": "",
          "type": "string"
        }
      ],
      "stateMutability": "view",
      "type": "function"
    },
    {
      "inputs": [
        {
          "internalType": "uint256",
          "name": "index",
          "type": "uint256"
        }
      ],
      "name": "tokenByIndex",
      "outputs": [
        {
          "internalType": "uint256",
          "name": "",
          "type": "uint256"
        }
      ],
      "stateMutability": "view",
      "type": "function"
    },
    {
      "inputs": [
        {
          "internalType": "address",
          "name": "owner",
          "type": "address"
        },
        {
          "internalType": "uint256",
          "name": "index",
          "type": "uint256"
        }
      ],
      "name": "tokenOfOwnerByIndex",
      "outputs": [
        {
          "internalType": "uint256",
          "name": "",
          "type": "uint256"
        }
      ],
      "stateMutability": "view",
      "type": "function"
    },
    {
      "inputs": [
        {
          "internalType": "uint256",
          "name": "_tokenId",
          "type": "uint256"
        }
      ],
      "name": "tokenURI",
      "outputs": [
        {
          "internalType": "string",
          "name": "",
          "type": "string"
        }
      ],
      "stateMutability": "view",
      "type": "function"
    },
    {
      "inputs": [],
      "name": "totalSupply",
      "outputs": [
        {
          "internalType": "uint256",
          "name": "",
          "type": "uint256"
        }
      ],
      "stateMutability": "view",
      "type": "function"
    },
    {
      "inputs": [
        {
          "internalType": "address",
          "name": "from",
          "type": "address"
        },
        {
          "internalType": "address",
          "name": "to",
          "type": "address"
        },
        {
          "internalType": "uint256",
          "name": "tokenId",
          "type": "uint256"
        }
      ],
      "name": "transferFrom",
      "outputs": [],
      "stateMutability": "nonpayable",
      "type": "function"
    }
  ],
  "bytecode": "0x60806040523480156200001157600080fd5b506040516200520f3803806200520f833981810160405281019062000037919062000804565b6040518060400160405280600581526020017f426f7865730000000000000000000000000000000000000000000000000000008152506040518060400160405280600381526020017f424f5800000000000000000000000000000000000000000000000000000000008152508160009080519060200190620000bb92919062000650565b508060019080519060200190620000d492919062000650565b50505060005b8451811015620004fe57600d604051806080016040528083815260200186848151811062000131577f4e487b7100000000000000000000000000000000000000000000000000000000600052603260045260246000fd5b6020026020010151815260200185848151811062000178577f4e487b7100000000000000000000000000000000000000000000000000000000600052603260045260246000fd5b60200260200101518152602001848481518110620001bf577f4e487b7100000000000000000000000000000000000000000000000000000000600052603260045260246000fd5b602002602001015181525090806001815401808255809150506001900390600052602060002090600402016000909190919091506000820151816000015560208201518160010190805190602001906200021b92919062000650565b5060408201518160020190805190602001906200023a92919062000650565b5060608201518160030190805190602001906200025992919062000650565b5050506000600d828154811062000299577f4e487b7100000000000000000000000000000000000000000000000000000000600052603260045260246000fd5b906000526020600020906004020160405180608001604052908160008201548152602001600182018054620002ce9062000acd565b80601f0160208091040260200160405190810160405280929190818152602001828054620002fc9062000acd565b80156200034d5780601f1062000321576101008083540402835291602001916200034d565b820191906000526020600020905b8154815290600101906020018083116200032f57829003601f168201915b50505050508152602001600282018054620003689062000acd565b80601f0160208091040260200160405190810160405280929190818152602001828054620003969062000acd565b8015620003e75780601f10620003bb57610100808354040283529160200191620003e7565b820191906000526020600020905b815481529060010190602001808311620003c957829003601f168201915b50505050508152602001600382018054620004029062000acd565b80601f0160208091040260200160405190810160405280929190818152602001828054620004309062000acd565b8015620004815780601f10620004555761010080835404028352916020019162000481565b820191906000526020600020905b8154815290600101906020018083116200046357829003601f168201915b5050505050815250509050620004e66040518060400160405280601f81526020017f446f6e6520696e697469616c697a696e672025732025732c20696d67202573008152508260200151836040015184606001516200056560201b620015961760201c565b50600181620004f6919062000a30565b9050620000da565b5062000516600a6200061160201b620016381760201c565b6103e8444262000527919062000a30565b62000533919062000b03565b600b81905550600c444262000549919062000a30565b62000555919062000b03565b600c819055505050505062000c08565b6200060b8484848460405160240162000582949392919062000915565b6040516020818303038152906040527fde68f20a000000000000000000000000000000000000000000000000000000007bffffffffffffffffffffffffffffffffffffffffffffffffffffffff19166020820180517bffffffffffffffffffffffffffffffffffffffffffffffffffffffff83818316178352505050506200062760201b60201c565b50505050565b6001816000016000828254019250508190555050565b60008151905060006a636f6e736f6c652e6c6f679050602083016000808483855afa5050505050565b8280546200065e9062000acd565b90600052602060002090601f016020900481019282620006825760008555620006ce565b82601f106200069d57805160ff1916838001178555620006ce565b82800160010185558215620006ce579182015b82811115620006cd578251825591602001919060010190620006b0565b5b509050620006dd9190620006e1565b5090565b5b80821115620006fc576000816000905550600101620006e2565b5090565b6000620007176200071184620009b2565b6200097e565b9050808382526020820190508260005b858110156200075b5781518501620007408882620007d7565b84526020840193506020830192505060018101905062000727565b5050509392505050565b60006200077c6200077684620009e1565b6200097e565b9050828152602081018484840111156200079557600080fd5b620007a284828562000a97565b509392505050565b600082601f830112620007bc57600080fd5b8151620007ce84826020860162000700565b91505092915050565b600082601f830112620007e957600080fd5b8151620007fb84826020860162000765565b91505092915050565b600080600080608085870312156200081b57600080fd5b600085015167ffffffffffffffff8111156200083657600080fd5b6200084487828801620007aa565b945050602085015167ffffffffffffffff8111156200086257600080fd5b6200087087828801620007aa565b935050604085015167ffffffffffffffff8111156200088e57600080fd5b6200089c87828801620007aa565b925050606085015167ffffffffffffffff811115620008ba57600080fd5b620008c887828801620007aa565b91505092959194509250565b6000620008e18262000a14565b620008ed818562000a1f565b9350620008ff81856020860162000a97565b6200090a8162000bf7565b840191505092915050565b60006080820190508181036000830152620009318187620008d4565b90508181036020830152620009478186620008d4565b905081810360408301526200095d8185620008d4565b90508181036060830152620009738184620008d4565b905095945050505050565b6000604051905081810181811067ffffffffffffffff82111715620009a857620009a762000bc8565b5b8060405250919050565b600067ffffffffffffffff821115620009d057620009cf62000bc8565b5b602082029050602081019050919050565b600067ffffffffffffffff821115620009ff57620009fe62000bc8565b5b601f19601f8301169050602081019050919050565b600081519050919050565b600082825260208201905092915050565b600062000a3d8262000a8d565b915062000a4a8362000a8d565b9250827fffffffffffffffffffffffffffffffffffffffffffffffffffffffffffffffff0382111562000a825762000a8162000b3b565b5b828201905092915050565b6000819050919050565b60005b8381101562000ab757808201518184015260208101905062000a9a565b8381111562000ac7576000848401525b50505050565b6000600282049050600182168062000ae657607f821691505b6020821081141562000afd5762000afc62000b99565b5b50919050565b600062000b108262000a8d565b915062000b1d8362000a8d565b92508262000b305762000b2f62000b6a565b5b828206905092915050565b7f4e487b7100000000000000000000000000000000000000000000000000000000600052601160045260246000fd5b7f4e487b7100000000000000000000000000000000000000000000000000000000600052601260045260246000fd5b7f4e487b7100000000000000000000000000000000000000000000000000000000600052602260045260246000fd5b7f4e487b7100000000000000000000000000000000000000000000000000000000600052604160045260246000fd5b6000601f19601f8301169050919050565b6145f78062000c186000396000f3fe608060405234801561001057600080fd5b50600436106101375760003560e01c80636352211e116100b8578063a22cb4651161007c578063a22cb4651461039d578063b88d4fde146103b9578063c87b56dd146103d5578063d004b03614610405578063d55b258814610435578063e985e9c51461045157610137565b80636352211e146102bc57806370a08231146102ec578063776454491461031c57806395d89b411461034c57806398da4c951461036a57610137565b806323b872dd116100ff57806323b872dd146101f45780632f745c5914610210578063350004961461024057806342842e0e146102705780634f6ccce71461028c57610137565b806301ffc9a71461013c57806306fdde031461016c578063081812fc1461018a578063095ea7b3146101ba57806318160ddd146101d6575b600080fd5b610156600480360381019061015191906131fe565b610481565b6040516101639190613d49565b60405180910390f35b6101746104fb565b6040516101819190613d64565b60405180910390f35b6101a4600480360381019061019f9190613250565b61058d565b6040516101b19190613c89565b60405180910390f35b6101d460048036038101906101cf91906131c2565b610612565b005b6101de61072a565b6040516101eb9190614027565b60405180910390f35b61020e600480360381019061020991906130bc565b610737565b005b61022a600480360381019061022591906131c2565b610797565b6040516102379190614027565b60405180910390f35b61025a60048036038101906102559190613250565b61083c565b6040516102679190614005565b60405180910390f35b61028a600480360381019061028591906130bc565b610a29565b005b6102a660048036038101906102a19190613250565b610a49565b6040516102b39190614027565b60405180910390f35b6102d660048036038101906102d19190613250565b610ae0565b6040516102e39190613c89565b60405180910390f35b61030660048036038101906103019190613057565b610b92565b6040516103139190614027565b60405180910390f35b61033660048036038101906103319190613057565b610c4a565b6040516103439190614027565b60405180910390f35b610354610c62565b6040516103619190613d64565b60405180910390f35b610384600480360381019061037f9190613250565b610cf4565b604051610394949392919061406b565b60405180910390f35b6103b760048036038101906103b29190613186565b610ebc565b005b6103d360048036038101906103ce919061310b565b610ed2565b005b6103ef60048036038101906103ea9190613250565b610f34565b6040516103fc9190613d64565b60405180910390f35b61041f600480360381019061041a9190613057565b61118d565b60405161042c9190613d27565b60405180910390f35b61044f600480360381019061044a9190613250565b611289565b005b61046b60048036038101906104669190613080565b611502565b6040516104789190613d49565b60405180910390f35b60007f780e9d63000000000000000000000000000000000000000000000000000000007bffffffffffffffffffffffffffffffffffffffffffffffffffffffff1916827bffffffffffffffffffffffffffffffffffffffffffffffffffffffff191614806104f457506104f38261164e565b5b9050919050565b60606000805461050a9061437e565b80601f01602080910402602001604051908101604052809291908181526020018280546105369061437e565b80156105835780601f1061055857610100808354040283529160200191610583565b820191906000526020600020905b81548152906001019060200180831161056657829003601f168201915b5050505050905090565b600061059882611730565b6105d7576040517f08c379a00000000000000000000000000000000000000000000000000000000081526004016105ce90613f65565b60405180910390fd5b6004600083815260200190815260200160002060009054906101000a900473ffffffffffffffffffffffffffffffffffffffff169050919050565b600061061d82610ae0565b90508073ffffffffffffffffffffffffffffffffffffffff168373ffffffffffffffffffffffffffffffffffffffff16141561068e576040517f08c379a000000000000000000000000000000000000000000000000000000000815260040161068590613fa5565b60405180910390fd5b8073ffffffffffffffffffffffffffffffffffffffff166106ad61179c565b73ffffffffffffffffffffffffffffffffffffffff1614806106dc57506106db816106d661179c565b611502565b5b61071b576040517f08c379a000000000000000000000000000000000000000000000000000000000815260040161071290613ee5565b60405180910390fd5b61072583836117a4565b505050565b6000600880549050905090565b61074861074261179c565b8261185d565b610787576040517f08c379a000000000000000000000000000000000000000000000000000000000815260040161077e90613fc5565b60405180910390fd5b61079283838361193b565b505050565b60006107a283610b92565b82106107e3576040517f08c379a00000000000000000000000000000000000000000000000000000000081526004016107da90613e25565b60405180910390fd5b600660008473ffffffffffffffffffffffffffffffffffffffff1673ffffffffffffffffffffffffffffffffffffffff168152602001908152602001600020600083815260200190815260200160002054905092915050565b610844612ebb565b600f60008381526020019081526020016000206040518060800160405290816000820154815260200160018201805461087c9061437e565b80601f01602080910402602001604051908101604052809291908181526020018280546108a89061437e565b80156108f55780601f106108ca576101008083540402835291602001916108f5565b820191906000526020600020905b8154815290600101906020018083116108d857829003601f168201915b5050505050815260200160028201805461090e9061437e565b80601f016020809104026020016040519081016040528092919081815260200182805461093a9061437e565b80156109875780601f1061095c57610100808354040283529160200191610987565b820191906000526020600020905b81548152906001019060200180831161096a57829003601f168201915b505050505081526020016003820180546109a09061437e565b80601f01602080910402602001604051908101604052809291908181526020018280546109cc9061437e565b8015610a195780601f106109ee57610100808354040283529160200191610a19565b820191906000526020600020905b8154815290600101906020018083116109fc57829003601f168201915b5050505050815250509050919050565b610a4483838360405180602001604052806000815250610ed2565b505050565b6000610a5361072a565b8210610a94576040517f08c379a0000000000000000000000000000000000000000000000000000000008152600401610a8b90613fe5565b60405180910390fd5b60088281548110610ace577f4e487b7100000000000000000000000000000000000000000000000000000000600052603260045260246000fd5b90600052602060002001549050919050565b6000806002600084815260200190815260200160002060009054906101000a900473ffffffffffffffffffffffffffffffffffffffff169050600073ffffffffffffffffffffffffffffffffffffffff168173ffffffffffffffffffffffffffffffffffffffff161415610b89576040517f08c379a0000000000000000000000000000000000000000000000000000000008152600401610b8090613f25565b60405180910390fd5b80915050919050565b60008073ffffffffffffffffffffffffffffffffffffffff168273ffffffffffffffffffffffffffffffffffffffff161415610c03576040517f08c379a0000000000000000000000000000000000000000000000000000000008152600401610bfa90613f05565b60405180910390fd5b600360008373ffffffffffffffffffffffffffffffffffffffff1673ffffffffffffffffffffffffffffffffffffffff168152602001908152602001600020549050919050565b60106020528060005260406000206000915090505481565b606060018054610c719061437e565b80601f0160208091040260200160405190810160405280929190818152602001828054610c9d9061437e565b8015610cea5780601f10610cbf57610100808354040283529160200191610cea565b820191906000526020600020905b815481529060010190602001808311610ccd57829003601f168201915b5050505050905090565b600f602052806000526040600020600091509050806000015490806001018054610d1d9061437e565b80601f0160208091040260200160405190810160405280929190818152602001828054610d499061437e565b8015610d965780601f10610d6b57610100808354040283529160200191610d96565b820191906000526020600020905b815481529060010190602001808311610d7957829003601f168201915b505050505090806002018054610dab9061437e565b80601f0160208091040260200160405190810160405280929190818152602001828054610dd79061437e565b8015610e245780601f10610df957610100808354040283529160200191610e24565b820191906000526020600020905b815481529060010190602001808311610e0757829003601f168201915b505050505090806003018054610e399061437e565b80601f0160208091040260200160405190810160405280929190818152602001828054610e659061437e565b8015610eb25780601f10610e8757610100808354040283529160200191610eb2565b820191906000526020600020905b815481529060010190602001808311610e9557829003601f168201915b5050505050905084565b610ece610ec761179c565b8383611b97565b5050565b610ee3610edd61179c565b8361185d565b610f22576040517f08c379a0000000000000000000000000000000000000000000000000000000008152600401610f1990613fc5565b60405180910390fd5b610f2e84848484611d04565b50505050565b60606000600f600084815260200190815260200160002060405180608001604052908160008201548152602001600182018054610f709061437e565b80601f0160208091040260200160405190810160405280929190818152602001828054610f9c9061437e565b8015610fe95780601f10610fbe57610100808354040283529160200191610fe9565b820191906000526020600020905b815481529060010190602001808311610fcc57829003601f168201915b505050505081526020016002820180546110029061437e565b80601f016020809104026020016040519081016040528092919081815260200182805461102e9061437e565b801561107b5780601f106110505761010080835404028352916020019161107b565b820191906000526020600020905b81548152906001019060200180831161105e57829003601f168201915b505050505081526020016003820180546110949061437e565b80601f01602080910402602001604051908101604052809291908181526020018280546110c09061437e565b801561110d5780601f106110e25761010080835404028352916020019161110d565b820191906000526020600020905b8154815290600101906020018083116110f057829003601f168201915b5050505050815250509050600061115c61112685611d60565b8360600151846020015185604001516040516020016111489493929190613bf2565b604051602081830303815290604052611f0d565b90506000816040516020016111719190613c67565b6040516020818303038152906040529050809350505050919050565b6060600061119a83610b92565b67ffffffffffffffff8111156111d9577f4e487b7100000000000000000000000000000000000000000000000000000000600052604160045260246000fd5b6040519080825280602002602001820160405280156112075781602001602082028036833780820191505090505b50905060005b61121684610b92565b81101561127f576112278482610797565b828281518110611260577f4e487b7100000000000000000000000000000000000000000000000000000000600052603260045260246000fd5b6020026020010181815250508080611277906143b0565b91505061120d565b8192505050919050565b6000600190504262015180601060003373ffffffffffffffffffffffffffffffffffffffff1673ffffffffffffffffffffffffffffffffffffffff168152602001908152602001600020546112de91906141b3565b10905080156114825742601060003373ffffffffffffffffffffffffffffffffffffffff1673ffffffffffffffffffffffffffffffffffffffff16815260200190815260200160002081905550600e60405180604001604052803373ffffffffffffffffffffffffffffffffffffffff16815260200142815250908060018154018082558091505060019003906000526020600020906002020160009091909190915060008201518160000160006101000a81548173ffffffffffffffffffffffffffffffffffffffff021916908373ffffffffffffffffffffffffffffffffffffffff1602179055506020820151816001015550506103e8600b5442446113e691906141b3565b6113f091906141b3565b6113fa91906143f9565b600b81905550600c8054424461141091906141b3565b61141a91906141b3565b61142491906143f9565b600c8190555081600b541161147d5761143e600c546120cb565b61147c6040518060400160405280600681526020017f6d696e7465640000000000000000000000000000000000000000000000000000815250612460565b5b6114c5565b600090506114c46040518060400160405280600a81526020017f7761697420612062697400000000000000000000000000000000000000000000815250612460565b5b7fec8d2654655f3777bf009dab252f6bf35af3788e3be6ca82bf9e8ceb99186a7742826040516114f6929190614042565b60405180910390a15050565b6000600560008473ffffffffffffffffffffffffffffffffffffffff1673ffffffffffffffffffffffffffffffffffffffff16815260200190815260200160002060008373ffffffffffffffffffffffffffffffffffffffff1673ffffffffffffffffffffffffffffffffffffffff16815260200190815260200160002060009054906101000a900460ff16905092915050565b611632848484846040516024016115b09493929190613d86565b6040516020818303038152906040527fde68f20a000000000000000000000000000000000000000000000000000000007bffffffffffffffffffffffffffffffffffffffffffffffffffffffff19166020820180517bffffffffffffffffffffffffffffffffffffffffffffffffffffffff83818316178352505050506124f9565b50505050565b6001816000016000828254019250508190555050565b60007f80ac58cd000000000000000000000000000000000000000000000000000000007bffffffffffffffffffffffffffffffffffffffffffffffffffffffff1916827bffffffffffffffffffffffffffffffffffffffffffffffffffffffff1916148061171957507f5b5e139f000000000000000000000000000000000000000000000000000000007bffffffffffffffffffffffffffffffffffffffffffffffffffffffff1916827bffffffffffffffffffffffffffffffffffffffffffffffffffffffff1916145b80611729575061172882612522565b5b9050919050565b60008073ffffffffffffffffffffffffffffffffffffffff166002600084815260200190815260200160002060009054906101000a900473ffffffffffffffffffffffffffffffffffffffff1673ffffffffffffffffffffffffffffffffffffffff1614159050919050565b600033905090565b816004600083815260200190815260200160002060006101000a81548173ffffffffffffffffffffffffffffffffffffffff021916908373ffffffffffffffffffffffffffffffffffffffff160217905550808273ffffffffffffffffffffffffffffffffffffffff1661181783610ae0565b73ffffffffffffffffffffffffffffffffffffffff167f8c5be1e5ebec7d5bd14f71427d1e84f3dd0314c0f7b2291e5b200ac8c7c3b92560405160405180910390a45050565b600061186882611730565b6118a7576040517f08c379a000000000000000000000000000000000000000000000000000000000815260040161189e90613ec5565b60405180910390fd5b60006118b283610ae0565b90508073ffffffffffffffffffffffffffffffffffffffff168473ffffffffffffffffffffffffffffffffffffffff16148061192157508373ffffffffffffffffffffffffffffffffffffffff166119098461058d565b73ffffffffffffffffffffffffffffffffffffffff16145b8061193257506119318185611502565b5b91505092915050565b8273ffffffffffffffffffffffffffffffffffffffff1661195b82610ae0565b73ffffffffffffffffffffffffffffffffffffffff16146119b1576040517f08c379a00000000000000000000000000000000000000000000000000000000081526004016119a890613f85565b60405180910390fd5b600073ffffffffffffffffffffffffffffffffffffffff168273ffffffffffffffffffffffffffffffffffffffff161415611a21576040517f08c379a0000000000000000000000000000000000000000000000000000000008152600401611a1890613e85565b60405180910390fd5b611a2c83838361258c565b611a376000826117a4565b6001600360008573ffffffffffffffffffffffffffffffffffffffff1673ffffffffffffffffffffffffffffffffffffffff1681526020019081526020016000206000828254611a879190614294565b925050819055506001600360008473ffffffffffffffffffffffffffffffffffffffff1673ffffffffffffffffffffffffffffffffffffffff1681526020019081526020016000206000828254611ade91906141b3565b92505081905550816002600083815260200190815260200160002060006101000a81548173ffffffffffffffffffffffffffffffffffffffff021916908373ffffffffffffffffffffffffffffffffffffffff160217905550808273ffffffffffffffffffffffffffffffffffffffff168473ffffffffffffffffffffffffffffffffffffffff167fddf252ad1be2c89b69c2b068fc378daa952ba7f163c4a11628f55a4df523b3ef60405160405180910390a4505050565b8173ffffffffffffffffffffffffffffffffffffffff168373ffffffffffffffffffffffffffffffffffffffff161415611c06576040517f08c379a0000000000000000000000000000000000000000000000000000000008152600401611bfd90613ea5565b60405180910390fd5b80600560008573ffffffffffffffffffffffffffffffffffffffff1673ffffffffffffffffffffffffffffffffffffffff16815260200190815260200160002060008473ffffffffffffffffffffffffffffffffffffffff1673ffffffffffffffffffffffffffffffffffffffff16815260200190815260200160002060006101000a81548160ff0219169083151502179055508173ffffffffffffffffffffffffffffffffffffffff168373ffffffffffffffffffffffffffffffffffffffff167f17307eab39ab6107e8899845ad3d59bd9653f200f220920489ca2b5937696c3183604051611cf79190613d49565b60405180910390a3505050565b611d0f84848461193b565b611d1b848484846126a0565b611d5a576040517f08c379a0000000000000000000000000000000000000000000000000000000008152600401611d5190613e45565b60405180910390fd5b50505050565b60606000821415611da8576040518060400160405280600181526020017f30000000000000000000000000000000000000000000000000000000000000008152509050611f08565b600082905060005b60008214611dda578080611dc3906143b0565b915050600a82611dd39190614209565b9150611db0565b60008167ffffffffffffffff811115611e1c577f4e487b7100000000000000000000000000000000000000000000000000000000600052604160045260246000fd5b6040519080825280601f01601f191660200182016040528015611e4e5781602001600182028036833780820191505090505b5090505b60008514611f0157600182611e679190614294565b9150600a85611e7691906143f9565b6030611e8291906141b3565b60f81b818381518110611ebe577f4e487b7100000000000000000000000000000000000000000000000000000000600052603260045260246000fd5b60200101907effffffffffffffffffffffffffffffffffffffffffffffffffffffffffffff1916908160001a905350600a85611efa9190614209565b9450611e52565b8093505050505b919050565b60606000825190506000811415611f3657604051806020016040528060008152509150506120c6565b60006003600283611f4791906141b3565b611f519190614209565b6004611f5d919061423a565b90506000602082611f6e91906141b3565b67ffffffffffffffff811115611fad577f4e487b7100000000000000000000000000000000000000000000000000000000600052604160045260246000fd5b6040519080825280601f01601f191660200182016040528015611fdf5781602001600182028036833780820191505090505b5090506000604051806060016040528060408152602001614554604091399050600181016020830160005b868110156120835760038101905062ffffff818a015116603f8160121c168401518060081b905060ff603f83600c1c1686015116810190508060081b905060ff603f8360061c1686015116810190508060081b905060ff603f831686015116810190508060e01b9050808452600484019350505061200a565b50600386066001811461209d57600281146120ad576120b8565b613d3d60f01b60028303526120b8565b603d60f81b60018303525b508484525050819450505050505b919050565b60006120d7600a612837565b90506120e33382612845565b6040518060800160405280838152602001600d848154811061212e577f4e487b7100000000000000000000000000000000000000000000000000000000600052603260045260246000fd5b9060005260206000209060040201600101805461214a9061437e565b80601f01602080910402602001604051908101604052809291908181526020018280546121769061437e565b80156121c35780601f10612198576101008083540402835291602001916121c3565b820191906000526020600020905b8154815290600101906020018083116121a657829003601f168201915b50505050508152602001600d8481548110612207577f4e487b7100000000000000000000000000000000000000000000000000000000600052603260045260246000fd5b906000526020600020906004020160020180546122239061437e565b80601f016020809104026020016040519081016040528092919081815260200182805461224f9061437e565b801561229c5780601f106122715761010080835404028352916020019161229c565b820191906000526020600020905b81548152906001019060200180831161227f57829003601f168201915b50505050508152602001600d84815481106122e0577f4e487b7100000000000000000000000000000000000000000000000000000000600052603260045260246000fd5b906000526020600020906004020160030180546122fc9061437e565b80601f01602080910402602001604051908101604052809291908181526020018280546123289061437e565b80156123755780601f1061234a57610100808354040283529160200191612375565b820191906000526020600020905b81548152906001019060200180831161235857829003601f168201915b5050505050815250600f60008381526020019081526020016000206000820151816000015560208201518160010190805190602001906123b6929190612ee3565b5060408201518160020190805190602001906123d3929190612ee3565b5060608201518160030190805190602001906123f0929190612ee3565b509050506124176040518060600160405280602e8152602001614594602e91398284612863565b612421600a611638565b7f75c6f6a1a201a7a14934962d50cb5d3af5dd75266af121eba66d337d2e985fea33828460405161245493929190613cf0565b60405180910390a15050565b6124f6816040516024016124749190613d64565b6040516020818303038152906040527f41304fac000000000000000000000000000000000000000000000000000000007bffffffffffffffffffffffffffffffffffffffffffffffffffffffff19166020820180517bffffffffffffffffffffffffffffffffffffffffffffffffffffffff83818316178352505050506124f9565b50565b60008151905060006a636f6e736f6c652e6c6f679050602083016000808483855afa5050505050565b60007f01ffc9a7000000000000000000000000000000000000000000000000000000007bffffffffffffffffffffffffffffffffffffffffffffffffffffffff1916827bffffffffffffffffffffffffffffffffffffffffffffffffffffffff1916149050919050565b612597838383612902565b600073ffffffffffffffffffffffffffffffffffffffff168373ffffffffffffffffffffffffffffffffffffffff1614156125da576125d581612907565b612619565b8173ffffffffffffffffffffffffffffffffffffffff168373ffffffffffffffffffffffffffffffffffffffff1614612618576126178382612950565b5b5b600073ffffffffffffffffffffffffffffffffffffffff168273ffffffffffffffffffffffffffffffffffffffff16141561265c5761265781612abd565b61269b565b8273ffffffffffffffffffffffffffffffffffffffff168273ffffffffffffffffffffffffffffffffffffffff161461269a576126998282612c00565b5b5b505050565b60006126c18473ffffffffffffffffffffffffffffffffffffffff16612c7f565b1561282a578373ffffffffffffffffffffffffffffffffffffffff1663150b7a026126ea61179c565b8786866040518563ffffffff1660e01b815260040161270c9493929190613ca4565b602060405180830381600087803b15801561272657600080fd5b505af192505050801561275757506040513d601f19601f820116820180604052508101906127549190613227565b60015b6127da573d8060008114612787576040519150601f19603f3d011682016040523d82523d6000602084013e61278c565b606091505b506000815114156127d2576040517f08c379a00000000000000000000000000000000000000000000000000000000081526004016127c990613e45565b60405180910390fd5b805181602001fd5b63150b7a0260e01b7bffffffffffffffffffffffffffffffffffffffffffffffffffffffff1916817bffffffffffffffffffffffffffffffffffffffffffffffffffffffff19161491505061282f565b600190505b949350505050565b600081600001549050919050565b61285f828260405180602001604052806000815250612c92565b5050565b6128fd83838360405160240161287b93929190613de7565b6040516020818303038152906040527f969cdd03000000000000000000000000000000000000000000000000000000007bffffffffffffffffffffffffffffffffffffffffffffffffffffffff19166020820180517bffffffffffffffffffffffffffffffffffffffffffffffffffffffff83818316178352505050506124f9565b505050565b505050565b6008805490506009600083815260200190815260200160002081905550600881908060018154018082558091505060019003906000526020600020016000909190919091505550565b6000600161295d84610b92565b6129679190614294565b9050600060076000848152602001908152602001600020549050818114612a4c576000600660008673ffffffffffffffffffffffffffffffffffffffff1673ffffffffffffffffffffffffffffffffffffffff168152602001908152602001600020600084815260200190815260200160002054905080600660008773ffffffffffffffffffffffffffffffffffffffff1673ffffffffffffffffffffffffffffffffffffffff168152602001908152602001600020600084815260200190815260200160002081905550816007600083815260200190815260200160002081905550505b6007600084815260200190815260200160002060009055600660008573ffffffffffffffffffffffffffffffffffffffff1673ffffffffffffffffffffffffffffffffffffffff16815260200190815260200160002060008381526020019081526020016000206000905550505050565b60006001600880549050612ad19190614294565b9050600060096000848152602001908152602001600020549050600060088381548110612b27577f4e487b7100000000000000000000000000000000000000000000000000000000600052603260045260246000fd5b906000526020600020015490508060088381548110612b6f577f4e487b7100000000000000000000000000000000000000000000000000000000600052603260045260246000fd5b906000526020600020018190555081600960008381526020019081526020016000208190555060096000858152602001908152602001600020600090556008805480612be4577f4e487b7100000000000000000000000000000000000000000000000000000000600052603160045260246000fd5b6001900381819060005260206000200160009055905550505050565b6000612c0b83610b92565b905081600660008573ffffffffffffffffffffffffffffffffffffffff1673ffffffffffffffffffffffffffffffffffffffff168152602001908152602001600020600083815260200190815260200160002081905550806007600084815260200190815260200160002081905550505050565b600080823b905060008111915050919050565b612c9c8383612ced565b612ca960008484846126a0565b612ce8576040517f08c379a0000000000000000000000000000000000000000000000000000000008152600401612cdf90613e45565b60405180910390fd5b505050565b600073ffffffffffffffffffffffffffffffffffffffff168273ffffffffffffffffffffffffffffffffffffffff161415612d5d576040517f08c379a0000000000000000000000000000000000000000000000000000000008152600401612d5490613f45565b60405180910390fd5b612d6681611730565b15612da6576040517f08c379a0000000000000000000000000000000000000000000000000000000008152600401612d9d90613e65565b60405180910390fd5b612db26000838361258c565b6001600360008473ffffffffffffffffffffffffffffffffffffffff1673ffffffffffffffffffffffffffffffffffffffff1681526020019081526020016000206000828254612e0291906141b3565b92505081905550816002600083815260200190815260200160002060006101000a81548173ffffffffffffffffffffffffffffffffffffffff021916908373ffffffffffffffffffffffffffffffffffffffff160217905550808273ffffffffffffffffffffffffffffffffffffffff16600073ffffffffffffffffffffffffffffffffffffffff167fddf252ad1be2c89b69c2b068fc378daa952ba7f163c4a11628f55a4df523b3ef60405160405180910390a45050565b6040518060800160405280600081526020016060815260200160608152602001606081525090565b828054612eef9061437e565b90600052602060002090601f016020900481019282612f115760008555612f58565b82601f10612f2a57805160ff1916838001178555612f58565b82800160010185558215612f58579182015b82811115612f57578251825591602001919060010190612f3c565b5b509050612f659190612f69565b5090565b5b80821115612f82576000816000905550600101612f6a565b5090565b6000612f99612f94846140f6565b6140c5565b905082815260208101848484011115612fb157600080fd5b612fbc84828561433c565b509392505050565b600081359050612fd3816144f7565b92915050565b600081359050612fe88161450e565b92915050565b600081359050612ffd81614525565b92915050565b60008151905061301281614525565b92915050565b600082601f83011261302957600080fd5b8135613039848260208601612f86565b91505092915050565b6000813590506130518161453c565b92915050565b60006020828403121561306957600080fd5b600061307784828501612fc4565b91505092915050565b6000806040838503121561309357600080fd5b60006130a185828601612fc4565b92505060206130b285828601612fc4565b9150509250929050565b6000806000606084860312156130d157600080fd5b60006130df86828701612fc4565b93505060206130f086828701612fc4565b925050604061310186828701613042565b9150509250925092565b6000806000806080858703121561312157600080fd5b600061312f87828801612fc4565b945050602061314087828801612fc4565b935050604061315187828801613042565b925050606085013567ffffffffffffffff81111561316e57600080fd5b61317a87828801613018565b91505092959194509250565b6000806040838503121561319957600080fd5b60006131a785828601612fc4565b92505060206131b885828601612fd9565b9150509250929050565b600080604083850312156131d557600080fd5b60006131e385828601612fc4565b92505060206131f485828601613042565b9150509250929050565b60006020828403121561321057600080fd5b600061321e84828501612fee565b91505092915050565b60006020828403121561323957600080fd5b600061324784828501613003565b91505092915050565b60006020828403121561326257600080fd5b600061327084828501613042565b91505092915050565b60006132858383613bd4565b60208301905092915050565b61329a816142c8565b82525050565b60006132ab82614136565b6132b58185614164565b93506132c083614126565b8060005b838110156132f15781516132d88882613279565b97506132e383614157565b9250506001810190506132c4565b5085935050505092915050565b613307816142da565b82525050565b600061331882614141565b6133228185614175565b935061333281856020860161434b565b61333b816144e6565b840191505092915050565b60006133518261414c565b61335b8185614186565b935061336b81856020860161434b565b613374816144e6565b840191505092915050565b600061338a8261414c565b6133948185614197565b93506133a481856020860161434b565b6133ad816144e6565b840191505092915050565b60006133c38261414c565b6133cd81856141a8565b93506133dd81856020860161434b565b80840191505092915050565b60006133f66005836141a8565b91507f227d205d7d0000000000000000000000000000000000000000000000000000006000830152600582019050919050565b6000613436602b83614197565b91507f455243373231456e756d657261626c653a206f776e657220696e646578206f7560008301527f74206f6620626f756e64730000000000000000000000000000000000000000006020830152604082019050919050565b600061349c603283614197565b91507f4552433732313a207472616e7366657220746f206e6f6e20455243373231526560008301527f63656976657220696d706c656d656e74657200000000000000000000000000006020830152604082019050919050565b6000613502601c83614197565b91507f4552433732313a20746f6b656e20616c7265616479206d696e746564000000006000830152602082019050919050565b60006135426038836141a8565b91507f222c20226465736372697074696f6e223a20224120736f756e6473797374656d60008301527f20626f78222c2022696d616765223a2022697066733a2f2f00000000000000006020830152603882019050919050565b60006135a8602483614197565b91507f4552433732313a207472616e7366657220746f20746865207a65726f2061646460008301527f72657373000000000000000000000000000000000000000000000000000000006020830152604082019050919050565b600061360e601983614197565b91507f4552433732313a20617070726f766520746f2063616c6c6572000000000000006000830152602082019050919050565b600061364e602c83614197565b91507f4552433732313a206f70657261746f7220717565727920666f72206e6f6e657860008301527f697374656e7420746f6b656e00000000000000000000000000000000000000006020830152604082019050919050565b60006136b4603883614197565b91507f4552433732313a20617070726f76652063616c6c6572206973206e6f74206f7760008301527f6e6572206e6f7220617070726f76656420666f7220616c6c00000000000000006020830152604082019050919050565b600061371a602a83614197565b91507f4552433732313a2062616c616e636520717565727920666f7220746865207a6560008301527f726f2061646472657373000000000000000000000000000000000000000000006020830152604082019050919050565b6000613780602983614197565b91507f4552433732313a206f776e657220717565727920666f72206e6f6e657869737460008301527f656e7420746f6b656e00000000000000000000000000000000000000000000006020830152604082019050919050565b60006137e6603a836141a8565b91507f222c202261747472696275746573223a205b207b202274726169745f7479706560008301527f223a20226672657175656e6365222c202276616c7565223a20220000000000006020830152603a82019050919050565b600061384c602083614197565b91507f4552433732313a206d696e7420746f20746865207a65726f20616464726573736000830152602082019050919050565b600061388c602c83614197565b91507f4552433732313a20617070726f76656420717565727920666f72206e6f6e657860008301527f697374656e7420746f6b656e00000000000000000000000000000000000000006020830152604082019050919050565b60006138f2602983614197565b91507f4552433732313a207472616e73666572206f6620746f6b656e2074686174206960008301527f73206e6f74206f776e00000000000000000000000000000000000000000000006020830152604082019050919050565b60006139586026836141a8565b91507f227d2c207b202274726169745f74797065223a20226d6f6f64222c202276616c60008301527f7565223a202200000000000000000000000000000000000000000000000000006020830152602682019050919050565b60006139be602183614197565b91507f4552433732313a20617070726f76616c20746f2063757272656e74206f776e6560008301527f72000000000000000000000000000000000000000000000000000000000000006020830152604082019050919050565b6000613a24601d836141a8565b91507f7b226e616d65223a20222043727970746f536f6e6f734e465420233a200000006000830152601d82019050919050565b6000613a64601d836141a8565b91507f646174613a6170706c69636174696f6e2f6a736f6e3b6261736536342c0000006000830152601d82019050919050565b6000613aa4603183614197565b91507f4552433732313a207472616e736665722063616c6c6572206973206e6f74206f60008301527f776e6572206e6f7220617070726f7665640000000000000000000000000000006020830152604082019050919050565b6000613b0a602c83614197565b91507f455243373231456e756d657261626c653a20676c6f62616c20696e646578206f60008301527f7574206f6620626f756e647300000000000000000000000000000000000000006020830152604082019050919050565b6000608083016000830151613b7b6000860182613bd4565b5060208301518482036020860152613b938282613346565b91505060408301518482036040860152613bad8282613346565b91505060608301518482036060860152613bc78282613346565b9150508091505092915050565b613bdd81614332565b82525050565b613bec81614332565b82525050565b6000613bfd82613a17565b9150613c0982876133b8565b9150613c1482613535565b9150613c2082866133b8565b9150613c2b826137d9565b9150613c3782856133b8565b9150613c428261394b565b9150613c4e82846133b8565b9150613c59826133e9565b915081905095945050505050565b6000613c7282613a57565b9150613c7e82846133b8565b915081905092915050565b6000602082019050613c9e6000830184613291565b92915050565b6000608082019050613cb96000830187613291565b613cc66020830186613291565b613cd36040830185613be3565b8181036060830152613ce5818461330d565b905095945050505050565b6000606082019050613d056000830186613291565b613d126020830185613be3565b613d1f6040830184613be3565b949350505050565b60006020820190508181036000830152613d4181846132a0565b905092915050565b6000602082019050613d5e60008301846132fe565b92915050565b60006020820190508181036000830152613d7e818461337f565b905092915050565b60006080820190508181036000830152613da0818761337f565b90508181036020830152613db4818661337f565b90508181036040830152613dc8818561337f565b90508181036060830152613ddc818461337f565b905095945050505050565b60006060820190508181036000830152613e01818661337f565b9050613e106020830185613be3565b613e1d6040830184613be3565b949350505050565b60006020820190508181036000830152613e3e81613429565b9050919050565b60006020820190508181036000830152613e5e8161348f565b9050919050565b60006020820190508181036000830152613e7e816134f5565b9050919050565b60006020820190508181036000830152613e9e8161359b565b9050919050565b60006020820190508181036000830152613ebe81613601565b9050919050565b60006020820190508181036000830152613ede81613641565b9050919050565b60006020820190508181036000830152613efe816136a7565b9050919050565b60006020820190508181036000830152613f1e8161370d565b9050919050565b60006020820190508181036000830152613f3e81613773565b9050919050565b60006020820190508181036000830152613f5e8161383f565b9050919050565b60006020820190508181036000830152613f7e8161387f565b9050919050565b60006020820190508181036000830152613f9e816138e5565b9050919050565b60006020820190508181036000830152613fbe816139b1565b9050919050565b60006020820190508181036000830152613fde81613a97565b9050919050565b60006020820190508181036000830152613ffe81613afd565b9050919050565b6000602082019050818103600083015261401f8184613b63565b905092915050565b600060208201905061403c6000830184613be3565b92915050565b60006040820190506140576000830185613be3565b61406460208301846132fe565b9392505050565b60006080820190506140806000830187613be3565b8181036020830152614092818661337f565b905081810360408301526140a6818561337f565b905081810360608301526140ba818461337f565b905095945050505050565b6000604051905081810181811067ffffffffffffffff821117156140ec576140eb6144b7565b5b8060405250919050565b600067ffffffffffffffff821115614111576141106144b7565b5b601f19601f8301169050602081019050919050565b6000819050602082019050919050565b600081519050919050565b600081519050919050565b600081519050919050565b6000602082019050919050565b600082825260208201905092915050565b600082825260208201905092915050565b600082825260208201905092915050565b600082825260208201905092915050565b600081905092915050565b60006141be82614332565b91506141c983614332565b9250827fffffffffffffffffffffffffffffffffffffffffffffffffffffffffffffffff038211156141fe576141fd61442a565b5b828201905092915050565b600061421482614332565b915061421f83614332565b92508261422f5761422e614459565b5b828204905092915050565b600061424582614332565b915061425083614332565b9250817fffffffffffffffffffffffffffffffffffffffffffffffffffffffffffffffff04831182151516156142895761428861442a565b5b828202905092915050565b600061429f82614332565b91506142aa83614332565b9250828210156142bd576142bc61442a565b5b828203905092915050565b60006142d382614312565b9050919050565b60008115159050919050565b60007fffffffff0000000000000000000000000000000000000000000000000000000082169050919050565b600073ffffffffffffffffffffffffffffffffffffffff82169050919050565b6000819050919050565b82818337600083830152505050565b60005b8381101561436957808201518184015260208101905061434e565b83811115614378576000848401525b50505050565b6000600282049050600182168061439657607f821691505b602082108114156143aa576143a9614488565b5b50919050565b60006143bb82614332565b91507fffffffffffffffffffffffffffffffffffffffffffffffffffffffffffffffff8214156143ee576143ed61442a565b5b600182019050919050565b600061440482614332565b915061440f83614332565b92508261441f5761441e614459565b5b828206905092915050565b7f4e487b7100000000000000000000000000000000000000000000000000000000600052601160045260246000fd5b7f4e487b7100000000000000000000000000000000000000000000000000000000600052601260045260246000fd5b7f4e487b7100000000000000000000000000000000000000000000000000000000600052602260045260246000fd5b7f4e487b7100000000000000000000000000000000000000000000000000000000600052604160045260246000fd5b6000601f19601f8301169050919050565b614500816142c8565b811461450b57600080fd5b50565b614517816142da565b811461452257600080fd5b50565b61452e816142e6565b811461453957600080fd5b50565b61454581614332565b811461455057600080fd5b5056fe4142434445464748494a4b4c4d4e4f505152535455565758595a6162636465666768696a6b6c6d6e6f707172737475767778797a303132333435363738392b2f4d696e746564204e465420772f20746f6b656e496420257320616e6420636861726163746572496e646578202573a2646970667358221220db5de3b2ee81e930fcfd2df6b64fc8bd76f904e88199c6afe99534ee761398e964736f6c63430008000033",
  "linkReferences": {},
  "deployedLinkReferences": {}
}